{
  "_format": "hh-sol-artifact-1",
  "contractName": "TwitterV1",
  "sourceName": "contracts/TwitterV1.sol",
  "abi": [
    {
      "inputs": [],
      "stateMutability": "nonpayable",
      "type": "constructor"
    },
    {
      "anonymous": false,
      "inputs": [
        {
          "indexed": true,
          "internalType": "address",
          "name": "owner",
          "type": "address"
        },
        {
          "indexed": true,
          "internalType": "address",
          "name": "approved",
          "type": "address"
        },
        {
          "indexed": true,
          "internalType": "uint256",
          "name": "tokenId",
          "type": "uint256"
        }
      ],
      "name": "Approval",
      "type": "event"
    },
    {
      "anonymous": false,
      "inputs": [
        {
          "indexed": true,
          "internalType": "address",
          "name": "owner",
          "type": "address"
        },
        {
          "indexed": true,
          "internalType": "address",
          "name": "operator",
          "type": "address"
        },
        {
          "indexed": false,
          "internalType": "bool",
          "name": "approved",
          "type": "bool"
        }
      ],
      "name": "ApprovalForAll",
      "type": "event"
    },
    {
      "anonymous": false,
      "inputs": [
        {
          "indexed": true,
          "internalType": "address",
          "name": "from",
          "type": "address"
        },
        {
          "indexed": true,
          "internalType": "address",
          "name": "to",
          "type": "address"
        },
        {
          "indexed": true,
          "internalType": "uint256",
          "name": "tokenId",
          "type": "uint256"
        }
      ],
      "name": "Transfer",
      "type": "event"
    },
    {
      "anonymous": false,
      "inputs": [
        {
          "indexed": true,
          "internalType": "address",
          "name": "sender",
          "type": "address"
        },
        {
          "indexed": false,
          "internalType": "string",
          "name": "tweet",
          "type": "string"
        }
      ],
      "name": "Tweeted",
      "type": "event"
    },
    {
      "inputs": [
        {
          "internalType": "address",
          "name": "to",
          "type": "address"
        },
        {
          "internalType": "uint256",
          "name": "tokenId",
          "type": "uint256"
        }
      ],
      "name": "approve",
      "outputs": [],
      "stateMutability": "nonpayable",
      "type": "function"
    },
    {
      "inputs": [
        {
          "internalType": "address",
          "name": "owner",
          "type": "address"
        }
      ],
      "name": "balanceOf",
      "outputs": [
        {
          "internalType": "uint256",
          "name": "",
          "type": "uint256"
        }
      ],
      "stateMutability": "view",
      "type": "function"
    },
    {
      "inputs": [
        {
          "internalType": "uint256",
          "name": "_tokenId",
          "type": "uint256"
        }
      ],
      "name": "buildMetaData",
      "outputs": [
        {
          "internalType": "string",
          "name": "",
          "type": "string"
        }
      ],
      "stateMutability": "view",
      "type": "function"
    },
    {
      "inputs": [
        {
          "internalType": "address",
          "name": "_address",
          "type": "address"
        }
      ],
      "name": "follow",
      "outputs": [],
      "stateMutability": "nonpayable",
      "type": "function"
    },
    {
      "inputs": [
        {
          "internalType": "address",
          "name": "",
          "type": "address"
        },
        {
          "internalType": "uint256",
          "name": "",
          "type": "uint256"
        }
      ],
      "name": "followers",
      "outputs": [
        {
          "internalType": "address",
          "name": "id",
          "type": "address"
        }
      ],
      "stateMutability": "view",
      "type": "function"
    },
    {
      "inputs": [
        {
          "internalType": "address",
          "name": "",
          "type": "address"
        },
        {
          "internalType": "uint256",
          "name": "",
          "type": "uint256"
        }
      ],
      "name": "followings",
      "outputs": [
        {
          "internalType": "address",
          "name": "id",
          "type": "address"
        }
      ],
      "stateMutability": "view",
      "type": "function"
    },
    {
      "inputs": [
        {
          "internalType": "uint256",
          "name": "tokenId",
          "type": "uint256"
        }
      ],
      "name": "getApproved",
      "outputs": [
        {
          "internalType": "address",
          "name": "",
          "type": "address"
        }
      ],
      "stateMutability": "view",
      "type": "function"
    },
    {
      "inputs": [
        {
          "internalType": "address",
          "name": "_address",
          "type": "address"
        }
      ],
      "name": "getFollowers",
      "outputs": [
        {
          "components": [
            {
              "internalType": "address",
              "name": "id",
              "type": "address"
            }
          ],
          "internalType": "struct TwitterV1.User[]",
          "name": "",
          "type": "tuple[]"
        }
      ],
      "stateMutability": "view",
      "type": "function"
    },
    {
      "inputs": [
        {
          "internalType": "address",
          "name": "_address",
          "type": "address"
        }
      ],
      "name": "getFollowings",
      "outputs": [
        {
          "components": [
            {
              "internalType": "address",
              "name": "id",
              "type": "address"
            }
          ],
          "internalType": "struct TwitterV1.User[]",
          "name": "",
          "type": "tuple[]"
        }
      ],
      "stateMutability": "view",
      "type": "function"
    },
    {
      "inputs": [
        {
          "internalType": "int256",
          "name": "offset",
          "type": "int256"
        },
        {
          "internalType": "int256",
          "name": "limit",
          "type": "int256"
        }
      ],
      "name": "getTimeline",
      "outputs": [
        {
          "components": [
            {
              "internalType": "uint256",
              "name": "tokenId",
              "type": "uint256"
            },
            {
              "internalType": "string",
              "name": "content",
              "type": "string"
            },
            {
              "internalType": "address",
              "name": "author",
              "type": "address"
            },
            {
              "internalType": "uint256",
              "name": "timestamp",
              "type": "uint256"
            },
            {
              "internalType": "string",
              "name": "attachment",
              "type": "string"
            }
          ],
          "internalType": "struct TwitterV1.Tweet[]",
          "name": "",
          "type": "tuple[]"
        }
      ],
      "stateMutability": "view",
      "type": "function"
    },
    {
      "inputs": [
        {
          "internalType": "address",
          "name": "_address",
          "type": "address"
        }
      ],
      "name": "getUserTweets",
      "outputs": [
        {
          "components": [
            {
              "internalType": "uint256",
              "name": "tokenId",
              "type": "uint256"
            },
            {
              "internalType": "string",
              "name": "content",
              "type": "string"
            },
            {
              "internalType": "address",
              "name": "author",
              "type": "address"
            },
            {
              "internalType": "uint256",
              "name": "timestamp",
              "type": "uint256"
            },
            {
              "internalType": "string",
              "name": "attachment",
              "type": "string"
            }
          ],
          "internalType": "struct TwitterV1.Tweet[]",
          "name": "",
          "type": "tuple[]"
        }
      ],
      "stateMutability": "view",
      "type": "function"
    },
    {
      "inputs": [],
      "name": "initialize",
      "outputs": [],
      "stateMutability": "nonpayable",
      "type": "function"
    },
    {
      "inputs": [
        {
          "internalType": "address",
          "name": "owner",
          "type": "address"
        },
        {
          "internalType": "address",
          "name": "operator",
          "type": "address"
        }
      ],
      "name": "isApprovedForAll",
      "outputs": [
        {
          "internalType": "bool",
          "name": "",
          "type": "bool"
        }
      ],
      "stateMutability": "view",
      "type": "function"
    },
    {
      "inputs": [
        {
          "internalType": "address",
          "name": "_address",
          "type": "address"
        }
      ],
      "name": "isFollowing",
      "outputs": [
        {
          "internalType": "bool",
          "name": "",
          "type": "bool"
        }
      ],
      "stateMutability": "view",
      "type": "function"
    },
    {
      "inputs": [],
      "name": "name",
      "outputs": [
        {
          "internalType": "string",
          "name": "",
          "type": "string"
        }
      ],
      "stateMutability": "view",
      "type": "function"
    },
    {
      "inputs": [
        {
          "internalType": "uint256",
          "name": "tokenId",
          "type": "uint256"
        }
      ],
      "name": "ownerOf",
      "outputs": [
        {
          "internalType": "address",
          "name": "",
          "type": "address"
        }
      ],
      "stateMutability": "view",
      "type": "function"
    },
    {
      "inputs": [
        {
          "internalType": "address",
          "name": "from",
          "type": "address"
        },
        {
          "internalType": "address",
          "name": "to",
          "type": "address"
        },
        {
          "internalType": "uint256",
          "name": "tokenId",
          "type": "uint256"
        }
      ],
      "name": "safeTransferFrom",
      "outputs": [],
      "stateMutability": "nonpayable",
      "type": "function"
    },
    {
      "inputs": [
        {
          "internalType": "address",
          "name": "from",
          "type": "address"
        },
        {
          "internalType": "address",
          "name": "to",
          "type": "address"
        },
        {
          "internalType": "uint256",
          "name": "tokenId",
          "type": "uint256"
        },
        {
          "internalType": "bytes",
          "name": "_data",
          "type": "bytes"
        }
      ],
      "name": "safeTransferFrom",
      "outputs": [],
      "stateMutability": "nonpayable",
      "type": "function"
    },
    {
      "inputs": [
        {
          "internalType": "address",
          "name": "operator",
          "type": "address"
        },
        {
          "internalType": "bool",
          "name": "approved",
          "type": "bool"
        }
      ],
      "name": "setApprovalForAll",
      "outputs": [],
      "stateMutability": "nonpayable",
      "type": "function"
    },
    {
      "inputs": [
        {
          "internalType": "string",
          "name": "_tweet",
          "type": "string"
        },
        {
          "internalType": "string",
          "name": "_imageData",
          "type": "string"
        }
      ],
      "name": "setTweet",
      "outputs": [],
      "stateMutability": "payable",
      "type": "function"
    },
    {
      "inputs": [
        {
          "internalType": "bytes4",
          "name": "interfaceId",
          "type": "bytes4"
        }
      ],
      "name": "supportsInterface",
      "outputs": [
        {
          "internalType": "bool",
          "name": "",
          "type": "bool"
        }
      ],
      "stateMutability": "view",
      "type": "function"
    },
    {
      "inputs": [],
      "name": "symbol",
      "outputs": [
        {
          "internalType": "string",
          "name": "",
          "type": "string"
        }
      ],
      "stateMutability": "view",
      "type": "function"
    },
    {
      "inputs": [
        {
          "internalType": "uint256",
          "name": "index",
          "type": "uint256"
        }
      ],
      "name": "tokenByIndex",
      "outputs": [
        {
          "internalType": "uint256",
          "name": "",
          "type": "uint256"
        }
      ],
      "stateMutability": "view",
      "type": "function"
    },
    {
      "inputs": [
        {
          "internalType": "address",
          "name": "owner",
          "type": "address"
        },
        {
          "internalType": "uint256",
          "name": "index",
          "type": "uint256"
        }
      ],
      "name": "tokenOfOwnerByIndex",
      "outputs": [
        {
          "internalType": "uint256",
          "name": "",
          "type": "uint256"
        }
      ],
      "stateMutability": "view",
      "type": "function"
    },
    {
      "inputs": [
        {
          "internalType": "uint256",
          "name": "_tokenId",
          "type": "uint256"
        }
      ],
      "name": "tokenURI",
      "outputs": [
        {
          "internalType": "string",
          "name": "",
          "type": "string"
        }
      ],
      "stateMutability": "view",
      "type": "function"
    },
    {
      "inputs": [],
      "name": "totalSupply",
      "outputs": [
        {
          "internalType": "uint256",
          "name": "",
          "type": "uint256"
        }
      ],
      "stateMutability": "view",
      "type": "function"
    },
    {
      "inputs": [
        {
          "internalType": "address",
          "name": "from",
          "type": "address"
        },
        {
          "internalType": "address",
          "name": "to",
          "type": "address"
        },
        {
          "internalType": "uint256",
          "name": "tokenId",
          "type": "uint256"
        }
      ],
      "name": "transferFrom",
      "outputs": [],
      "stateMutability": "nonpayable",
      "type": "function"
    },
    {
      "inputs": [
        {
          "internalType": "uint256",
          "name": "",
          "type": "uint256"
        }
      ],
      "name": "tweets",
      "outputs": [
        {
          "internalType": "uint256",
          "name": "tokenId",
          "type": "uint256"
        },
        {
          "internalType": "string",
          "name": "content",
          "type": "string"
        },
        {
          "internalType": "address",
          "name": "author",
          "type": "address"
        },
        {
          "internalType": "uint256",
          "name": "timestamp",
          "type": "uint256"
        },
        {
          "internalType": "string",
          "name": "attachment",
          "type": "string"
        }
      ],
      "stateMutability": "view",
      "type": "function"
    },
    {
      "inputs": [
        {
          "internalType": "address",
          "name": "_address",
          "type": "address"
        }
      ],
      "name": "unfollow",
      "outputs": [],
      "stateMutability": "nonpayable",
      "type": "function"
    }
  ],
  "bytecode": "0x60806040523480156200001157600080fd5b50600054610100900460ff16806200002c575060005460ff16155b620000845760405162461bcd60e51b815260206004820152602e60248201526000805160206200402683398151915260448201526d191e481a5b9a5d1a585b1a5e995960921b60648201526084015b60405180910390fd5b600054610100900460ff16158015620000a7576000805461ffff19166101011790555b620000f160405180604001604052806005815260200164151dd9595d60da1b815250604051806040016040528060038152602001621515d560ea1b8152506200010b60201b60201c565b801562000104576000805461ff00191690555b5062000432565b600054610100900460ff168062000125575060005460ff16155b620001795760405162461bcd60e51b815260206004820152602e60248201526000805160206200402683398151915260448201526d191e481a5b9a5d1a585b1a5e995960921b60648201526084016200007b565b600054610100900460ff161580156200019c576000805461ffff19166101011790555b620001a6620001d4565b620001b0620001d4565b620001bc83836200027b565b8015620001cf576000805461ff00191690555b505050565b600054610100900460ff1680620001ee575060005460ff16155b620002425760405162461bcd60e51b815260206004820152602e60248201526000805160206200402683398151915260448201526d191e481a5b9a5d1a585b1a5e995960921b60648201526084016200007b565b600054610100900460ff1615801562000265576000805461ffff19166101011790555b801562000278576000805461ff00191690555b50565b600054610100900460ff168062000295575060005460ff16155b620002e95760405162461bcd60e51b815260206004820152602e60248201526000805160206200402683398151915260448201526d191e481a5b9a5d1a585b1a5e995960921b60648201526084016200007b565b600054610100900460ff161580156200030c576000805461ffff19166101011790555b8251620003219060659060208601906200034f565b508151620003379060669060208501906200034f565b508015620001cf576000805461ff0019169055505050565b8280546200035d90620003f5565b90600052602060002090601f016020900481019282620003815760008555620003cc565b82601f106200039c57805160ff1916838001178555620003cc565b82800160010185558215620003cc579182015b82811115620003cc578251825591602001919060010190620003af565b50620003da929150620003de565b5090565b5b80821115620003da5760008155600101620003df565b600181811c908216806200040a57607f821691505b602082108114156200042c57634e487b7160e01b600052602260045260246000fd5b50919050565b613be480620004426000396000f3fe6080604052600436106101c25760003560e01c80636352211e116100f7578063c87b56dd11610095578063dedf1b4a11610064578063dedf1b4a1461050e578063e8d857b01461052e578063e985e9c51461055f578063ebd009d3146105a857600080fd5b8063c87b56dd1461049b578063cca22f79146104bb578063d8384b8a146104db578063de440e0e146104fb57600080fd5b806395d89b41116100d157806395d89b4114610419578063a22cb4651461042e578063b88d4fde1461044e578063c2fe20221461046e57600080fd5b80636352211e146103c457806370a08231146103e45780638129fc1c1461040457600080fd5b806323b872dd1161016457806340c184af1161013e57806340c184af1461034457806342842e0e146103645780634dbf27cc146103845780634f6ccce7146103a457600080fd5b806323b872dd146102d75780632f5899d7146102f75780632f745c591461032457600080fd5b8063081812fc116101a0578063081812fc14610240578063095ea7b31461027857806309d4d7961461029857806318160ddd146102b857600080fd5b8063015a4ead146101c757806301ffc9a7146101e957806306fdde031461021e575b600080fd5b3480156101d357600080fd5b506101e76101e2366004613418565b6105c8565b005b3480156101f557600080fd5b5061020961020436600461357b565b6109c3565b60405190151581526020015b60405180910390f35b34801561022a57600080fd5b50610233610a07565b6040516102159190613914565b34801561024c57600080fd5b5061026061025b366004613635565b610a99565b6040516001600160a01b039091168152602001610215565b34801561028457600080fd5b506101e7610293366004613552565b610b2e565b3480156102a457600080fd5b506102096102b3366004613418565b610c60565b3480156102c457600080fd5b506099545b604051908152602001610215565b3480156102e357600080fd5b506101e76102f2366004613464565b610cf5565b34801561030357600080fd5b50610317610312366004613418565b610d7c565b6040516102159190613823565b34801561033057600080fd5b506102c961033f366004613552565b6110e0565b34801561035057600080fd5b5061031761035f3660046135b3565b611188565b34801561037057600080fd5b506101e761037f366004613464565b61159a565b34801561039057600080fd5b506101e761039f366004613418565b6115b5565b3480156103b057600080fd5b506102c96103bf366004613635565b6117d5565b3480156103d057600080fd5b506102606103df366004613635565b611887565b3480156103f057600080fd5b506102c96103ff366004613418565b611912565b34801561041057600080fd5b506101e76119ac565b34801561042557600080fd5b50610233611a6e565b34801561043a57600080fd5b506101e7610449366004613518565b611a7d565b34801561045a57600080fd5b506101e761046936600461349f565b611a88565b34801561047a57600080fd5b5061048e610489366004613418565b611b16565b60405161021591906138d2565b3480156104a757600080fd5b506102336104b6366004613635565b611b93565b3480156104c757600080fd5b5061048e6104d6366004613418565b611c29565b3480156104e757600080fd5b506102336104f6366004613635565b611c98565b6101e76105093660046135d4565b611f74565b34801561051a57600080fd5b50610260610529366004613552565b61229d565b34801561053a57600080fd5b5061054e610549366004613635565b6122d5565b604051610215959493929190613927565b34801561056b57600080fd5b5061020961057a366004613432565b6001600160a01b039182166000908152606a6020908152604080832093909416825291909152205460ff1690565b3480156105b457600080fd5b506102606105c3366004613552565b612435565b6001600160a01b0381163314156106265760405162461bcd60e51b815260206004820152601d60248201527f596f752063616e6e6f7420756e666f6c6c6f7720796f757273656c662e00000060448201526064015b60405180910390fd5b60005b33600090815260ca60205260409020548110156107e05733600090815260ca6020526040902080546001600160a01b03841691908390811061067b57634e487b7160e01b600052603260045260246000fd5b6000918252602090912001546001600160a01b031614156107ce57805b33600090815260ca60205260409020546106b490600190613a16565b81101561077e5733600090815260ca602052604090206106d5826001613973565b815481106106f357634e487b7160e01b600052603260045260246000fd5b9060005260206000200160ca6000336001600160a01b03166001600160a01b03168152602001908152602001600020828154811061074157634e487b7160e01b600052603260045260246000fd5b600091825260209091209154910180546001600160a01b0319166001600160a01b039092169190911790558061077681613ab2565b915050610698565b5033600090815260ca602052604090208054806107ab57634e487b7160e01b600052603160045260246000fd5b600082815260209020810160001990810180546001600160a01b03191690550190555b806107d881613ab2565b915050610629565b5060005b6001600160a01b038216600090815260cb60205260409020548110156109bf576001600160a01b038216600090815260cb6020526040902080543391908390811061083f57634e487b7160e01b600052603260045260246000fd5b6000918252602090912001546001600160a01b031614156109ad57805b6001600160a01b038316600090815260cb602052604090205461088190600190613a16565b811015610954576001600160a01b038316600090815260cb602052604090206108ab826001613973565b815481106108c957634e487b7160e01b600052603260045260246000fd5b9060005260206000200160cb6000856001600160a01b03166001600160a01b03168152602001908152602001600020828154811061091757634e487b7160e01b600052603260045260246000fd5b600091825260209091209154910180546001600160a01b0319166001600160a01b039092169190911790558061094c81613ab2565b91505061085c565b506001600160a01b038216600090815260cb6020526040902080548061098a57634e487b7160e01b600052603160045260246000fd5b600082815260209020810160001990810180546001600160a01b03191690550190555b806109b781613ab2565b9150506107e4565b5050565b60006001600160e01b031982167f780e9d63000000000000000000000000000000000000000000000000000000001480610a015750610a0182612451565b92915050565b606060658054610a1690613a77565b80601f0160208091040260200160405190810160405280929190818152602001828054610a4290613a77565b8015610a8f5780601f10610a6457610100808354040283529160200191610a8f565b820191906000526020600020905b815481529060010190602001808311610a7257829003601f168201915b5050505050905090565b6000818152606760205260408120546001600160a01b0316610b125760405162461bcd60e51b815260206004820152602c60248201527f4552433732313a20617070726f76656420717565727920666f72206e6f6e657860448201526b34b9ba32b73a103a37b5b2b760a11b606482015260840161061d565b506000908152606960205260409020546001600160a01b031690565b6000610b3982611887565b9050806001600160a01b0316836001600160a01b03161415610bc35760405162461bcd60e51b815260206004820152602160248201527f4552433732313a20617070726f76616c20746f2063757272656e74206f776e6560448201527f7200000000000000000000000000000000000000000000000000000000000000606482015260840161061d565b336001600160a01b0382161480610bdf5750610bdf813361057a565b610c515760405162461bcd60e51b815260206004820152603860248201527f4552433732313a20617070726f76652063616c6c6572206973206e6f74206f7760448201527f6e6572206e6f7220617070726f76656420666f7220616c6c0000000000000000606482015260840161061d565b610c5b83836124ec565b505050565b600080805b33600090815260ca6020526040902054811015610cee5733600090815260ca6020526040902080546001600160a01b038616919083908110610cb757634e487b7160e01b600052603260045260246000fd5b6000918252602090912001546001600160a01b03161415610cdc575060019392505050565b80610ce681613ab2565b915050610c65565b5092915050565b610cff338261255a565b610d715760405162461bcd60e51b815260206004820152603160248201527f4552433732313a207472616e736665722063616c6c6572206973206e6f74206f60448201527f776e6572206e6f7220617070726f766564000000000000000000000000000000606482015260840161061d565b610c5b838383612651565b60606000805b60c954811015610dfa57836001600160a01b031660c98281548110610db757634e487b7160e01b600052603260045260246000fd5b60009182526020909120600260059092020101546001600160a01b03161415610de85781610de481613ab2565b9250505b80610df281613ab2565b915050610d82565b5060008167ffffffffffffffff811115610e2457634e487b7160e01b600052604160045260246000fd5b604051908082528060200260200182016040528015610e9057816020015b610e7d6040518060a00160405280600081526020016060815260200160006001600160a01b0316815260200160008152602001606081525090565b815260200190600190039081610e425790505b509050600080600160c980549050610ea89190613a16565b90505b806000136110d657856001600160a01b031660c98281548110610ede57634e487b7160e01b600052603260045260246000fd5b60009182526020909120600260059092020101546001600160a01b031614156110c45760c98181548110610f2257634e487b7160e01b600052603260045260246000fd5b90600052602060002090600502016040518060a001604052908160008201548152602001600182018054610f5590613a77565b80601f0160208091040260200160405190810160405280929190818152602001828054610f8190613a77565b8015610fce5780601f10610fa357610100808354040283529160200191610fce565b820191906000526020600020905b815481529060010190602001808311610fb157829003601f168201915b505050918352505060028201546001600160a01b031660208201526003820154604082015260048201805460609092019161100890613a77565b80601f016020809104026020016040519081016040528092919081815260200182805461103490613a77565b80156110815780601f1061105657610100808354040283529160200191611081565b820191906000526020600020905b81548152906001019060200180831161106457829003601f168201915b5050505050815250508383815181106110aa57634e487b7160e01b600052603260045260246000fd5b602002602001018190525081806110c090613ab2565b9250505b806110ce81613a59565b915050610eab565b5090949350505050565b60006110eb83611912565b821061115f5760405162461bcd60e51b815260206004820152602b60248201527f455243373231456e756d657261626c653a206f776e657220696e646578206f7560448201527f74206f6620626f756e6473000000000000000000000000000000000000000000606482015260840161061d565b506001600160a01b03919091166000908152609760209081526040808320938352929052205490565b606060008312156112015760405162461bcd60e51b815260206004820152602a60248201527f4f6666736574206d7573742062652067726561746572207468616e206f72206560448201527f7175616c20746f20302e00000000000000000000000000000000000000000000606482015260840161061d565b60c95483111561127757604080516000808252602082019092529061126f565b61125c6040518060a00160405280600081526020016060815260200160006001600160a01b0316815260200160008152602001606081525090565b8152602001906001900390816112215790505b509050610a01565b60c95460008361128786846139be565b1361129b5761129685836139be565b61129d565b835b905060008167ffffffffffffffff8111156112c857634e487b7160e01b600052604160045260246000fd5b60405190808252806020026020018201604052801561133457816020015b6113216040518060a00160405280600081526020016060815260200160006001600160a01b0316815260200160008152602001606081525090565b8152602001906001900390816112e65790505b509050600080600161134689866139be565b61135091906139be565b90505b808761135f8a876139be565b61136991906139be565b1361158e57600161137a89866139be565b61138491906139be565b81131580156113a75750808761139a8a876139be565b6113a491906139be565b13155b80156113b4575060008112155b1561157c5760c981815481106113da57634e487b7160e01b600052603260045260246000fd5b90600052602060002090600502016040518060a00160405290816000820154815260200160018201805461140d90613a77565b80601f016020809104026020016040519081016040528092919081815260200182805461143990613a77565b80156114865780601f1061145b57610100808354040283529160200191611486565b820191906000526020600020905b81548152906001019060200180831161146957829003601f168201915b505050918352505060028201546001600160a01b03166020820152600382015460408201526004820180546060909201916114c090613a77565b80601f01602080910402602001604051908101604052809291908181526020018280546114ec90613a77565b80156115395780601f1061150e57610100808354040283529160200191611539565b820191906000526020600020905b81548152906001019060200180831161151c57829003601f168201915b50505050508152505083838151811061156257634e487b7160e01b600052603260045260246000fd5b6020026020010181905250818061157890613ab2565b9250505b8061158681613a59565b915050611353565b50909695505050505050565b610c5b83838360405180602001604052806000815250611a88565b6001600160a01b03811633141561160e5760405162461bcd60e51b815260206004820152601b60248201527f596f752063616e6e6f7420666f6c6c6f7720796f757273656c662e0000000000604482015260640161061d565b6000805b33600090815260ca60205260409020548110156116965733600090815260ca6020526040902080546001600160a01b03851691908390811061166457634e487b7160e01b600052603260045260246000fd5b6000918252602090912001546001600160a01b0316141561168457600191505b8061168e81613ab2565b915050611612565b50806116ed5733600090815260ca6020908152604080832081518084019092526001600160a01b0386811683528154600181018355918552929093209051920180546001600160a01b031916929091169190911790555b506000805b6001600160a01b038316600090815260cb602052604090205481101561177f576001600160a01b038316600090815260cb6020526040902080543391908390811061174d57634e487b7160e01b600052603260045260246000fd5b6000918252602090912001546001600160a01b0316141561176d57600191505b8061177781613ab2565b9150506116f2565b50806109bf57506001600160a01b03908116600090815260cb6020908152604080832081518084019092523382528054600181018255908452919092209151910180546001600160a01b03191691909216179055565b60006117e060995490565b82106118545760405162461bcd60e51b815260206004820152602c60248201527f455243373231456e756d657261626c653a20676c6f62616c20696e646578206f60448201527f7574206f6620626f756e64730000000000000000000000000000000000000000606482015260840161061d565b6099828154811061187557634e487b7160e01b600052603260045260246000fd5b90600052602060002001549050919050565b6000818152606760205260408120546001600160a01b031680610a015760405162461bcd60e51b815260206004820152602960248201527f4552433732313a206f776e657220717565727920666f72206e6f6e657869737460448201527f656e7420746f6b656e0000000000000000000000000000000000000000000000606482015260840161061d565b60006001600160a01b0382166119905760405162461bcd60e51b815260206004820152602a60248201527f4552433732313a2062616c616e636520717565727920666f7220746865207a6560448201527f726f206164647265737300000000000000000000000000000000000000000000606482015260840161061d565b506001600160a01b031660009081526068602052604090205490565b600054610100900460ff16806119c5575060005460ff16155b611a375760405162461bcd60e51b815260206004820152602e60248201527f496e697469616c697a61626c653a20636f6e747261637420697320616c72656160448201527f647920696e697469616c697a6564000000000000000000000000000000000000606482015260840161061d565b600054610100900460ff16158015611a59576000805461ffff19166101011790555b8015611a6b576000805461ff00191690555b50565b606060668054610a1690613a77565b6109bf338383612829565b611a92338361255a565b611b045760405162461bcd60e51b815260206004820152603160248201527f4552433732313a207472616e736665722063616c6c6572206973206e6f74206f60448201527f776e6572206e6f7220617070726f766564000000000000000000000000000000606482015260840161061d565b611b10848484846128f8565b50505050565b6001600160a01b038116600090815260cb60209081526040808320805482518185028101850190935280835260609492939192909184015b82821015611b8857600084815260209081902060408051808401909152908401546001600160a01b03168152825260019092019101611b4e565b505050509050919050565b6000818152606760205260409020546060906001600160a01b0316611c205760405162461bcd60e51b815260206004820152602f60248201527f4552433732314d657461646174613a2055524920717565727920666f72206e6f60448201527f6e6578697374656e7420746f6b656e0000000000000000000000000000000000606482015260840161061d565b610a0182611c98565b6001600160a01b038116600090815260ca60209081526040808320805482518185028101850190935280835260609492939192909184018215611b8857600084815260209081902060408051808401909152908401546001600160a01b03168152825260019092019101611b4e565b6040805160a0810182526000808252606060208301819052928201819052818301526080810182905260005b60c954811015611ea6578360c98281548110611cf057634e487b7160e01b600052603260045260246000fd5b9060005260206000209060050201600001541415611e945760c98181548110611d2957634e487b7160e01b600052603260045260246000fd5b90600052602060002090600502016040518060a001604052908160008201548152602001600182018054611d5c90613a77565b80601f0160208091040260200160405190810160405280929190818152602001828054611d8890613a77565b8015611dd55780601f10611daa57610100808354040283529160200191611dd5565b820191906000526020600020905b815481529060010190602001808311611db857829003601f168201915b505050918352505060028201546001600160a01b0316602082015260038201546040820152600482018054606090920191611e0f90613a77565b80601f0160208091040260200160405190810160405280929190818152602001828054611e3b90613a77565b8015611e885780601f10611e5d57610100808354040283529160200191611e88565b820191906000526020600020905b815481529060010190602001808311611e6b57829003601f168201915b50505050508152505091505b80611e9e81613ab2565b915050611cc4565b5080518314611ef75760405162461bcd60e51b815260206004820152601060248201527f5477656574206e6f7420666f756e642e00000000000000000000000000000000604482015260640161061d565b611f4d611f0384612976565b8260200151604051806060016040528060358152602001613b3a603591398460800151604051602001611f399493929190613679565b604051602081830303815290604052612ac4565b604051602001611f5d91906137a2565b604051602081830303815290604052915050919050565b6000611f7f60995490565b90506000611f8e826001613973565b9050611f9a8351151590565b156120ab576040805160a081018252828152602080820187815233938301939093524260608301526080820186905260c98054600181018255600091909152825160059091027f66be4f155c5ef2ebd3772b228f2f00681e4ed5826cdb3b1943cc11ad15ad1d2881019182559351805193949193612041937f66be4f155c5ef2ebd3772b228f2f00681e4ed5826cdb3b1943cc11ad15ad1d299093019291909101906132c7565b5060408201516002820180546001600160a01b0319166001600160a01b03909216919091179055606082015160038201556080820151805161208d9160048401916020909101906132c7565b5050506120a6338360016120a19190613973565b612c71565b612256565b83516120f95760405162461bcd60e51b815260206004820152601260248201527f547765657420697320746f6f2073686f72740000000000000000000000000000604482015260640161061d565b61210284612c8b565b61214e5760405162461bcd60e51b815260206004820181905260248201527f5370616365206f6e6c79207477656574206973206e6f7420616c6c6f7765642e604482015260640161061d565b6040805160a0810182528281526020808201878152338385015242606084015283518083019094526000808552608084019490945260c980546001810182559452825160059094027f66be4f155c5ef2ebd3772b228f2f00681e4ed5826cdb3b1943cc11ad15ad1d288101948555905180519394936121f6937f66be4f155c5ef2ebd3772b228f2f00681e4ed5826cdb3b1943cc11ad15ad1d299093019291909101906132c7565b5060408201516002820180546001600160a01b0319166001600160a01b0390921691909117905560608201516003820155608082015180516122429160048401916020909101906132c7565b505050612256338360016120a19190613973565b336001600160a01b03167fed917e0e51bb528b7fef2750065cd119dddd8e8fa54f38a656d4107e7c14f37a8560405161228f9190613914565b60405180910390a250505050565b60ca60205281600052604060002081815481106122b957600080fd5b6000918252602090912001546001600160a01b03169150829050565b60c981815481106122e557600080fd5b6000918252602090912060059091020180546001820180549193509061230a90613a77565b80601f016020809104026020016040519081016040528092919081815260200182805461233690613a77565b80156123835780601f1061235857610100808354040283529160200191612383565b820191906000526020600020905b81548152906001019060200180831161236657829003601f168201915b505050506002830154600384015460048501805494956001600160a01b0390931694919350906123b290613a77565b80601f01602080910402602001604051908101604052809291908181526020018280546123de90613a77565b801561242b5780601f106124005761010080835404028352916020019161242b565b820191906000526020600020905b81548152906001019060200180831161240e57829003601f168201915b5050505050905085565b60cb60205281600052604060002081815481106122b957600080fd5b60006001600160e01b031982167f80ac58cd0000000000000000000000000000000000000000000000000000000014806124b457506001600160e01b031982167f5b5e139f00000000000000000000000000000000000000000000000000000000145b80610a0157507f01ffc9a7000000000000000000000000000000000000000000000000000000006001600160e01b0319831614610a01565b600081815260696020526040902080546001600160a01b0319166001600160a01b038416908117909155819061252182611887565b6001600160a01b03167f8c5be1e5ebec7d5bd14f71427d1e84f3dd0314c0f7b2291e5b200ac8c7c3b92560405160405180910390a45050565b6000818152606760205260408120546001600160a01b03166125d35760405162461bcd60e51b815260206004820152602c60248201527f4552433732313a206f70657261746f7220717565727920666f72206e6f6e657860448201526b34b9ba32b73a103a37b5b2b760a11b606482015260840161061d565b60006125de83611887565b9050806001600160a01b0316846001600160a01b031614806126195750836001600160a01b031661260e84610a99565b6001600160a01b0316145b8061264957506001600160a01b038082166000908152606a602090815260408083209388168352929052205460ff165b949350505050565b826001600160a01b031661266482611887565b6001600160a01b0316146126e05760405162461bcd60e51b815260206004820152602960248201527f4552433732313a207472616e73666572206f6620746f6b656e2074686174206960448201527f73206e6f74206f776e0000000000000000000000000000000000000000000000606482015260840161061d565b6001600160a01b03821661275b5760405162461bcd60e51b8152602060048201526024808201527f4552433732313a207472616e7366657220746f20746865207a65726f2061646460448201527f7265737300000000000000000000000000000000000000000000000000000000606482015260840161061d565b612766838383612d31565b6127716000826124ec565b6001600160a01b038316600090815260686020526040812080546001929061279a908490613a16565b90915550506001600160a01b03821660009081526068602052604081208054600192906127c8908490613973565b909155505060008181526067602052604080822080546001600160a01b0319166001600160a01b0386811691821790925591518493918716917fddf252ad1be2c89b69c2b068fc378daa952ba7f163c4a11628f55a4df523b3ef91a4505050565b816001600160a01b0316836001600160a01b0316141561288b5760405162461bcd60e51b815260206004820152601960248201527f4552433732313a20617070726f766520746f2063616c6c657200000000000000604482015260640161061d565b6001600160a01b038381166000818152606a6020908152604080832094871680845294825291829020805460ff191686151590811790915591519182527f17307eab39ab6107e8899845ad3d59bd9653f200f220920489ca2b5937696c31910160405180910390a3505050565b612903848484612651565b61290f84848484612de9565b611b105760405162461bcd60e51b815260206004820152603260248201527f4552433732313a207472616e7366657220746f206e6f6e20455243373231526560448201527131b2b4bb32b91034b6b83632b6b2b73a32b960711b606482015260840161061d565b6060816129b657505060408051808201909152600181527f3000000000000000000000000000000000000000000000000000000000000000602082015290565b8160005b81156129e057806129ca81613ab2565b91506129d99050600a8361398b565b91506129ba565b60008167ffffffffffffffff811115612a0957634e487b7160e01b600052604160045260246000fd5b6040519080825280601f01601f191660200182016040528015612a33576020820181803683370190505b5090505b841561264957612a48600183613a16565b9150612a55600a86613acd565b612a60906030613973565b60f81b818381518110612a8357634e487b7160e01b600052603260045260246000fd5b60200101907effffffffffffffffffffffffffffffffffffffffffffffffffffffffffffff1916908160001a905350612abd600a8661398b565b9450612a37565b6060815160001415612ae457505060408051602081019091526000815290565b6000604051806060016040528060408152602001613b6f6040913990506000600384516002612b139190613973565b612b1d919061398b565b612b2890600461399f565b90506000612b37826020613973565b67ffffffffffffffff811115612b5d57634e487b7160e01b600052604160045260246000fd5b6040519080825280601f01601f191660200182016040528015612b87576020820181803683370190505b509050818152600183018586518101602084015b81831015612bf55760039283018051603f601282901c811687015160f890811b8552600c83901c8216880151811b6001860152600683901c8216880151811b60028601529116860151901b93820193909352600401612b9b565b600389510660018114612c0f5760028114612c3b57612c63565b7f3d3d000000000000000000000000000000000000000000000000000000000000600119830152612c63565b7f3d000000000000000000000000000000000000000000000000000000000000006000198301525b509398975050505050505050565b6109bf828260405180602001604052806000815250612f41565b60006001815b8351811015612d29576000848281518110612cbc57634e487b7160e01b600052603260045260246000fd5b01602001517fff000000000000000000000000000000000000000000000000000000000000001690507f20000000000000000000000000000000000000000000000000000000000000008114612d16576000925050612d29565b5080612d2181613ab2565b915050612c91565b501592915050565b6001600160a01b038316612d8c57612d8781609980546000838152609a60205260408120829055600182018355919091527f72a152ddfb8e864297c917af52ea6c1c68aead0fee1a62673fcc7e0c94979d000155565b612daf565b816001600160a01b0316836001600160a01b031614612daf57612daf8382612fbf565b6001600160a01b038216612dc657610c5b8161305c565b826001600160a01b0316826001600160a01b031614610c5b57610c5b8282613135565b60006001600160a01b0384163b15612f3657604051630a85bd0160e11b81526001600160a01b0385169063150b7a0290612e2d9033908990889088906004016137e7565b602060405180830381600087803b158015612e4757600080fd5b505af1925050508015612e77575060408051601f3d908101601f19168201909252612e7491810190613597565b60015b612f1c573d808015612ea5576040519150601f19603f3d011682016040523d82523d6000602084013e612eaa565b606091505b508051612f145760405162461bcd60e51b815260206004820152603260248201527f4552433732313a207472616e7366657220746f206e6f6e20455243373231526560448201527131b2b4bb32b91034b6b83632b6b2b73a32b960711b606482015260840161061d565b805181602001fd5b6001600160e01b031916630a85bd0160e11b149050612649565b506001949350505050565b612f4b8383613179565b612f586000848484612de9565b610c5b5760405162461bcd60e51b815260206004820152603260248201527f4552433732313a207472616e7366657220746f206e6f6e20455243373231526560448201527131b2b4bb32b91034b6b83632b6b2b73a32b960711b606482015260840161061d565b60006001612fcc84611912565b612fd69190613a16565b600083815260986020526040902054909150808214613029576001600160a01b03841660009081526097602090815260408083208584528252808320548484528184208190558352609890915290208190555b5060009182526098602090815260408084208490556001600160a01b039094168352609781528383209183525290812055565b60995460009061306e90600190613a16565b6000838152609a6020526040812054609980549394509092849081106130a457634e487b7160e01b600052603260045260246000fd5b9060005260206000200154905080609983815481106130d357634e487b7160e01b600052603260045260246000fd5b6000918252602080832090910192909255828152609a9091526040808220849055858252812055609980548061311957634e487b7160e01b600052603160045260246000fd5b6001900381819060005260206000200160009055905550505050565b600061314083611912565b6001600160a01b039093166000908152609760209081526040808320868452825280832085905593825260989052919091209190915550565b6001600160a01b0382166131cf5760405162461bcd60e51b815260206004820181905260248201527f4552433732313a206d696e7420746f20746865207a65726f2061646472657373604482015260640161061d565b6000818152606760205260409020546001600160a01b0316156132345760405162461bcd60e51b815260206004820152601c60248201527f4552433732313a20746f6b656e20616c7265616479206d696e74656400000000604482015260640161061d565b61324060008383612d31565b6001600160a01b0382166000908152606860205260408120805460019290613269908490613973565b909155505060008181526067602052604080822080546001600160a01b0319166001600160a01b03861690811790915590518392907fddf252ad1be2c89b69c2b068fc378daa952ba7f163c4a11628f55a4df523b3ef908290a45050565b8280546132d390613a77565b90600052602060002090601f0160209004810192826132f5576000855561333b565b82601f1061330e57805160ff191683800117855561333b565b8280016001018555821561333b579182015b8281111561333b578251825591602001919060010190613320565b5061334792915061334b565b5090565b5b80821115613347576000815560010161334c565b600067ffffffffffffffff8084111561337b5761337b613b0d565b604051601f8501601f19908116603f011681019082821181831017156133a3576133a3613b0d565b816040528093508581528686860111156133bc57600080fd5b858560208301376000602087830101525050509392505050565b80356001600160a01b03811681146133ed57600080fd5b919050565b600082601f830112613402578081fd5b61341183833560208501613360565b9392505050565b600060208284031215613429578081fd5b613411826133d6565b60008060408385031215613444578081fd5b61344d836133d6565b915061345b602084016133d6565b90509250929050565b600080600060608486031215613478578081fd5b613481846133d6565b925061348f602085016133d6565b9150604084013590509250925092565b600080600080608085870312156134b4578081fd5b6134bd856133d6565b93506134cb602086016133d6565b925060408501359150606085013567ffffffffffffffff8111156134ed578182fd5b8501601f810187136134fd578182fd5b61350c87823560208401613360565b91505092959194509250565b6000806040838503121561352a578182fd5b613533836133d6565b915060208301358015158114613547578182fd5b809150509250929050565b60008060408385031215613564578182fd5b61356d836133d6565b946020939093013593505050565b60006020828403121561358c578081fd5b813561341181613b23565b6000602082840312156135a8578081fd5b815161341181613b23565b600080604083850312156135c5578182fd5b50508035926020909101359150565b600080604083850312156135e6578182fd5b823567ffffffffffffffff808211156135fd578384fd5b613609868387016133f2565b9350602085013591508082111561361e578283fd5b5061362b858286016133f2565b9150509250929050565b600060208284031215613646578081fd5b5035919050565b60008151808452613665816020860160208601613a2d565b601f01601f19169290920160200192915050565b7f7b226e616d65223a2254776565742023000000000000000000000000000000008152600085516136b1816010850160208a01613a2d565b7f222c20226465736372697074696f6e223a22000000000000000000000000000060109184019182015285516136ee816022840160208a01613a2d565b7f222c2022696d616765223a20220000000000000000000000000000000000000060229290910191820152845161372c81602f840160208901613a2d565b7f222c2022696d6167655f64617461223a20220000000000000000000000000000602f9290910191820152835161376a816041840160208801613a2d565b7f227d000000000000000000000000000000000000000000000000000000000000604192909101918201526043019695505050505050565b7f646174613a6170706c69636174696f6e2f6a736f6e3b6261736536342c0000008152600082516137da81601d850160208701613a2d565b91909101601d0192915050565b60006001600160a01b03808716835280861660208401525083604083015260806060830152613819608083018461364d565b9695505050505050565b60006020808301818452808551808352604092508286019150828160051b870101848801865b838110156138c457603f19898403018552815160a08151855288820151818a8701526138778287018261364d565b9150506001600160a01b038883015116888601526060808301518187015250608080830151925085820381870152506138b0818361364d565b968901969450505090860190600101613849565b509098975050505050505050565b6020808252825182820181905260009190848201906040850190845b8181101561158e578351516001600160a01b0316835292840192918401916001016138ee565b602081526000613411602083018461364d565b85815260a06020820152600061394060a083018761364d565b6001600160a01b03861660408401528460608401528281036080840152613967818561364d565b98975050505050505050565b6000821982111561398657613986613ae1565b500190565b60008261399a5761399a613af7565b500490565b60008160001904831182151516156139b9576139b9613ae1565b500290565b600080831283600160ff1b018312811516156139dc576139dc613ae1565b837f7fffffffffffffffffffffffffffffffffffffffffffffffffffffffffffffff018313811615613a1057613a10613ae1565b50500390565b600082821015613a2857613a28613ae1565b500390565b60005b83811015613a48578181015183820152602001613a30565b83811115611b105750506000910152565b6000600160ff1b821415613a6f57613a6f613ae1565b506000190190565b600181811c90821680613a8b57607f821691505b60208210811415613aac57634e487b7160e01b600052602260045260246000fd5b50919050565b6000600019821415613ac657613ac6613ae1565b5060010190565b600082613adc57613adc613af7565b500690565b634e487b7160e01b600052601160045260246000fd5b634e487b7160e01b600052601260045260246000fd5b634e487b7160e01b600052604160045260246000fd5b6001600160e01b031981168114611a6b57600080fdfe697066733a2f2f516d57566647316d48635973345139484753484a59656468454566554d684551396d51484b4646545761793831754142434445464748494a4b4c4d4e4f505152535455565758595a6162636465666768696a6b6c6d6e6f707172737475767778797a303132333435363738392b2fa2646970667358221220d70fca46b64e419c702b79539459def97170c28e091013f71ece7edc9948869064736f6c63430008040033496e697469616c697a61626c653a20636f6e747261637420697320616c726561",
  "linkReferences": {},
  "deployedLinkReferences": {}
}