{
  "_format": "hh-sol-artifact-1",
  "contractName": "TwitterV1",
  "sourceName": "contracts/TwitterV1.sol",
  "abi": [
    {
      "inputs": [],
      "stateMutability": "nonpayable",
      "type": "constructor"
    },
    {
      "inputs": [
        {
          "internalType": "address",
          "name": "_address",
          "type": "address"
        }
      ],
      "name": "follow",
      "outputs": [],
      "stateMutability": "nonpayable",
      "type": "function"
    },
    {
      "inputs": [
        {
          "internalType": "address",
          "name": "",
          "type": "address"
        },
        {
          "internalType": "uint256",
          "name": "",
          "type": "uint256"
        }
      ],
      "name": "followers",
      "outputs": [
        {
          "internalType": "address",
          "name": "id",
          "type": "address"
        }
      ],
      "stateMutability": "view",
      "type": "function"
    },
    {
      "inputs": [
        {
          "internalType": "address",
          "name": "",
          "type": "address"
        },
        {
          "internalType": "uint256",
          "name": "",
          "type": "uint256"
        }
      ],
      "name": "followings",
      "outputs": [
        {
          "internalType": "address",
          "name": "id",
          "type": "address"
        }
      ],
      "stateMutability": "view",
      "type": "function"
    },
    {
      "inputs": [
        {
          "internalType": "address",
          "name": "_address",
          "type": "address"
        }
      ],
      "name": "getFollowers",
      "outputs": [
        {
          "components": [
            {
              "internalType": "address",
              "name": "id",
              "type": "address"
            }
          ],
          "internalType": "struct TwitterV1.User[]",
          "name": "",
          "type": "tuple[]"
        }
      ],
      "stateMutability": "view",
      "type": "function"
    },
    {
      "inputs": [
        {
          "internalType": "address",
          "name": "_address",
          "type": "address"
        }
      ],
      "name": "getFollowings",
      "outputs": [
        {
          "components": [
            {
              "internalType": "address",
              "name": "id",
              "type": "address"
            }
          ],
          "internalType": "struct TwitterV1.User[]",
          "name": "",
          "type": "tuple[]"
        }
      ],
      "stateMutability": "view",
      "type": "function"
    },
    {
      "inputs": [
        {
          "internalType": "int256",
          "name": "offset",
          "type": "int256"
        },
        {
          "internalType": "int256",
          "name": "limit",
          "type": "int256"
        }
      ],
      "name": "getTimeline",
      "outputs": [
        {
          "components": [
            {
              "internalType": "string",
              "name": "content",
              "type": "string"
            },
            {
              "internalType": "address",
              "name": "author",
              "type": "address"
            },
            {
              "internalType": "uint256",
              "name": "timestamp",
              "type": "uint256"
            }
          ],
          "internalType": "struct TwitterV1.Tweet[]",
          "name": "",
          "type": "tuple[]"
        }
      ],
      "stateMutability": "view",
      "type": "function"
    },
    {
      "inputs": [
        {
          "internalType": "address",
          "name": "_address",
          "type": "address"
        }
      ],
      "name": "getUserTweets",
      "outputs": [
        {
          "components": [
            {
              "internalType": "string",
              "name": "content",
              "type": "string"
            },
            {
              "internalType": "address",
              "name": "author",
              "type": "address"
            },
            {
              "internalType": "uint256",
              "name": "timestamp",
              "type": "uint256"
            }
          ],
          "internalType": "struct TwitterV1.Tweet[]",
          "name": "",
          "type": "tuple[]"
        }
      ],
      "stateMutability": "view",
      "type": "function"
    },
    {
      "inputs": [],
      "name": "initialize",
      "outputs": [],
      "stateMutability": "nonpayable",
      "type": "function"
    },
    {
      "inputs": [
        {
          "internalType": "address",
          "name": "_address",
          "type": "address"
        }
      ],
      "name": "isFollowing",
      "outputs": [
        {
          "internalType": "bool",
          "name": "",
          "type": "bool"
        }
      ],
      "stateMutability": "view",
      "type": "function"
    },
    {
      "inputs": [
        {
          "internalType": "string",
          "name": "_tweet",
          "type": "string"
        }
      ],
      "name": "setTweet",
      "outputs": [],
      "stateMutability": "nonpayable",
      "type": "function"
    },
    {
      "inputs": [
        {
          "internalType": "uint256",
          "name": "",
          "type": "uint256"
        }
      ],
      "name": "tweets",
      "outputs": [
        {
          "internalType": "string",
          "name": "content",
          "type": "string"
        },
        {
          "internalType": "address",
          "name": "author",
          "type": "address"
        },
        {
          "internalType": "uint256",
          "name": "timestamp",
          "type": "uint256"
        }
      ],
      "stateMutability": "view",
      "type": "function"
    },
    {
      "inputs": [
        {
          "internalType": "address",
          "name": "_address",
          "type": "address"
        }
      ],
      "name": "unfollow",
      "outputs": [],
      "stateMutability": "nonpayable",
      "type": "function"
    }
  ],
  "bytecode": "0x60806040523480156200001157600080fd5b50600060019054906101000a900460ff168062000039575060008054906101000a900460ff16155b6200007b576040517f08c379a000000000000000000000000000000000000000000000000000000000815260040162000072906200011c565b60405180910390fd5b60008060019054906101000a900460ff161590508015620000cc576001600060016101000a81548160ff02191690831515021790555060016000806101000a81548160ff0219169083151502179055505b8015620000ee5760008060016101000a81548160ff0219169083151502179055505b506200019e565b600062000104602e836200013e565b915062000111826200014f565b604082019050919050565b600060208201905081810360008301526200013781620000f5565b9050919050565b600082825260208201905092915050565b7f496e697469616c697a61626c653a20636f6e747261637420697320616c72656160008201527f647920696e697469616c697a6564000000000000000000000000000000000000602082015250565b612bb380620001ae6000396000f3fe608060405234801561001057600080fd5b50600436106100b45760003560e01c80638129fc1c116100715780638129fc1c1461019d578063c2fe2022146101a7578063cca22f79146101d7578063dedf1b4a14610207578063e8d857b014610237578063ebd009d314610269576100b4565b8063015a4ead146100b957806309d4d796146100d55780632f5899d71461010557806340c184af146101355780634dbf27cc14610165578063590b515114610181575b600080fd5b6100d360048036038101906100ce919061203f565b610299565b005b6100ef60048036038101906100ea919061203f565b610ab1565b6040516100fc91906124a3565b60405180910390f35b61011f600480360381019061011a919061203f565b610c06565b60405161012c919061245f565b60405180910390f35b61014f600480360381019061014a91906120a4565b610fce565b60405161015c919061245f565b60405180910390f35b61017f600480360381019061017a919061203f565b611398565b005b61019b600480360381019061019691906120e0565b61183c565b005b6101a5611a75565b005b6101c160048036038101906101bc919061203f565b611b4e565b6040516101ce9190612481565b60405180910390f35b6101f160048036038101906101ec919061203f565b611c3e565b6040516101fe9190612481565b60405180910390f35b610221600480360381019061021c9190612068565b611d2e565b60405161022e9190612444565b60405180910390f35b610251600480360381019061024c9190612121565b611d85565b604051610260939291906124be565b60405180910390f35b610283600480360381019061027e9190612068565b611e67565b6040516102909190612444565b60405180910390f35b3373ffffffffffffffffffffffffffffffffffffffff168173ffffffffffffffffffffffffffffffffffffffff161415610308576040517f08c379a00000000000000000000000000000000000000000000000000000000081526004016102ff9061251c565b60405180910390fd5b60005b600260003373ffffffffffffffffffffffffffffffffffffffff1673ffffffffffffffffffffffffffffffffffffffff168152602001908152602001600020805490508110156106da578173ffffffffffffffffffffffffffffffffffffffff16600260003373ffffffffffffffffffffffffffffffffffffffff1673ffffffffffffffffffffffffffffffffffffffff16815260200190815260200160002082815481106103e3577f4e487b7100000000000000000000000000000000000000000000000000000000600052603260045260246000fd5b9060005260206000200160000160009054906101000a900473ffffffffffffffffffffffffffffffffffffffff1673ffffffffffffffffffffffffffffffffffffffff1614156106c75760008190505b6001600260003373ffffffffffffffffffffffffffffffffffffffff1673ffffffffffffffffffffffffffffffffffffffff16815260200190815260200160002080549050610482919061279b565b81101561061457600260003373ffffffffffffffffffffffffffffffffffffffff1673ffffffffffffffffffffffffffffffffffffffff1681526020019081526020016000206001826104d591906126b1565b8154811061050c577f4e487b7100000000000000000000000000000000000000000000000000000000600052603260045260246000fd5b90600052602060002001600260003373ffffffffffffffffffffffffffffffffffffffff1673ffffffffffffffffffffffffffffffffffffffff168152602001908152602001600020828154811061058d577f4e487b7100000000000000000000000000000000000000000000000000000000600052603260045260246000fd5b906000526020600020016000820160009054906101000a900473ffffffffffffffffffffffffffffffffffffffff168160000160006101000a81548173ffffffffffffffffffffffffffffffffffffffff021916908373ffffffffffffffffffffffffffffffffffffffff160217905550905050808061060c9061290f565b915050610433565b50600260003373ffffffffffffffffffffffffffffffffffffffff1673ffffffffffffffffffffffffffffffffffffffff16815260200190815260200160002080548061068a577f4e487b7100000000000000000000000000000000000000000000000000000000600052603160045260246000fd5b60019003818190600052602060002001600080820160006101000a81549073ffffffffffffffffffffffffffffffffffffffff0219169055505090555b80806106d29061290f565b91505061030b565b5060005b600360008373ffffffffffffffffffffffffffffffffffffffff1673ffffffffffffffffffffffffffffffffffffffff16815260200190815260200160002080549050811015610aad573373ffffffffffffffffffffffffffffffffffffffff16600360008473ffffffffffffffffffffffffffffffffffffffff1673ffffffffffffffffffffffffffffffffffffffff16815260200190815260200160002082815481106107b6577f4e487b7100000000000000000000000000000000000000000000000000000000600052603260045260246000fd5b9060005260206000200160000160009054906101000a900473ffffffffffffffffffffffffffffffffffffffff1673ffffffffffffffffffffffffffffffffffffffff161415610a9a5760008190505b6001600360008573ffffffffffffffffffffffffffffffffffffffff1673ffffffffffffffffffffffffffffffffffffffff16815260200190815260200160002080549050610855919061279b565b8110156109e757600360008473ffffffffffffffffffffffffffffffffffffffff1673ffffffffffffffffffffffffffffffffffffffff1681526020019081526020016000206001826108a891906126b1565b815481106108df577f4e487b7100000000000000000000000000000000000000000000000000000000600052603260045260246000fd5b90600052602060002001600360008573ffffffffffffffffffffffffffffffffffffffff1673ffffffffffffffffffffffffffffffffffffffff1681526020019081526020016000208281548110610960577f4e487b7100000000000000000000000000000000000000000000000000000000600052603260045260246000fd5b906000526020600020016000820160009054906101000a900473ffffffffffffffffffffffffffffffffffffffff168160000160006101000a81548173ffffffffffffffffffffffffffffffffffffffff021916908373ffffffffffffffffffffffffffffffffffffffff16021790555090505080806109df9061290f565b915050610806565b50600360008373ffffffffffffffffffffffffffffffffffffffff1673ffffffffffffffffffffffffffffffffffffffff168152602001908152602001600020805480610a5d577f4e487b7100000000000000000000000000000000000000000000000000000000600052603160045260246000fd5b60019003818190600052602060002001600080820160006101000a81549073ffffffffffffffffffffffffffffffffffffffff0219169055505090555b8080610aa59061290f565b9150506106de565b5050565b6000806000905060005b600260003373ffffffffffffffffffffffffffffffffffffffff1673ffffffffffffffffffffffffffffffffffffffff16815260200190815260200160002080549050811015610bfb578373ffffffffffffffffffffffffffffffffffffffff16600260003373ffffffffffffffffffffffffffffffffffffffff1673ffffffffffffffffffffffffffffffffffffffff1681526020019081526020016000208281548110610b93577f4e487b7100000000000000000000000000000000000000000000000000000000600052603260045260246000fd5b9060005260206000200160000160009054906101000a900473ffffffffffffffffffffffffffffffffffffffff1673ffffffffffffffffffffffffffffffffffffffff161415610be857600192505050610c01565b8080610bf39061290f565b915050610abb565b50809150505b919050565b60606000805b600180549050811015610cda578373ffffffffffffffffffffffffffffffffffffffff1660018281548110610c6a577f4e487b7100000000000000000000000000000000000000000000000000000000600052603260045260246000fd5b906000526020600020906003020160010160009054906101000a900473ffffffffffffffffffffffffffffffffffffffff1673ffffffffffffffffffffffffffffffffffffffff161415610cc7578180610cc39061290f565b9250505b8080610cd29061290f565b915050610c0c565b5060008167ffffffffffffffff811115610d1d577f4e487b7100000000000000000000000000000000000000000000000000000000600052604160045260246000fd5b604051908082528060200260200182016040528015610d5657816020015b610d43611ebe565b815260200190600190039081610d3b5790505b50905060008060018080549050610d6d919061279b565b90505b80600013610fc2578573ffffffffffffffffffffffffffffffffffffffff1660018281548110610dc9577f4e487b7100000000000000000000000000000000000000000000000000000000600052603260045260246000fd5b906000526020600020906003020160010160009054906101000a900473ffffffffffffffffffffffffffffffffffffffff1673ffffffffffffffffffffffffffffffffffffffff161415610faf5760018181548110610e51577f4e487b7100000000000000000000000000000000000000000000000000000000600052603260045260246000fd5b9060005260206000209060030201604051806060016040529081600082018054610e7a906128ac565b80601f0160208091040260200160405190810160405280929190818152602001828054610ea6906128ac565b8015610ef35780601f10610ec857610100808354040283529160200191610ef3565b820191906000526020600020905b815481529060010190602001808311610ed657829003601f168201915b505050505081526020016001820160009054906101000a900473ffffffffffffffffffffffffffffffffffffffff1673ffffffffffffffffffffffffffffffffffffffff1673ffffffffffffffffffffffffffffffffffffffff168152602001600282015481525050838381518110610f95577f4e487b7100000000000000000000000000000000000000000000000000000000600052603260045260246000fd5b60200260200101819052508180610fab9061290f565b9250505b8080610fba90612863565b915050610d70565b50819350505050919050565b60606000831215611014576040517f08c379a000000000000000000000000000000000000000000000000000000000815260040161100b9061255c565b60405180910390fd5b6001805490508311156110a357600067ffffffffffffffff811115611062577f4e487b7100000000000000000000000000000000000000000000000000000000600052604160045260246000fd5b60405190808252806020026020018201604052801561109b57816020015b611088611ebe565b8152602001906001900390816110805790505b509050611392565b6000600180549050905060008385836110bc9190612707565b136110d25784826110cd9190612707565b6110d4565b835b905060008167ffffffffffffffff811115611118577f4e487b7100000000000000000000000000000000000000000000000000000000600052604160045260246000fd5b60405190808252806020026020018201604052801561115157816020015b61113e611ebe565b8152602001906001900390816111365790505b509050600080600188856111659190612707565b61116f9190612707565b90505b808789866111809190612707565b61118a9190612707565b13611389576001888561119d9190612707565b6111a79190612707565b81131580156111cc5750808789866111bf9190612707565b6111c99190612707565b13155b80156111d9575060008112155b156113765760018181548110611218577f4e487b7100000000000000000000000000000000000000000000000000000000600052603260045260246000fd5b9060005260206000209060030201604051806060016040529081600082018054611241906128ac565b80601f016020809104026020016040519081016040528092919081815260200182805461126d906128ac565b80156112ba5780601f1061128f576101008083540402835291602001916112ba565b820191906000526020600020905b81548152906001019060200180831161129d57829003601f168201915b505050505081526020016001820160009054906101000a900473ffffffffffffffffffffffffffffffffffffffff1673ffffffffffffffffffffffffffffffffffffffff1673ffffffffffffffffffffffffffffffffffffffff16815260200160028201548152505083838151811061135c577f4e487b7100000000000000000000000000000000000000000000000000000000600052603260045260246000fd5b602002602001018190525081806113729061290f565b9250505b808061138190612863565b915050611172565b50819450505050505b92915050565b3373ffffffffffffffffffffffffffffffffffffffff168173ffffffffffffffffffffffffffffffffffffffff161415611407576040517f08c379a00000000000000000000000000000000000000000000000000000000081526004016113fe9061257c565b60405180910390fd5b6000805b600260003373ffffffffffffffffffffffffffffffffffffffff1673ffffffffffffffffffffffffffffffffffffffff16815260200190815260200160002080549050811015611545578273ffffffffffffffffffffffffffffffffffffffff16600260003373ffffffffffffffffffffffffffffffffffffffff1673ffffffffffffffffffffffffffffffffffffffff16815260200190815260200160002082815481106114e3577f4e487b7100000000000000000000000000000000000000000000000000000000600052603260045260246000fd5b9060005260206000200160000160009054906101000a900473ffffffffffffffffffffffffffffffffffffffff1673ffffffffffffffffffffffffffffffffffffffff16141561153257600191505b808061153d9061290f565b91505061140b565b508061161e57600260003373ffffffffffffffffffffffffffffffffffffffff1673ffffffffffffffffffffffffffffffffffffffff16815260200190815260200160002060405180602001604052808473ffffffffffffffffffffffffffffffffffffffff168152509080600181540180825580915050600190039060005260206000200160009091909190915060008201518160000160006101000a81548173ffffffffffffffffffffffffffffffffffffffff021916908373ffffffffffffffffffffffffffffffffffffffff16021790555050505b6000905060005b600360008473ffffffffffffffffffffffffffffffffffffffff1673ffffffffffffffffffffffffffffffffffffffff1681526020019081526020016000208054905081101561175f573373ffffffffffffffffffffffffffffffffffffffff16600360008573ffffffffffffffffffffffffffffffffffffffff1673ffffffffffffffffffffffffffffffffffffffff16815260200190815260200160002082815481106116fd577f4e487b7100000000000000000000000000000000000000000000000000000000600052603260045260246000fd5b9060005260206000200160000160009054906101000a900473ffffffffffffffffffffffffffffffffffffffff1673ffffffffffffffffffffffffffffffffffffffff16141561174c57600191505b80806117579061290f565b915050611625565b508061183857600360008373ffffffffffffffffffffffffffffffffffffffff1673ffffffffffffffffffffffffffffffffffffffff16815260200190815260200160002060405180602001604052803373ffffffffffffffffffffffffffffffffffffffff168152509080600181540180825580915050600190039060005260206000200160009091909190915060008201518160000160006101000a81548173ffffffffffffffffffffffffffffffffffffffff021916908373ffffffffffffffffffffffffffffffffffffffff16021790555050505b5050565b6000815111611880576040517f08c379a0000000000000000000000000000000000000000000000000000000008152600401611877906124fc565b60405180910390fd5b60006001905060005b82518110156119635760008382815181106118cd577f4e487b7100000000000000000000000000000000000000000000000000000000600052603260045260246000fd5b602001015160f81c60f81b90507f20000000000000000000000000000000000000000000000000000000000000007effffffffffffffffffffffffffffffffffffffffffffffffffffffffffffff1916817effffffffffffffffffffffffffffffffffffffffffffffffffffffffffffff19161461194f576000925050611963565b50808061195b9061290f565b915050611889565b5080156119a5576040517f08c379a000000000000000000000000000000000000000000000000000000000815260040161199c9061259c565b60405180910390fd5b600160405180606001604052808481526020013373ffffffffffffffffffffffffffffffffffffffff1681526020014281525090806001815401808255809150506001900390600052602060002090600302016000909190919091506000820151816000019080519060200190611a1d929190611ef5565b5060208201518160010160006101000a81548173ffffffffffffffffffffffffffffffffffffffff021916908373ffffffffffffffffffffffffffffffffffffffff1602179055506040820151816002015550505050565b600060019054906101000a900460ff1680611a9b575060008054906101000a900460ff16155b611ada576040517f08c379a0000000000000000000000000000000000000000000000000000000008152600401611ad19061253c565b60405180910390fd5b60008060019054906101000a900460ff161590508015611b2a576001600060016101000a81548160ff02191690831515021790555060016000806101000a81548160ff0219169083151502179055505b8015611b4b5760008060016101000a81548160ff0219169083151502179055505b50565b6060600360008373ffffffffffffffffffffffffffffffffffffffff1673ffffffffffffffffffffffffffffffffffffffff168152602001908152602001600020805480602002602001604051908101604052809291908181526020016000905b82821015611c33578382906000526020600020016040518060200160405290816000820160009054906101000a900473ffffffffffffffffffffffffffffffffffffffff1673ffffffffffffffffffffffffffffffffffffffff1673ffffffffffffffffffffffffffffffffffffffff168152505081526020019060010190611baf565b505050509050919050565b6060600260008373ffffffffffffffffffffffffffffffffffffffff1673ffffffffffffffffffffffffffffffffffffffff168152602001908152602001600020805480602002602001604051908101604052809291908181526020016000905b82821015611d23578382906000526020600020016040518060200160405290816000820160009054906101000a900473ffffffffffffffffffffffffffffffffffffffff1673ffffffffffffffffffffffffffffffffffffffff1673ffffffffffffffffffffffffffffffffffffffff168152505081526020019060010190611c9f565b505050509050919050565b60026020528160005260406000208181548110611d4a57600080fd5b90600052602060002001600091509150508060000160009054906101000a900473ffffffffffffffffffffffffffffffffffffffff16905081565b60018181548110611d9557600080fd5b9060005260206000209060030201600091509050806000018054611db8906128ac565b80601f0160208091040260200160405190810160405280929190818152602001828054611de4906128ac565b8015611e315780601f10611e0657610100808354040283529160200191611e31565b820191906000526020600020905b815481529060010190602001808311611e1457829003601f168201915b5050505050908060010160009054906101000a900473ffffffffffffffffffffffffffffffffffffffff16908060020154905083565b60036020528160005260406000208181548110611e8357600080fd5b90600052602060002001600091509150508060000160009054906101000a900473ffffffffffffffffffffffffffffffffffffffff16905081565b604051806060016040528060608152602001600073ffffffffffffffffffffffffffffffffffffffff168152602001600081525090565b828054611f01906128ac565b90600052602060002090601f016020900481019282611f235760008555611f6a565b82601f10611f3c57805160ff1916838001178555611f6a565b82800160010185558215611f6a579182015b82811115611f69578251825591602001919060010190611f4e565b5b509050611f779190611f7b565b5090565b5b80821115611f94576000816000905550600101611f7c565b5090565b6000611fab611fa6846125e1565b6125bc565b905082815260208101848484011115611fc357600080fd5b611fce848285612821565b509392505050565b600081359050611fe581612b38565b92915050565b600081359050611ffa81612b4f565b92915050565b600082601f83011261201157600080fd5b8135612021848260208601611f98565b91505092915050565b60008135905061203981612b66565b92915050565b60006020828403121561205157600080fd5b600061205f84828501611fd6565b91505092915050565b6000806040838503121561207b57600080fd5b600061208985828601611fd6565b925050602061209a8582860161202a565b9150509250929050565b600080604083850312156120b757600080fd5b60006120c585828601611feb565b92505060206120d685828601611feb565b9150509250929050565b6000602082840312156120f257600080fd5b600082013567ffffffffffffffff81111561210c57600080fd5b61211884828501612000565b91505092915050565b60006020828403121561213357600080fd5b60006121418482850161202a565b91505092915050565b600061215683836123ba565b905092915050565b600061216a838361240a565b60208301905092915050565b61217f816127cf565b82525050565b61218e816127cf565b82525050565b600061219f82612632565b6121a9818561266d565b9350836020820285016121bb85612612565b8060005b858110156121f757848403895281516121d8858261214a565b94506121e383612653565b925060208a019950506001810190506121bf565b50829750879550505050505092915050565b60006122148261263d565b61221e818561267e565b935061222983612622565b8060005b8381101561225a578151612241888261215e565b975061224c83612660565b92505060018101905061222d565b5085935050505092915050565b612270816127e1565b82525050565b600061228182612648565b61228b818561268f565b935061229b818560208601612830565b6122a4816129e5565b840191505092915050565b60006122ba82612648565b6122c481856126a0565b93506122d4818560208601612830565b6122dd816129e5565b840191505092915050565b60006122f56012836126a0565b9150612300826129f6565b602082019050919050565b6000612318601d836126a0565b915061232382612a1f565b602082019050919050565b600061233b602e836126a0565b915061234682612a48565b604082019050919050565b600061235e602a836126a0565b915061236982612a97565b604082019050919050565b6000612381601b836126a0565b915061238c82612ae6565b602082019050919050565b60006123a46020836126a0565b91506123af82612b0f565b602082019050919050565b600060608301600083015184820360008601526123d78282612276565b91505060208301516123ec6020860182612176565b5060408301516123ff6040860182612426565b508091505092915050565b6020820160008201516124206000850182612176565b50505050565b61242f81612817565b82525050565b61243e81612817565b82525050565b60006020820190506124596000830184612185565b92915050565b600060208201905081810360008301526124798184612194565b905092915050565b6000602082019050818103600083015261249b8184612209565b905092915050565b60006020820190506124b86000830184612267565b92915050565b600060608201905081810360008301526124d881866122af565b90506124e76020830185612185565b6124f46040830184612435565b949350505050565b60006020820190508181036000830152612515816122e8565b9050919050565b600060208201905081810360008301526125358161230b565b9050919050565b600060208201905081810360008301526125558161232e565b9050919050565b6000602082019050818103600083015261257581612351565b9050919050565b6000602082019050818103600083015261259581612374565b9050919050565b600060208201905081810360008301526125b581612397565b9050919050565b60006125c66125d7565b90506125d282826128de565b919050565b6000604051905090565b600067ffffffffffffffff8211156125fc576125fb6129b6565b5b612605826129e5565b9050602081019050919050565b6000819050602082019050919050565b6000819050602082019050919050565b600081519050919050565b600081519050919050565b600081519050919050565b6000602082019050919050565b6000602082019050919050565b600082825260208201905092915050565b600082825260208201905092915050565b600082825260208201905092915050565b600082825260208201905092915050565b60006126bc82612817565b91506126c783612817565b9250827fffffffffffffffffffffffffffffffffffffffffffffffffffffffffffffffff038211156126fc576126fb612958565b5b828201905092915050565b6000612712826127ed565b915061271d836127ed565b9250827f80000000000000000000000000000000000000000000000000000000000000000182126000841215161561275857612757612958565b5b827f7fffffffffffffffffffffffffffffffffffffffffffffffffffffffffffffff0182136000841216156127905761278f612958565b5b828203905092915050565b60006127a682612817565b91506127b183612817565b9250828210156127c4576127c3612958565b5b828203905092915050565b60006127da826127f7565b9050919050565b60008115159050919050565b6000819050919050565b600073ffffffffffffffffffffffffffffffffffffffff82169050919050565b6000819050919050565b82818337600083830152505050565b60005b8381101561284e578082015181840152602081019050612833565b8381111561285d576000848401525b50505050565b600061286e826127ed565b91507f80000000000000000000000000000000000000000000000000000000000000008214156128a1576128a0612958565b5b600182039050919050565b600060028204905060018216806128c457607f821691505b602082108114156128d8576128d7612987565b5b50919050565b6128e7826129e5565b810181811067ffffffffffffffff82111715612906576129056129b6565b5b80604052505050565b600061291a82612817565b91507fffffffffffffffffffffffffffffffffffffffffffffffffffffffffffffffff82141561294d5761294c612958565b5b600182019050919050565b7f4e487b7100000000000000000000000000000000000000000000000000000000600052601160045260246000fd5b7f4e487b7100000000000000000000000000000000000000000000000000000000600052602260045260246000fd5b7f4e487b7100000000000000000000000000000000000000000000000000000000600052604160045260246000fd5b6000601f19601f8301169050919050565b7f547765657420697320746f6f2073686f72740000000000000000000000000000600082015250565b7f596f752063616e6e6f7420756e666f6c6c6f7720796f757273656c662e000000600082015250565b7f496e697469616c697a61626c653a20636f6e747261637420697320616c72656160008201527f647920696e697469616c697a6564000000000000000000000000000000000000602082015250565b7f4f6666736574206d7573742062652067726561746572207468616e206f72206560008201527f7175616c20746f20302e00000000000000000000000000000000000000000000602082015250565b7f596f752063616e6e6f7420666f6c6c6f7720796f757273656c662e0000000000600082015250565b7f5370616365206f6e6c79207477656574206973206e6f7420616c6c6f7765642e600082015250565b612b41816127cf565b8114612b4c57600080fd5b50565b612b58816127ed565b8114612b6357600080fd5b50565b612b6f81612817565b8114612b7a57600080fd5b5056fea2646970667358221220f1c7728c679b1bf83f14aaba658399fc4b7db713db55fcaa8337d819a3431cb364736f6c63430008040033",
  "linkReferences": {},
  "deployedLinkReferences": {}
}