{
  "_format": "hh-sol-artifact-1",
  "contractName": "TwitterV1",
  "sourceName": "contracts/TwitterV1.sol",
  "abi": [
    {
      "inputs": [],
      "stateMutability": "nonpayable",
      "type": "constructor"
    },
    {
      "anonymous": false,
      "inputs": [
        {
          "indexed": true,
          "internalType": "address",
          "name": "owner",
          "type": "address"
        },
        {
          "indexed": true,
          "internalType": "address",
          "name": "approved",
          "type": "address"
        },
        {
          "indexed": true,
          "internalType": "uint256",
          "name": "tokenId",
          "type": "uint256"
        }
      ],
      "name": "Approval",
      "type": "event"
    },
    {
      "anonymous": false,
      "inputs": [
        {
          "indexed": true,
          "internalType": "address",
          "name": "owner",
          "type": "address"
        },
        {
          "indexed": true,
          "internalType": "address",
          "name": "operator",
          "type": "address"
        },
        {
          "indexed": false,
          "internalType": "bool",
          "name": "approved",
          "type": "bool"
        }
      ],
      "name": "ApprovalForAll",
      "type": "event"
    },
    {
      "anonymous": false,
      "inputs": [
        {
          "indexed": true,
          "internalType": "address",
          "name": "from",
          "type": "address"
        },
        {
          "indexed": true,
          "internalType": "address",
          "name": "to",
          "type": "address"
        },
        {
          "indexed": true,
          "internalType": "uint256",
          "name": "tokenId",
          "type": "uint256"
        }
      ],
      "name": "Transfer",
      "type": "event"
    },
    {
      "anonymous": false,
      "inputs": [
        {
          "indexed": true,
          "internalType": "address",
          "name": "sender",
          "type": "address"
        },
        {
          "indexed": false,
          "internalType": "string",
          "name": "tweet",
          "type": "string"
        }
      ],
      "name": "Tweeted",
      "type": "event"
    },
    {
      "inputs": [
        {
          "internalType": "address",
          "name": "to",
          "type": "address"
        },
        {
          "internalType": "uint256",
          "name": "tokenId",
          "type": "uint256"
        }
      ],
      "name": "approve",
      "outputs": [],
      "stateMutability": "nonpayable",
      "type": "function"
    },
    {
      "inputs": [
        {
          "internalType": "address",
          "name": "owner",
          "type": "address"
        }
      ],
      "name": "balanceOf",
      "outputs": [
        {
          "internalType": "uint256",
          "name": "",
          "type": "uint256"
        }
      ],
      "stateMutability": "view",
      "type": "function"
    },
    {
      "inputs": [
        {
          "internalType": "uint256",
          "name": "_tokenId",
          "type": "uint256"
        }
      ],
      "name": "buildMetaData",
      "outputs": [
        {
          "internalType": "string",
          "name": "",
          "type": "string"
        }
      ],
      "stateMutability": "view",
      "type": "function"
    },
    {
      "inputs": [
        {
          "internalType": "address",
          "name": "_address",
          "type": "address"
        }
      ],
      "name": "follow",
      "outputs": [],
      "stateMutability": "nonpayable",
      "type": "function"
    },
    {
      "inputs": [
        {
          "internalType": "address",
          "name": "",
          "type": "address"
        },
        {
          "internalType": "uint256",
          "name": "",
          "type": "uint256"
        }
      ],
      "name": "followers",
      "outputs": [
        {
          "internalType": "address",
          "name": "id",
          "type": "address"
        }
      ],
      "stateMutability": "view",
      "type": "function"
    },
    {
      "inputs": [
        {
          "internalType": "address",
          "name": "",
          "type": "address"
        },
        {
          "internalType": "uint256",
          "name": "",
          "type": "uint256"
        }
      ],
      "name": "followings",
      "outputs": [
        {
          "internalType": "address",
          "name": "id",
          "type": "address"
        }
      ],
      "stateMutability": "view",
      "type": "function"
    },
    {
      "inputs": [
        {
          "internalType": "uint256",
          "name": "tokenId",
          "type": "uint256"
        }
      ],
      "name": "getApproved",
      "outputs": [
        {
          "internalType": "address",
          "name": "",
          "type": "address"
        }
      ],
      "stateMutability": "view",
      "type": "function"
    },
    {
      "inputs": [
        {
          "internalType": "address",
          "name": "_address",
          "type": "address"
        }
      ],
      "name": "getFollowers",
      "outputs": [
        {
          "components": [
            {
              "internalType": "address",
              "name": "id",
              "type": "address"
            }
          ],
          "internalType": "struct TwitterV1.User[]",
          "name": "",
          "type": "tuple[]"
        }
      ],
      "stateMutability": "view",
      "type": "function"
    },
    {
      "inputs": [
        {
          "internalType": "address",
          "name": "_address",
          "type": "address"
        }
      ],
      "name": "getFollowings",
      "outputs": [
        {
          "components": [
            {
              "internalType": "address",
              "name": "id",
              "type": "address"
            }
          ],
          "internalType": "struct TwitterV1.User[]",
          "name": "",
          "type": "tuple[]"
        }
      ],
      "stateMutability": "view",
      "type": "function"
    },
    {
      "inputs": [
        {
          "internalType": "int256",
          "name": "offset",
          "type": "int256"
        },
        {
          "internalType": "int256",
          "name": "limit",
          "type": "int256"
        }
      ],
      "name": "getTimeline",
      "outputs": [
        {
          "components": [
            {
              "internalType": "uint256",
              "name": "tokenId",
              "type": "uint256"
            },
            {
              "internalType": "string",
              "name": "content",
              "type": "string"
            },
            {
              "internalType": "address",
              "name": "author",
              "type": "address"
            },
            {
              "internalType": "uint256",
              "name": "timestamp",
              "type": "uint256"
            },
            {
              "internalType": "string",
              "name": "attachment",
              "type": "string"
            }
          ],
          "internalType": "struct TwitterV1.Tweet[]",
          "name": "",
          "type": "tuple[]"
        }
      ],
      "stateMutability": "view",
      "type": "function"
    },
    {
      "inputs": [
        {
          "internalType": "address",
          "name": "_address",
          "type": "address"
        }
      ],
      "name": "getUserTweets",
      "outputs": [
        {
          "components": [
            {
              "internalType": "uint256",
              "name": "tokenId",
              "type": "uint256"
            },
            {
              "internalType": "string",
              "name": "content",
              "type": "string"
            },
            {
              "internalType": "address",
              "name": "author",
              "type": "address"
            },
            {
              "internalType": "uint256",
              "name": "timestamp",
              "type": "uint256"
            },
            {
              "internalType": "string",
              "name": "attachment",
              "type": "string"
            }
          ],
          "internalType": "struct TwitterV1.Tweet[]",
          "name": "",
          "type": "tuple[]"
        }
      ],
      "stateMutability": "view",
      "type": "function"
    },
    {
      "inputs": [],
      "name": "initialize",
      "outputs": [],
      "stateMutability": "nonpayable",
      "type": "function"
    },
    {
      "inputs": [
        {
          "internalType": "address",
          "name": "owner",
          "type": "address"
        },
        {
          "internalType": "address",
          "name": "operator",
          "type": "address"
        }
      ],
      "name": "isApprovedForAll",
      "outputs": [
        {
          "internalType": "bool",
          "name": "",
          "type": "bool"
        }
      ],
      "stateMutability": "view",
      "type": "function"
    },
    {
      "inputs": [
        {
          "internalType": "address",
          "name": "_address",
          "type": "address"
        }
      ],
      "name": "isFollowing",
      "outputs": [
        {
          "internalType": "bool",
          "name": "",
          "type": "bool"
        }
      ],
      "stateMutability": "view",
      "type": "function"
    },
    {
      "inputs": [],
      "name": "name",
      "outputs": [
        {
          "internalType": "string",
          "name": "",
          "type": "string"
        }
      ],
      "stateMutability": "view",
      "type": "function"
    },
    {
      "inputs": [
        {
          "internalType": "uint256",
          "name": "tokenId",
          "type": "uint256"
        }
      ],
      "name": "ownerOf",
      "outputs": [
        {
          "internalType": "address",
          "name": "",
          "type": "address"
        }
      ],
      "stateMutability": "view",
      "type": "function"
    },
    {
      "inputs": [
        {
          "internalType": "address",
          "name": "from",
          "type": "address"
        },
        {
          "internalType": "address",
          "name": "to",
          "type": "address"
        },
        {
          "internalType": "uint256",
          "name": "tokenId",
          "type": "uint256"
        }
      ],
      "name": "safeTransferFrom",
      "outputs": [],
      "stateMutability": "nonpayable",
      "type": "function"
    },
    {
      "inputs": [
        {
          "internalType": "address",
          "name": "from",
          "type": "address"
        },
        {
          "internalType": "address",
          "name": "to",
          "type": "address"
        },
        {
          "internalType": "uint256",
          "name": "tokenId",
          "type": "uint256"
        },
        {
          "internalType": "bytes",
          "name": "_data",
          "type": "bytes"
        }
      ],
      "name": "safeTransferFrom",
      "outputs": [],
      "stateMutability": "nonpayable",
      "type": "function"
    },
    {
      "inputs": [
        {
          "internalType": "address",
          "name": "operator",
          "type": "address"
        },
        {
          "internalType": "bool",
          "name": "approved",
          "type": "bool"
        }
      ],
      "name": "setApprovalForAll",
      "outputs": [],
      "stateMutability": "nonpayable",
      "type": "function"
    },
    {
      "inputs": [
        {
          "internalType": "string",
          "name": "_tweet",
          "type": "string"
        },
        {
          "internalType": "string",
          "name": "_imageData",
          "type": "string"
        }
      ],
      "name": "setTweet",
      "outputs": [],
      "stateMutability": "payable",
      "type": "function"
    },
    {
      "inputs": [
        {
          "internalType": "bytes4",
          "name": "interfaceId",
          "type": "bytes4"
        }
      ],
      "name": "supportsInterface",
      "outputs": [
        {
          "internalType": "bool",
          "name": "",
          "type": "bool"
        }
      ],
      "stateMutability": "view",
      "type": "function"
    },
    {
      "inputs": [],
      "name": "symbol",
      "outputs": [
        {
          "internalType": "string",
          "name": "",
          "type": "string"
        }
      ],
      "stateMutability": "view",
      "type": "function"
    },
    {
      "inputs": [
        {
          "internalType": "uint256",
          "name": "index",
          "type": "uint256"
        }
      ],
      "name": "tokenByIndex",
      "outputs": [
        {
          "internalType": "uint256",
          "name": "",
          "type": "uint256"
        }
      ],
      "stateMutability": "view",
      "type": "function"
    },
    {
      "inputs": [
        {
          "internalType": "address",
          "name": "owner",
          "type": "address"
        },
        {
          "internalType": "uint256",
          "name": "index",
          "type": "uint256"
        }
      ],
      "name": "tokenOfOwnerByIndex",
      "outputs": [
        {
          "internalType": "uint256",
          "name": "",
          "type": "uint256"
        }
      ],
      "stateMutability": "view",
      "type": "function"
    },
    {
      "inputs": [
        {
          "internalType": "uint256",
          "name": "_tokenId",
          "type": "uint256"
        }
      ],
      "name": "tokenURI",
      "outputs": [
        {
          "internalType": "string",
          "name": "",
          "type": "string"
        }
      ],
      "stateMutability": "view",
      "type": "function"
    },
    {
      "inputs": [],
      "name": "totalSupply",
      "outputs": [
        {
          "internalType": "uint256",
          "name": "",
          "type": "uint256"
        }
      ],
      "stateMutability": "view",
      "type": "function"
    },
    {
      "inputs": [
        {
          "internalType": "address",
          "name": "from",
          "type": "address"
        },
        {
          "internalType": "address",
          "name": "to",
          "type": "address"
        },
        {
          "internalType": "uint256",
          "name": "tokenId",
          "type": "uint256"
        }
      ],
      "name": "transferFrom",
      "outputs": [],
      "stateMutability": "nonpayable",
      "type": "function"
    },
    {
      "inputs": [
        {
          "internalType": "uint256",
          "name": "",
          "type": "uint256"
        }
      ],
      "name": "tweets",
      "outputs": [
        {
          "internalType": "uint256",
          "name": "tokenId",
          "type": "uint256"
        },
        {
          "internalType": "string",
          "name": "content",
          "type": "string"
        },
        {
          "internalType": "address",
          "name": "author",
          "type": "address"
        },
        {
          "internalType": "uint256",
          "name": "timestamp",
          "type": "uint256"
        },
        {
          "internalType": "string",
          "name": "attachment",
          "type": "string"
        }
      ],
      "stateMutability": "view",
      "type": "function"
    },
    {
      "inputs": [
        {
          "internalType": "address",
          "name": "_address",
          "type": "address"
        }
      ],
      "name": "unfollow",
      "outputs": [],
      "stateMutability": "nonpayable",
      "type": "function"
    }
  ],
  "bytecode": "0x60806040523480156200001157600080fd5b50600054610100900460ff16806200002c575060005460ff16155b620000845760405162461bcd60e51b815260206004820152602e602482015260008051602062003f9583398151915260448201526d191e481a5b9a5d1a585b1a5e995960921b60648201526084015b60405180910390fd5b600054610100900460ff16158015620000a7576000805461ffff19166101011790555b620000f160405180604001604052806005815260200164151dd9595d60da1b815250604051806040016040528060038152602001621515d560ea1b8152506200010b60201b60201c565b801562000104576000805461ff00191690555b5062000432565b600054610100900460ff168062000125575060005460ff16155b620001795760405162461bcd60e51b815260206004820152602e602482015260008051602062003f9583398151915260448201526d191e481a5b9a5d1a585b1a5e995960921b60648201526084016200007b565b600054610100900460ff161580156200019c576000805461ffff19166101011790555b620001a6620001d4565b620001b0620001d4565b620001bc83836200027b565b8015620001cf576000805461ff00191690555b505050565b600054610100900460ff1680620001ee575060005460ff16155b620002425760405162461bcd60e51b815260206004820152602e602482015260008051602062003f9583398151915260448201526d191e481a5b9a5d1a585b1a5e995960921b60648201526084016200007b565b600054610100900460ff1615801562000265576000805461ffff19166101011790555b801562000278576000805461ff00191690555b50565b600054610100900460ff168062000295575060005460ff16155b620002e95760405162461bcd60e51b815260206004820152602e602482015260008051602062003f9583398151915260448201526d191e481a5b9a5d1a585b1a5e995960921b60648201526084016200007b565b600054610100900460ff161580156200030c576000805461ffff19166101011790555b8251620003219060659060208601906200034f565b508151620003379060669060208501906200034f565b508015620001cf576000805461ff0019169055505050565b8280546200035d90620003f5565b90600052602060002090601f016020900481019282620003815760008555620003cc565b82601f106200039c57805160ff1916838001178555620003cc565b82800160010185558215620003cc579182015b82811115620003cc578251825591602001919060010190620003af565b50620003da929150620003de565b5090565b5b80821115620003da5760008155600101620003df565b600181811c908216806200040a57607f821691505b602082108114156200042c57634e487b7160e01b600052602260045260246000fd5b50919050565b613b5380620004426000396000f3fe6080604052600436106101c25760003560e01c80636352211e116100f7578063c87b56dd11610095578063dedf1b4a11610064578063dedf1b4a1461050e578063e8d857b01461052e578063e985e9c51461055f578063ebd009d3146105a857600080fd5b8063c87b56dd1461049b578063cca22f79146104bb578063d8384b8a146104db578063de440e0e146104fb57600080fd5b806395d89b41116100d157806395d89b4114610419578063a22cb4651461042e578063b88d4fde1461044e578063c2fe20221461046e57600080fd5b80636352211e146103c457806370a08231146103e45780638129fc1c1461040457600080fd5b806323b872dd1161016457806340c184af1161013e57806340c184af1461034457806342842e0e146103645780634dbf27cc146103845780634f6ccce7146103a457600080fd5b806323b872dd146102d75780632f5899d7146102f75780632f745c591461032457600080fd5b8063081812fc116101a0578063081812fc14610240578063095ea7b31461027857806309d4d7961461029857806318160ddd146102b857600080fd5b8063015a4ead146101c757806301ffc9a7146101e957806306fdde031461021e575b600080fd5b3480156101d357600080fd5b506101e76101e23660046133fb565b6105c8565b005b3480156101f557600080fd5b5061020961020436600461355e565b6109c3565b60405190151581526020015b60405180910390f35b34801561022a57600080fd5b50610233610a07565b60405161021591906138b8565b34801561024c57600080fd5b5061026061025b366004613618565b610a99565b6040516001600160a01b039091168152602001610215565b34801561028457600080fd5b506101e7610293366004613535565b610b2e565b3480156102a457600080fd5b506102096102b33660046133fb565b610c60565b3480156102c457600080fd5b506099545b604051908152602001610215565b3480156102e357600080fd5b506101e76102f2366004613447565b610cf5565b34801561030357600080fd5b506103176103123660046133fb565b610d7c565b60405161021591906137c7565b34801561033057600080fd5b506102c961033f366004613535565b6110e0565b34801561035057600080fd5b5061031761035f366004613596565b611188565b34801561037057600080fd5b506101e761037f366004613447565b61159a565b34801561039057600080fd5b506101e761039f3660046133fb565b6115b5565b3480156103b057600080fd5b506102c96103bf366004613618565b6117d5565b3480156103d057600080fd5b506102606103df366004613618565b611887565b3480156103f057600080fd5b506102c96103ff3660046133fb565b611912565b34801561041057600080fd5b506101e76119ac565b34801561042557600080fd5b50610233611a6e565b34801561043a57600080fd5b506101e76104493660046134fb565b611a7d565b34801561045a57600080fd5b506101e7610469366004613482565b611a88565b34801561047a57600080fd5b5061048e6104893660046133fb565b611b16565b6040516102159190613876565b3480156104a757600080fd5b506102336104b6366004613618565b611b93565b3480156104c757600080fd5b5061048e6104d63660046133fb565b611c29565b3480156104e757600080fd5b506102336104f6366004613618565b611c98565b6101e76105093660046135b7565b611f57565b34801561051a57600080fd5b50610260610529366004613535565b612280565b34801561053a57600080fd5b5061054e610549366004613618565b6122b8565b6040516102159594939291906138cb565b34801561056b57600080fd5b5061020961057a366004613415565b6001600160a01b039182166000908152606a6020908152604080832093909416825291909152205460ff1690565b3480156105b457600080fd5b506102606105c3366004613535565b612418565b6001600160a01b0381163314156106265760405162461bcd60e51b815260206004820152601d60248201527f596f752063616e6e6f7420756e666f6c6c6f7720796f757273656c662e00000060448201526064015b60405180910390fd5b60005b33600090815260ca60205260409020548110156107e05733600090815260ca6020526040902080546001600160a01b03841691908390811061067b57634e487b7160e01b600052603260045260246000fd5b6000918252602090912001546001600160a01b031614156107ce57805b33600090815260ca60205260409020546106b4906001906139ba565b81101561077e5733600090815260ca602052604090206106d5826001613917565b815481106106f357634e487b7160e01b600052603260045260246000fd5b9060005260206000200160ca6000336001600160a01b03166001600160a01b03168152602001908152602001600020828154811061074157634e487b7160e01b600052603260045260246000fd5b600091825260209091209154910180546001600160a01b0319166001600160a01b039092169190911790558061077681613a56565b915050610698565b5033600090815260ca602052604090208054806107ab57634e487b7160e01b600052603160045260246000fd5b600082815260209020810160001990810180546001600160a01b03191690550190555b806107d881613a56565b915050610629565b5060005b6001600160a01b038216600090815260cb60205260409020548110156109bf576001600160a01b038216600090815260cb6020526040902080543391908390811061083f57634e487b7160e01b600052603260045260246000fd5b6000918252602090912001546001600160a01b031614156109ad57805b6001600160a01b038316600090815260cb6020526040902054610881906001906139ba565b811015610954576001600160a01b038316600090815260cb602052604090206108ab826001613917565b815481106108c957634e487b7160e01b600052603260045260246000fd5b9060005260206000200160cb6000856001600160a01b03166001600160a01b03168152602001908152602001600020828154811061091757634e487b7160e01b600052603260045260246000fd5b600091825260209091209154910180546001600160a01b0319166001600160a01b039092169190911790558061094c81613a56565b91505061085c565b506001600160a01b038216600090815260cb6020526040902080548061098a57634e487b7160e01b600052603160045260246000fd5b600082815260209020810160001990810180546001600160a01b03191690550190555b806109b781613a56565b9150506107e4565b5050565b60006001600160e01b031982167f780e9d63000000000000000000000000000000000000000000000000000000001480610a015750610a0182612434565b92915050565b606060658054610a1690613a1b565b80601f0160208091040260200160405190810160405280929190818152602001828054610a4290613a1b565b8015610a8f5780601f10610a6457610100808354040283529160200191610a8f565b820191906000526020600020905b815481529060010190602001808311610a7257829003601f168201915b5050505050905090565b6000818152606760205260408120546001600160a01b0316610b125760405162461bcd60e51b815260206004820152602c60248201527f4552433732313a20617070726f76656420717565727920666f72206e6f6e657860448201526b34b9ba32b73a103a37b5b2b760a11b606482015260840161061d565b506000908152606960205260409020546001600160a01b031690565b6000610b3982611887565b9050806001600160a01b0316836001600160a01b03161415610bc35760405162461bcd60e51b815260206004820152602160248201527f4552433732313a20617070726f76616c20746f2063757272656e74206f776e6560448201527f7200000000000000000000000000000000000000000000000000000000000000606482015260840161061d565b336001600160a01b0382161480610bdf5750610bdf813361057a565b610c515760405162461bcd60e51b815260206004820152603860248201527f4552433732313a20617070726f76652063616c6c6572206973206e6f74206f7760448201527f6e6572206e6f7220617070726f76656420666f7220616c6c0000000000000000606482015260840161061d565b610c5b83836124cf565b505050565b600080805b33600090815260ca6020526040902054811015610cee5733600090815260ca6020526040902080546001600160a01b038616919083908110610cb757634e487b7160e01b600052603260045260246000fd5b6000918252602090912001546001600160a01b03161415610cdc575060019392505050565b80610ce681613a56565b915050610c65565b5092915050565b610cff338261253d565b610d715760405162461bcd60e51b815260206004820152603160248201527f4552433732313a207472616e736665722063616c6c6572206973206e6f74206f60448201527f776e6572206e6f7220617070726f766564000000000000000000000000000000606482015260840161061d565b610c5b838383612634565b60606000805b60c954811015610dfa57836001600160a01b031660c98281548110610db757634e487b7160e01b600052603260045260246000fd5b60009182526020909120600260059092020101546001600160a01b03161415610de85781610de481613a56565b9250505b80610df281613a56565b915050610d82565b5060008167ffffffffffffffff811115610e2457634e487b7160e01b600052604160045260246000fd5b604051908082528060200260200182016040528015610e9057816020015b610e7d6040518060a00160405280600081526020016060815260200160006001600160a01b0316815260200160008152602001606081525090565b815260200190600190039081610e425790505b509050600080600160c980549050610ea891906139ba565b90505b806000136110d657856001600160a01b031660c98281548110610ede57634e487b7160e01b600052603260045260246000fd5b60009182526020909120600260059092020101546001600160a01b031614156110c45760c98181548110610f2257634e487b7160e01b600052603260045260246000fd5b90600052602060002090600502016040518060a001604052908160008201548152602001600182018054610f5590613a1b565b80601f0160208091040260200160405190810160405280929190818152602001828054610f8190613a1b565b8015610fce5780601f10610fa357610100808354040283529160200191610fce565b820191906000526020600020905b815481529060010190602001808311610fb157829003601f168201915b505050918352505060028201546001600160a01b031660208201526003820154604082015260048201805460609092019161100890613a1b565b80601f016020809104026020016040519081016040528092919081815260200182805461103490613a1b565b80156110815780601f1061105657610100808354040283529160200191611081565b820191906000526020600020905b81548152906001019060200180831161106457829003601f168201915b5050505050815250508383815181106110aa57634e487b7160e01b600052603260045260246000fd5b602002602001018190525081806110c090613a56565b9250505b806110ce816139fd565b915050610eab565b5090949350505050565b60006110eb83611912565b821061115f5760405162461bcd60e51b815260206004820152602b60248201527f455243373231456e756d657261626c653a206f776e657220696e646578206f7560448201527f74206f6620626f756e6473000000000000000000000000000000000000000000606482015260840161061d565b506001600160a01b03919091166000908152609760209081526040808320938352929052205490565b606060008312156112015760405162461bcd60e51b815260206004820152602a60248201527f4f6666736574206d7573742062652067726561746572207468616e206f72206560448201527f7175616c20746f20302e00000000000000000000000000000000000000000000606482015260840161061d565b60c95483111561127757604080516000808252602082019092529061126f565b61125c6040518060a00160405280600081526020016060815260200160006001600160a01b0316815260200160008152602001606081525090565b8152602001906001900390816112215790505b509050610a01565b60c9546000836112878684613962565b1361129b576112968583613962565b61129d565b835b905060008167ffffffffffffffff8111156112c857634e487b7160e01b600052604160045260246000fd5b60405190808252806020026020018201604052801561133457816020015b6113216040518060a00160405280600081526020016060815260200160006001600160a01b0316815260200160008152602001606081525090565b8152602001906001900390816112e65790505b50905060008060016113468986613962565b6113509190613962565b90505b808761135f8a87613962565b6113699190613962565b1361158e57600161137a8986613962565b6113849190613962565b81131580156113a75750808761139a8a87613962565b6113a49190613962565b13155b80156113b4575060008112155b1561157c5760c981815481106113da57634e487b7160e01b600052603260045260246000fd5b90600052602060002090600502016040518060a00160405290816000820154815260200160018201805461140d90613a1b565b80601f016020809104026020016040519081016040528092919081815260200182805461143990613a1b565b80156114865780601f1061145b57610100808354040283529160200191611486565b820191906000526020600020905b81548152906001019060200180831161146957829003601f168201915b505050918352505060028201546001600160a01b03166020820152600382015460408201526004820180546060909201916114c090613a1b565b80601f01602080910402602001604051908101604052809291908181526020018280546114ec90613a1b565b80156115395780601f1061150e57610100808354040283529160200191611539565b820191906000526020600020905b81548152906001019060200180831161151c57829003601f168201915b50505050508152505083838151811061156257634e487b7160e01b600052603260045260246000fd5b6020026020010181905250818061157890613a56565b9250505b80611586816139fd565b915050611353565b50909695505050505050565b610c5b83838360405180602001604052806000815250611a88565b6001600160a01b03811633141561160e5760405162461bcd60e51b815260206004820152601b60248201527f596f752063616e6e6f7420666f6c6c6f7720796f757273656c662e0000000000604482015260640161061d565b6000805b33600090815260ca60205260409020548110156116965733600090815260ca6020526040902080546001600160a01b03851691908390811061166457634e487b7160e01b600052603260045260246000fd5b6000918252602090912001546001600160a01b0316141561168457600191505b8061168e81613a56565b915050611612565b50806116ed5733600090815260ca6020908152604080832081518084019092526001600160a01b0386811683528154600181018355918552929093209051920180546001600160a01b031916929091169190911790555b506000805b6001600160a01b038316600090815260cb602052604090205481101561177f576001600160a01b038316600090815260cb6020526040902080543391908390811061174d57634e487b7160e01b600052603260045260246000fd5b6000918252602090912001546001600160a01b0316141561176d57600191505b8061177781613a56565b9150506116f2565b50806109bf57506001600160a01b03908116600090815260cb6020908152604080832081518084019092523382528054600181018255908452919092209151910180546001600160a01b03191691909216179055565b60006117e060995490565b82106118545760405162461bcd60e51b815260206004820152602c60248201527f455243373231456e756d657261626c653a20676c6f62616c20696e646578206f60448201527f7574206f6620626f756e64730000000000000000000000000000000000000000606482015260840161061d565b6099828154811061187557634e487b7160e01b600052603260045260246000fd5b90600052602060002001549050919050565b6000818152606760205260408120546001600160a01b031680610a015760405162461bcd60e51b815260206004820152602960248201527f4552433732313a206f776e657220717565727920666f72206e6f6e657869737460448201527f656e7420746f6b656e0000000000000000000000000000000000000000000000606482015260840161061d565b60006001600160a01b0382166119905760405162461bcd60e51b815260206004820152602a60248201527f4552433732313a2062616c616e636520717565727920666f7220746865207a6560448201527f726f206164647265737300000000000000000000000000000000000000000000606482015260840161061d565b506001600160a01b031660009081526068602052604090205490565b600054610100900460ff16806119c5575060005460ff16155b611a375760405162461bcd60e51b815260206004820152602e60248201527f496e697469616c697a61626c653a20636f6e747261637420697320616c72656160448201527f647920696e697469616c697a6564000000000000000000000000000000000000606482015260840161061d565b600054610100900460ff16158015611a59576000805461ffff19166101011790555b8015611a6b576000805461ff00191690555b50565b606060668054610a1690613a1b565b6109bf33838361280c565b611a92338361253d565b611b045760405162461bcd60e51b815260206004820152603160248201527f4552433732313a207472616e736665722063616c6c6572206973206e6f74206f60448201527f776e6572206e6f7220617070726f766564000000000000000000000000000000606482015260840161061d565b611b10848484846128db565b50505050565b6001600160a01b038116600090815260cb60209081526040808320805482518185028101850190935280835260609492939192909184015b82821015611b8857600084815260209081902060408051808401909152908401546001600160a01b03168152825260019092019101611b4e565b505050509050919050565b6000818152606760205260409020546060906001600160a01b0316611c205760405162461bcd60e51b815260206004820152602f60248201527f4552433732314d657461646174613a2055524920717565727920666f72206e6f60448201527f6e6578697374656e7420746f6b656e0000000000000000000000000000000000606482015260840161061d565b610a0182611c98565b6001600160a01b038116600090815260ca60209081526040808320805482518185028101850190935280835260609492939192909184018215611b8857600084815260209081902060408051808401909152908401546001600160a01b03168152825260019092019101611b4e565b6040805160a0810182526000808252606060208301819052928201819052818301526080810182905260005b60c954811015611ea6578360c98281548110611cf057634e487b7160e01b600052603260045260246000fd5b9060005260206000209060050201600001541415611e945760c98181548110611d2957634e487b7160e01b600052603260045260246000fd5b90600052602060002090600502016040518060a001604052908160008201548152602001600182018054611d5c90613a1b565b80601f0160208091040260200160405190810160405280929190818152602001828054611d8890613a1b565b8015611dd55780601f10611daa57610100808354040283529160200191611dd5565b820191906000526020600020905b815481529060010190602001808311611db857829003601f168201915b505050918352505060028201546001600160a01b0316602082015260038201546040820152600482018054606090920191611e0f90613a1b565b80601f0160208091040260200160405190810160405280929190818152602001828054611e3b90613a1b565b8015611e885780601f10611e5d57610100808354040283529160200191611e88565b820191906000526020600020905b815481529060010190602001808311611e6b57829003601f168201915b50505050508152505091505b80611e9e81613a56565b915050611cc4565b5080518314611ef75760405162461bcd60e51b815260206004820152601060248201527f5477656574206e6f7420666f756e642e00000000000000000000000000000000604482015260640161061d565b611f30611f0384612959565b6020808401516080850151604051611f1c94930161365c565b604051602081830303815290604052612aa7565b604051602001611f409190613746565b604051602081830303815290604052915050919050565b6000611f6260995490565b90506000611f71826001613917565b9050611f7d8351151590565b1561208e576040805160a081018252828152602080820187815233938301939093524260608301526080820186905260c98054600181018255600091909152825160059091027f66be4f155c5ef2ebd3772b228f2f00681e4ed5826cdb3b1943cc11ad15ad1d2881019182559351805193949193612024937f66be4f155c5ef2ebd3772b228f2f00681e4ed5826cdb3b1943cc11ad15ad1d299093019291909101906132aa565b5060408201516002820180546001600160a01b0319166001600160a01b0390921691909117905560608201516003820155608082015180516120709160048401916020909101906132aa565b505050612089338360016120849190613917565b612c54565b612239565b83516120dc5760405162461bcd60e51b815260206004820152601260248201527f547765657420697320746f6f2073686f72740000000000000000000000000000604482015260640161061d565b6120e584612c6e565b6121315760405162461bcd60e51b815260206004820181905260248201527f5370616365206f6e6c79207477656574206973206e6f7420616c6c6f7765642e604482015260640161061d565b6040805160a0810182528281526020808201878152338385015242606084015283518083019094526000808552608084019490945260c980546001810182559452825160059094027f66be4f155c5ef2ebd3772b228f2f00681e4ed5826cdb3b1943cc11ad15ad1d288101948555905180519394936121d9937f66be4f155c5ef2ebd3772b228f2f00681e4ed5826cdb3b1943cc11ad15ad1d299093019291909101906132aa565b5060408201516002820180546001600160a01b0319166001600160a01b0390921691909117905560608201516003820155608082015180516122259160048401916020909101906132aa565b505050612239338360016120849190613917565b336001600160a01b03167fed917e0e51bb528b7fef2750065cd119dddd8e8fa54f38a656d4107e7c14f37a8560405161227291906138b8565b60405180910390a250505050565b60ca602052816000526040600020818154811061229c57600080fd5b6000918252602090912001546001600160a01b03169150829050565b60c981815481106122c857600080fd5b600091825260209091206005909102018054600182018054919350906122ed90613a1b565b80601f016020809104026020016040519081016040528092919081815260200182805461231990613a1b565b80156123665780601f1061233b57610100808354040283529160200191612366565b820191906000526020600020905b81548152906001019060200180831161234957829003601f168201915b505050506002830154600384015460048501805494956001600160a01b03909316949193509061239590613a1b565b80601f01602080910402602001604051908101604052809291908181526020018280546123c190613a1b565b801561240e5780601f106123e35761010080835404028352916020019161240e565b820191906000526020600020905b8154815290600101906020018083116123f157829003601f168201915b5050505050905085565b60cb602052816000526040600020818154811061229c57600080fd5b60006001600160e01b031982167f80ac58cd00000000000000000000000000000000000000000000000000000000148061249757506001600160e01b031982167f5b5e139f00000000000000000000000000000000000000000000000000000000145b80610a0157507f01ffc9a7000000000000000000000000000000000000000000000000000000006001600160e01b0319831614610a01565b600081815260696020526040902080546001600160a01b0319166001600160a01b038416908117909155819061250482611887565b6001600160a01b03167f8c5be1e5ebec7d5bd14f71427d1e84f3dd0314c0f7b2291e5b200ac8c7c3b92560405160405180910390a45050565b6000818152606760205260408120546001600160a01b03166125b65760405162461bcd60e51b815260206004820152602c60248201527f4552433732313a206f70657261746f7220717565727920666f72206e6f6e657860448201526b34b9ba32b73a103a37b5b2b760a11b606482015260840161061d565b60006125c183611887565b9050806001600160a01b0316846001600160a01b031614806125fc5750836001600160a01b03166125f184610a99565b6001600160a01b0316145b8061262c57506001600160a01b038082166000908152606a602090815260408083209388168352929052205460ff165b949350505050565b826001600160a01b031661264782611887565b6001600160a01b0316146126c35760405162461bcd60e51b815260206004820152602960248201527f4552433732313a207472616e73666572206f6620746f6b656e2074686174206960448201527f73206e6f74206f776e0000000000000000000000000000000000000000000000606482015260840161061d565b6001600160a01b03821661273e5760405162461bcd60e51b8152602060048201526024808201527f4552433732313a207472616e7366657220746f20746865207a65726f2061646460448201527f7265737300000000000000000000000000000000000000000000000000000000606482015260840161061d565b612749838383612d14565b6127546000826124cf565b6001600160a01b038316600090815260686020526040812080546001929061277d9084906139ba565b90915550506001600160a01b03821660009081526068602052604081208054600192906127ab908490613917565b909155505060008181526067602052604080822080546001600160a01b0319166001600160a01b0386811691821790925591518493918716917fddf252ad1be2c89b69c2b068fc378daa952ba7f163c4a11628f55a4df523b3ef91a4505050565b816001600160a01b0316836001600160a01b0316141561286e5760405162461bcd60e51b815260206004820152601960248201527f4552433732313a20617070726f766520746f2063616c6c657200000000000000604482015260640161061d565b6001600160a01b038381166000818152606a6020908152604080832094871680845294825291829020805460ff191686151590811790915591519182527f17307eab39ab6107e8899845ad3d59bd9653f200f220920489ca2b5937696c31910160405180910390a3505050565b6128e6848484612634565b6128f284848484612dcc565b611b105760405162461bcd60e51b815260206004820152603260248201527f4552433732313a207472616e7366657220746f206e6f6e20455243373231526560448201527131b2b4bb32b91034b6b83632b6b2b73a32b960711b606482015260840161061d565b60608161299957505060408051808201909152600181527f3000000000000000000000000000000000000000000000000000000000000000602082015290565b8160005b81156129c357806129ad81613a56565b91506129bc9050600a8361392f565b915061299d565b60008167ffffffffffffffff8111156129ec57634e487b7160e01b600052604160045260246000fd5b6040519080825280601f01601f191660200182016040528015612a16576020820181803683370190505b5090505b841561262c57612a2b6001836139ba565b9150612a38600a86613a71565b612a43906030613917565b60f81b818381518110612a6657634e487b7160e01b600052603260045260246000fd5b60200101907effffffffffffffffffffffffffffffffffffffffffffffffffffffffffffff1916908160001a905350612aa0600a8661392f565b9450612a1a565b6060815160001415612ac757505060408051602081019091526000815290565b6000604051806060016040528060408152602001613ade6040913990506000600384516002612af69190613917565b612b00919061392f565b612b0b906004613943565b90506000612b1a826020613917565b67ffffffffffffffff811115612b4057634e487b7160e01b600052604160045260246000fd5b6040519080825280601f01601f191660200182016040528015612b6a576020820181803683370190505b509050818152600183018586518101602084015b81831015612bd85760039283018051603f601282901c811687015160f890811b8552600c83901c8216880151811b6001860152600683901c8216880151811b60028601529116860151901b93820193909352600401612b7e565b600389510660018114612bf25760028114612c1e57612c46565b7f3d3d000000000000000000000000000000000000000000000000000000000000600119830152612c46565b7f3d000000000000000000000000000000000000000000000000000000000000006000198301525b509398975050505050505050565b6109bf828260405180602001604052806000815250612f24565b60006001815b8351811015612d0c576000848281518110612c9f57634e487b7160e01b600052603260045260246000fd5b01602001517fff000000000000000000000000000000000000000000000000000000000000001690507f20000000000000000000000000000000000000000000000000000000000000008114612cf9576000925050612d0c565b5080612d0481613a56565b915050612c74565b501592915050565b6001600160a01b038316612d6f57612d6a81609980546000838152609a60205260408120829055600182018355919091527f72a152ddfb8e864297c917af52ea6c1c68aead0fee1a62673fcc7e0c94979d000155565b612d92565b816001600160a01b0316836001600160a01b031614612d9257612d928382612fa2565b6001600160a01b038216612da957610c5b8161303f565b826001600160a01b0316826001600160a01b031614610c5b57610c5b8282613118565b60006001600160a01b0384163b15612f1957604051630a85bd0160e11b81526001600160a01b0385169063150b7a0290612e1090339089908890889060040161378b565b602060405180830381600087803b158015612e2a57600080fd5b505af1925050508015612e5a575060408051601f3d908101601f19168201909252612e579181019061357a565b60015b612eff573d808015612e88576040519150601f19603f3d011682016040523d82523d6000602084013e612e8d565b606091505b508051612ef75760405162461bcd60e51b815260206004820152603260248201527f4552433732313a207472616e7366657220746f206e6f6e20455243373231526560448201527131b2b4bb32b91034b6b83632b6b2b73a32b960711b606482015260840161061d565b805181602001fd5b6001600160e01b031916630a85bd0160e11b14905061262c565b506001949350505050565b612f2e838361315c565b612f3b6000848484612dcc565b610c5b5760405162461bcd60e51b815260206004820152603260248201527f4552433732313a207472616e7366657220746f206e6f6e20455243373231526560448201527131b2b4bb32b91034b6b83632b6b2b73a32b960711b606482015260840161061d565b60006001612faf84611912565b612fb991906139ba565b60008381526098602052604090205490915080821461300c576001600160a01b03841660009081526097602090815260408083208584528252808320548484528184208190558352609890915290208190555b5060009182526098602090815260408084208490556001600160a01b039094168352609781528383209183525290812055565b609954600090613051906001906139ba565b6000838152609a60205260408120546099805493945090928490811061308757634e487b7160e01b600052603260045260246000fd5b9060005260206000200154905080609983815481106130b657634e487b7160e01b600052603260045260246000fd5b6000918252602080832090910192909255828152609a909152604080822084905585825281205560998054806130fc57634e487b7160e01b600052603160045260246000fd5b6001900381819060005260206000200160009055905550505050565b600061312383611912565b6001600160a01b039093166000908152609760209081526040808320868452825280832085905593825260989052919091209190915550565b6001600160a01b0382166131b25760405162461bcd60e51b815260206004820181905260248201527f4552433732313a206d696e7420746f20746865207a65726f2061646472657373604482015260640161061d565b6000818152606760205260409020546001600160a01b0316156132175760405162461bcd60e51b815260206004820152601c60248201527f4552433732313a20746f6b656e20616c7265616479206d696e74656400000000604482015260640161061d565b61322360008383612d14565b6001600160a01b038216600090815260686020526040812080546001929061324c908490613917565b909155505060008181526067602052604080822080546001600160a01b0319166001600160a01b03861690811790915590518392907fddf252ad1be2c89b69c2b068fc378daa952ba7f163c4a11628f55a4df523b3ef908290a45050565b8280546132b690613a1b565b90600052602060002090601f0160209004810192826132d8576000855561331e565b82601f106132f157805160ff191683800117855561331e565b8280016001018555821561331e579182015b8281111561331e578251825591602001919060010190613303565b5061332a92915061332e565b5090565b5b8082111561332a576000815560010161332f565b600067ffffffffffffffff8084111561335e5761335e613ab1565b604051601f8501601f19908116603f0116810190828211818310171561338657613386613ab1565b8160405280935085815286868601111561339f57600080fd5b858560208301376000602087830101525050509392505050565b80356001600160a01b03811681146133d057600080fd5b919050565b600082601f8301126133e5578081fd5b6133f483833560208501613343565b9392505050565b60006020828403121561340c578081fd5b6133f4826133b9565b60008060408385031215613427578081fd5b613430836133b9565b915061343e602084016133b9565b90509250929050565b60008060006060848603121561345b578081fd5b613464846133b9565b9250613472602085016133b9565b9150604084013590509250925092565b60008060008060808587031215613497578081fd5b6134a0856133b9565b93506134ae602086016133b9565b925060408501359150606085013567ffffffffffffffff8111156134d0578182fd5b8501601f810187136134e0578182fd5b6134ef87823560208401613343565b91505092959194509250565b6000806040838503121561350d578182fd5b613516836133b9565b91506020830135801515811461352a578182fd5b809150509250929050565b60008060408385031215613547578182fd5b613550836133b9565b946020939093013593505050565b60006020828403121561356f578081fd5b81356133f481613ac7565b60006020828403121561358b578081fd5b81516133f481613ac7565b600080604083850312156135a8578182fd5b50508035926020909101359150565b600080604083850312156135c9578182fd5b823567ffffffffffffffff808211156135e0578384fd5b6135ec868387016133d5565b93506020850135915080821115613601578283fd5b5061360e858286016133d5565b9150509250929050565b600060208284031215613629578081fd5b5035919050565b600081518084526136488160208601602086016139d1565b601f01601f19169290920160200192915050565b7f7b226e616d65223a2254776565742023000000000000000000000000000000008152600084516136948160108501602089016139d1565b7f222c20226465736372697074696f6e223a22000000000000000000000000000060109184019182015284516136d18160228401602089016139d1565b7f222c2022696d616765223a20220000000000000000000000000000000000000060229290910191820152835161370f81602f8401602088016139d1565b7f227d000000000000000000000000000000000000000000000000000000000000602f929091019182015260310195945050505050565b7f646174613a6170706c69636174696f6e2f6a736f6e3b6261736536342c00000081526000825161377e81601d8501602087016139d1565b91909101601d0192915050565b60006001600160a01b038087168352808616602084015250836040830152608060608301526137bd6080830184613630565b9695505050505050565b60006020808301818452808551808352604092508286019150828160051b870101848801865b8381101561386857603f19898403018552815160a08151855288820151818a87015261381b82870182613630565b9150506001600160a01b038883015116888601526060808301518187015250608080830151925085820381870152506138548183613630565b9689019694505050908601906001016137ed565b509098975050505050505050565b6020808252825182820181905260009190848201906040850190845b8181101561158e578351516001600160a01b031683529284019291840191600101613892565b6020815260006133f46020830184613630565b85815260a0602082015260006138e460a0830187613630565b6001600160a01b0386166040840152846060840152828103608084015261390b8185613630565b98975050505050505050565b6000821982111561392a5761392a613a85565b500190565b60008261393e5761393e613a9b565b500490565b600081600019048311821515161561395d5761395d613a85565b500290565b600080831283600160ff1b0183128115161561398057613980613a85565b837f7fffffffffffffffffffffffffffffffffffffffffffffffffffffffffffffff0183138116156139b4576139b4613a85565b50500390565b6000828210156139cc576139cc613a85565b500390565b60005b838110156139ec5781810151838201526020016139d4565b83811115611b105750506000910152565b6000600160ff1b821415613a1357613a13613a85565b506000190190565b600181811c90821680613a2f57607f821691505b60208210811415613a5057634e487b7160e01b600052602260045260246000fd5b50919050565b6000600019821415613a6a57613a6a613a85565b5060010190565b600082613a8057613a80613a9b565b500690565b634e487b7160e01b600052601160045260246000fd5b634e487b7160e01b600052601260045260246000fd5b634e487b7160e01b600052604160045260246000fd5b6001600160e01b031981168114611a6b57600080fdfe4142434445464748494a4b4c4d4e4f505152535455565758595a6162636465666768696a6b6c6d6e6f707172737475767778797a303132333435363738392b2fa2646970667358221220c5bd42162541f806ab541c98b1cf3389cb01edbaa89fa9beca6029aec14c31e764736f6c63430008040033496e697469616c697a61626c653a20636f6e747261637420697320616c726561",
  "linkReferences": {},
  "deployedLinkReferences": {}
}