{
  "_format": "hh-sol-artifact-1",
  "contractName": "Twitter",
  "sourceName": "contracts/Twitter.sol",
  "abi": [
    {
      "inputs": [],
      "stateMutability": "nonpayable",
      "type": "constructor"
    },
    {
      "inputs": [
        {
          "internalType": "address",
          "name": "_address",
          "type": "address"
        }
      ],
      "name": "follow",
      "outputs": [],
      "stateMutability": "nonpayable",
      "type": "function"
    },
    {
      "inputs": [
        {
          "internalType": "address",
          "name": "",
          "type": "address"
        },
        {
          "internalType": "uint256",
          "name": "",
          "type": "uint256"
        }
      ],
      "name": "followers",
      "outputs": [
        {
          "internalType": "address",
          "name": "id",
          "type": "address"
        }
      ],
      "stateMutability": "view",
      "type": "function"
    },
    {
      "inputs": [
        {
          "internalType": "address",
          "name": "",
          "type": "address"
        },
        {
          "internalType": "uint256",
          "name": "",
          "type": "uint256"
        }
      ],
      "name": "followings",
      "outputs": [
        {
          "internalType": "address",
          "name": "id",
          "type": "address"
        }
      ],
      "stateMutability": "view",
      "type": "function"
    },
    {
      "inputs": [
        {
          "internalType": "address",
          "name": "_address",
          "type": "address"
        }
      ],
      "name": "getFollowers",
      "outputs": [
        {
          "components": [
            {
              "internalType": "address",
              "name": "id",
              "type": "address"
            }
          ],
          "internalType": "struct Twitter.User[]",
          "name": "",
          "type": "tuple[]"
        }
      ],
      "stateMutability": "view",
      "type": "function"
    },
    {
      "inputs": [
        {
          "internalType": "address",
          "name": "_address",
          "type": "address"
        }
      ],
      "name": "getFollowings",
      "outputs": [
        {
          "components": [
            {
              "internalType": "address",
              "name": "id",
              "type": "address"
            }
          ],
          "internalType": "struct Twitter.User[]",
          "name": "",
          "type": "tuple[]"
        }
      ],
      "stateMutability": "view",
      "type": "function"
    },
    {
      "inputs": [
        {
          "internalType": "int256",
          "name": "offset",
          "type": "int256"
        },
        {
          "internalType": "int256",
          "name": "limit",
          "type": "int256"
        }
      ],
      "name": "getTimeline",
      "outputs": [
        {
          "components": [
            {
              "internalType": "string",
              "name": "content",
              "type": "string"
            },
            {
              "internalType": "address",
              "name": "author",
              "type": "address"
            },
            {
              "internalType": "uint256",
              "name": "timestamp",
              "type": "uint256"
            }
          ],
          "internalType": "struct Twitter.Tweet[]",
          "name": "",
          "type": "tuple[]"
        }
      ],
      "stateMutability": "view",
      "type": "function"
    },
    {
      "inputs": [
        {
          "internalType": "address",
          "name": "_address",
          "type": "address"
        }
      ],
      "name": "getUserTweets",
      "outputs": [
        {
          "components": [
            {
              "internalType": "string",
              "name": "content",
              "type": "string"
            },
            {
              "internalType": "address",
              "name": "author",
              "type": "address"
            },
            {
              "internalType": "uint256",
              "name": "timestamp",
              "type": "uint256"
            }
          ],
          "internalType": "struct Twitter.Tweet[]",
          "name": "",
          "type": "tuple[]"
        }
      ],
      "stateMutability": "view",
      "type": "function"
    },
    {
      "inputs": [
        {
          "internalType": "address",
          "name": "_address",
          "type": "address"
        }
      ],
      "name": "isFollowing",
      "outputs": [
        {
          "internalType": "bool",
          "name": "",
          "type": "bool"
        }
      ],
      "stateMutability": "view",
      "type": "function"
    },
    {
      "inputs": [
        {
          "internalType": "string",
          "name": "_tweet",
          "type": "string"
        }
      ],
      "name": "setTweet",
      "outputs": [],
      "stateMutability": "nonpayable",
      "type": "function"
    },
    {
      "inputs": [
        {
          "internalType": "uint256",
          "name": "",
          "type": "uint256"
        }
      ],
      "name": "tweets",
      "outputs": [
        {
          "internalType": "string",
          "name": "content",
          "type": "string"
        },
        {
          "internalType": "address",
          "name": "author",
          "type": "address"
        },
        {
          "internalType": "uint256",
          "name": "timestamp",
          "type": "uint256"
        }
      ],
      "stateMutability": "view",
      "type": "function"
    },
    {
      "inputs": [
        {
          "internalType": "address",
          "name": "_address",
          "type": "address"
        }
      ],
      "name": "unfollow",
      "outputs": [],
      "stateMutability": "nonpayable",
      "type": "function"
    }
  ],
  "bytecode": "0x60806040523480156200001157600080fd5b506200005d6040518060400160405280600f81526020017f48656c6c6f2c20547769747465722100000000000000000000000000000000008152506200006360201b62001dcf1760201c565b620001f7565b62000103816040516024016200007a919062000170565b6040516020818303038152906040527f41304fac000000000000000000000000000000000000000000000000000000007bffffffffffffffffffffffffffffffffffffffffffffffffffffffff19166020820180517bffffffffffffffffffffffffffffffffffffffffffffffffffffffff83818316178352505050506200010660201b60201c565b50565b60008151905060006a636f6e736f6c652e6c6f679050602083016000808483855afa5050505050565b60006200013c8262000194565b6200014881856200019f565b93506200015a818560208601620001b0565b6200016581620001e6565b840191505092915050565b600060208201905081810360008301526200018c81846200012f565b905092915050565b600081519050919050565b600082825260208201905092915050565b60005b83811015620001d0578082015181840152602081019050620001b3565b83811115620001e0576000848401525b50505050565b6000601f19601f8301169050919050565b612b1680620002076000396000f3fe608060405234801561001057600080fd5b50600436106100a95760003560e01c8063590b515111610071578063590b515114610176578063c2fe202214610192578063cca22f79146101c2578063dedf1b4a146101f2578063e8d857b014610222578063ebd009d314610254576100a9565b8063015a4ead146100ae57806309d4d796146100ca5780632f5899d7146100fa57806340c184af1461012a5780634dbf27cc1461015a575b600080fd5b6100c860048036038101906100c39190612012565b610284565b005b6100e460048036038101906100df9190612012565b610a9b565b6040516100f19190612453565b60405180910390f35b610114600480360381019061010f9190612012565b610bf0565b604051610121919061240f565b60405180910390f35b610144600480360381019061013f9190612077565b610fb9565b604051610151919061240f565b60405180910390f35b610174600480360381019061016f9190612012565b611382565b005b610190600480360381019061018b91906120b3565b611826565b005b6101ac60048036038101906101a79190612012565b611a5f565b6040516101b99190612431565b60405180910390f35b6101dc60048036038101906101d79190612012565b611b4f565b6040516101e99190612431565b60405180910390f35b61020c6004803603810190610207919061203b565b611c3f565b60405161021991906123f4565b60405180910390f35b61023c600480360381019061023791906120f4565b611c96565b60405161024b93929190612490565b60405180910390f35b61026e6004803603810190610269919061203b565b611d78565b60405161027b91906123f4565b60405180910390f35b3373ffffffffffffffffffffffffffffffffffffffff168173ffffffffffffffffffffffffffffffffffffffff1614156102f3576040517f08c379a00000000000000000000000000000000000000000000000000000000081526004016102ea906124ee565b60405180910390fd5b60005b600160003373ffffffffffffffffffffffffffffffffffffffff1673ffffffffffffffffffffffffffffffffffffffff168152602001908152602001600020805490508110156106c4578173ffffffffffffffffffffffffffffffffffffffff16600160003373ffffffffffffffffffffffffffffffffffffffff1673ffffffffffffffffffffffffffffffffffffffff16815260200190815260200160002082815481106103ce577f4e487b7100000000000000000000000000000000000000000000000000000000600052603260045260246000fd5b9060005260206000200160000160009054906101000a900473ffffffffffffffffffffffffffffffffffffffff1673ffffffffffffffffffffffffffffffffffffffff1614156106b15760008190505b60018060003373ffffffffffffffffffffffffffffffffffffffff1673ffffffffffffffffffffffffffffffffffffffff1681526020019081526020016000208054905061046c919061274d565b8110156105fe57600160003373ffffffffffffffffffffffffffffffffffffffff1673ffffffffffffffffffffffffffffffffffffffff1681526020019081526020016000206001826104bf9190612663565b815481106104f6577f4e487b7100000000000000000000000000000000000000000000000000000000600052603260045260246000fd5b90600052602060002001600160003373ffffffffffffffffffffffffffffffffffffffff1673ffffffffffffffffffffffffffffffffffffffff1681526020019081526020016000208281548110610577577f4e487b7100000000000000000000000000000000000000000000000000000000600052603260045260246000fd5b906000526020600020016000820160009054906101000a900473ffffffffffffffffffffffffffffffffffffffff168160000160006101000a81548173ffffffffffffffffffffffffffffffffffffffff021916908373ffffffffffffffffffffffffffffffffffffffff16021790555090505080806105f6906128c1565b91505061041e565b50600160003373ffffffffffffffffffffffffffffffffffffffff1673ffffffffffffffffffffffffffffffffffffffff168152602001908152602001600020805480610674577f4e487b7100000000000000000000000000000000000000000000000000000000600052603160045260246000fd5b60019003818190600052602060002001600080820160006101000a81549073ffffffffffffffffffffffffffffffffffffffff0219169055505090555b80806106bc906128c1565b9150506102f6565b5060005b600260008373ffffffffffffffffffffffffffffffffffffffff1673ffffffffffffffffffffffffffffffffffffffff16815260200190815260200160002080549050811015610a97573373ffffffffffffffffffffffffffffffffffffffff16600260008473ffffffffffffffffffffffffffffffffffffffff1673ffffffffffffffffffffffffffffffffffffffff16815260200190815260200160002082815481106107a0577f4e487b7100000000000000000000000000000000000000000000000000000000600052603260045260246000fd5b9060005260206000200160000160009054906101000a900473ffffffffffffffffffffffffffffffffffffffff1673ffffffffffffffffffffffffffffffffffffffff161415610a845760008190505b6001600260008573ffffffffffffffffffffffffffffffffffffffff1673ffffffffffffffffffffffffffffffffffffffff1681526020019081526020016000208054905061083f919061274d565b8110156109d157600260008473ffffffffffffffffffffffffffffffffffffffff1673ffffffffffffffffffffffffffffffffffffffff1681526020019081526020016000206001826108929190612663565b815481106108c9577f4e487b7100000000000000000000000000000000000000000000000000000000600052603260045260246000fd5b90600052602060002001600260008573ffffffffffffffffffffffffffffffffffffffff1673ffffffffffffffffffffffffffffffffffffffff168152602001908152602001600020828154811061094a577f4e487b7100000000000000000000000000000000000000000000000000000000600052603260045260246000fd5b906000526020600020016000820160009054906101000a900473ffffffffffffffffffffffffffffffffffffffff168160000160006101000a81548173ffffffffffffffffffffffffffffffffffffffff021916908373ffffffffffffffffffffffffffffffffffffffff16021790555090505080806109c9906128c1565b9150506107f0565b50600260008373ffffffffffffffffffffffffffffffffffffffff1673ffffffffffffffffffffffffffffffffffffffff168152602001908152602001600020805480610a47577f4e487b7100000000000000000000000000000000000000000000000000000000600052603160045260246000fd5b60019003818190600052602060002001600080820160006101000a81549073ffffffffffffffffffffffffffffffffffffffff0219169055505090555b8080610a8f906128c1565b9150506106c8565b5050565b6000806000905060005b600160003373ffffffffffffffffffffffffffffffffffffffff1673ffffffffffffffffffffffffffffffffffffffff16815260200190815260200160002080549050811015610be5578373ffffffffffffffffffffffffffffffffffffffff16600160003373ffffffffffffffffffffffffffffffffffffffff1673ffffffffffffffffffffffffffffffffffffffff1681526020019081526020016000208281548110610b7d577f4e487b7100000000000000000000000000000000000000000000000000000000600052603260045260246000fd5b9060005260206000200160000160009054906101000a900473ffffffffffffffffffffffffffffffffffffffff1673ffffffffffffffffffffffffffffffffffffffff161415610bd257600192505050610beb565b8080610bdd906128c1565b915050610aa5565b50809150505b919050565b60606000805b600080549050811015610cc4578373ffffffffffffffffffffffffffffffffffffffff1660008281548110610c54577f4e487b7100000000000000000000000000000000000000000000000000000000600052603260045260246000fd5b906000526020600020906003020160010160009054906101000a900473ffffffffffffffffffffffffffffffffffffffff1673ffffffffffffffffffffffffffffffffffffffff161415610cb1578180610cad906128c1565b9250505b8080610cbc906128c1565b915050610bf6565b5060008167ffffffffffffffff811115610d07577f4e487b7100000000000000000000000000000000000000000000000000000000600052604160045260246000fd5b604051908082528060200260200182016040528015610d4057816020015b610d2d611e91565b815260200190600190039081610d255790505b5090506000806001600080549050610d58919061274d565b90505b80600013610fad578573ffffffffffffffffffffffffffffffffffffffff1660008281548110610db4577f4e487b7100000000000000000000000000000000000000000000000000000000600052603260045260246000fd5b906000526020600020906003020160010160009054906101000a900473ffffffffffffffffffffffffffffffffffffffff1673ffffffffffffffffffffffffffffffffffffffff161415610f9a5760008181548110610e3c577f4e487b7100000000000000000000000000000000000000000000000000000000600052603260045260246000fd5b9060005260206000209060030201604051806060016040529081600082018054610e659061285e565b80601f0160208091040260200160405190810160405280929190818152602001828054610e919061285e565b8015610ede5780601f10610eb357610100808354040283529160200191610ede565b820191906000526020600020905b815481529060010190602001808311610ec157829003601f168201915b505050505081526020016001820160009054906101000a900473ffffffffffffffffffffffffffffffffffffffff1673ffffffffffffffffffffffffffffffffffffffff1673ffffffffffffffffffffffffffffffffffffffff168152602001600282015481525050838381518110610f80577f4e487b7100000000000000000000000000000000000000000000000000000000600052603260045260246000fd5b60200260200101819052508180610f96906128c1565b9250505b8080610fa590612815565b915050610d5b565b50819350505050919050565b60606000831215610fff576040517f08c379a0000000000000000000000000000000000000000000000000000000008152600401610ff69061250e565b60405180910390fd5b60008054905083111561108e57600067ffffffffffffffff81111561104d577f4e487b7100000000000000000000000000000000000000000000000000000000600052604160045260246000fd5b60405190808252806020026020018201604052801561108657816020015b611073611e91565b81526020019060019003908161106b5790505b50905061137c565b60008080549050905060008385836110a691906126b9565b136110bc5784826110b791906126b9565b6110be565b835b905060008167ffffffffffffffff811115611102577f4e487b7100000000000000000000000000000000000000000000000000000000600052604160045260246000fd5b60405190808252806020026020018201604052801561113b57816020015b611128611e91565b8152602001906001900390816111205790505b5090506000806001888561114f91906126b9565b61115991906126b9565b90505b8087898661116a91906126b9565b61117491906126b9565b13611373576001888561118791906126b9565b61119191906126b9565b81131580156111b65750808789866111a991906126b9565b6111b391906126b9565b13155b80156111c3575060008112155b156113605760008181548110611202577f4e487b7100000000000000000000000000000000000000000000000000000000600052603260045260246000fd5b906000526020600020906003020160405180606001604052908160008201805461122b9061285e565b80601f01602080910402602001604051908101604052809291908181526020018280546112579061285e565b80156112a45780601f10611279576101008083540402835291602001916112a4565b820191906000526020600020905b81548152906001019060200180831161128757829003601f168201915b505050505081526020016001820160009054906101000a900473ffffffffffffffffffffffffffffffffffffffff1673ffffffffffffffffffffffffffffffffffffffff1673ffffffffffffffffffffffffffffffffffffffff168152602001600282015481525050838381518110611346577f4e487b7100000000000000000000000000000000000000000000000000000000600052603260045260246000fd5b6020026020010181905250818061135c906128c1565b9250505b808061136b90612815565b91505061115c565b50819450505050505b92915050565b3373ffffffffffffffffffffffffffffffffffffffff168173ffffffffffffffffffffffffffffffffffffffff1614156113f1576040517f08c379a00000000000000000000000000000000000000000000000000000000081526004016113e89061252e565b60405180910390fd5b6000805b600160003373ffffffffffffffffffffffffffffffffffffffff1673ffffffffffffffffffffffffffffffffffffffff1681526020019081526020016000208054905081101561152f578273ffffffffffffffffffffffffffffffffffffffff16600160003373ffffffffffffffffffffffffffffffffffffffff1673ffffffffffffffffffffffffffffffffffffffff16815260200190815260200160002082815481106114cd577f4e487b7100000000000000000000000000000000000000000000000000000000600052603260045260246000fd5b9060005260206000200160000160009054906101000a900473ffffffffffffffffffffffffffffffffffffffff1673ffffffffffffffffffffffffffffffffffffffff16141561151c57600191505b8080611527906128c1565b9150506113f5565b508061160857600160003373ffffffffffffffffffffffffffffffffffffffff1673ffffffffffffffffffffffffffffffffffffffff16815260200190815260200160002060405180602001604052808473ffffffffffffffffffffffffffffffffffffffff168152509080600181540180825580915050600190039060005260206000200160009091909190915060008201518160000160006101000a81548173ffffffffffffffffffffffffffffffffffffffff021916908373ffffffffffffffffffffffffffffffffffffffff16021790555050505b6000905060005b600260008473ffffffffffffffffffffffffffffffffffffffff1673ffffffffffffffffffffffffffffffffffffffff16815260200190815260200160002080549050811015611749573373ffffffffffffffffffffffffffffffffffffffff16600260008573ffffffffffffffffffffffffffffffffffffffff1673ffffffffffffffffffffffffffffffffffffffff16815260200190815260200160002082815481106116e7577f4e487b7100000000000000000000000000000000000000000000000000000000600052603260045260246000fd5b9060005260206000200160000160009054906101000a900473ffffffffffffffffffffffffffffffffffffffff1673ffffffffffffffffffffffffffffffffffffffff16141561173657600191505b8080611741906128c1565b91505061160f565b508061182257600260008373ffffffffffffffffffffffffffffffffffffffff1673ffffffffffffffffffffffffffffffffffffffff16815260200190815260200160002060405180602001604052803373ffffffffffffffffffffffffffffffffffffffff168152509080600181540180825580915050600190039060005260206000200160009091909190915060008201518160000160006101000a81548173ffffffffffffffffffffffffffffffffffffffff021916908373ffffffffffffffffffffffffffffffffffffffff16021790555050505b5050565b600081511161186a576040517f08c379a0000000000000000000000000000000000000000000000000000000008152600401611861906124ce565b60405180910390fd5b60006001905060005b825181101561194d5760008382815181106118b7577f4e487b7100000000000000000000000000000000000000000000000000000000600052603260045260246000fd5b602001015160f81c60f81b90507f20000000000000000000000000000000000000000000000000000000000000007effffffffffffffffffffffffffffffffffffffffffffffffffffffffffffff1916817effffffffffffffffffffffffffffffffffffffffffffffffffffffffffffff19161461193957600092505061194d565b508080611945906128c1565b915050611873565b50801561198f576040517f08c379a00000000000000000000000000000000000000000000000000000000081526004016119869061254e565b60405180910390fd5b600060405180606001604052808481526020013373ffffffffffffffffffffffffffffffffffffffff1681526020014281525090806001815401808255809150506001900390600052602060002090600302016000909190919091506000820151816000019080519060200190611a07929190611ec8565b5060208201518160010160006101000a81548173ffffffffffffffffffffffffffffffffffffffff021916908373ffffffffffffffffffffffffffffffffffffffff1602179055506040820151816002015550505050565b6060600260008373ffffffffffffffffffffffffffffffffffffffff1673ffffffffffffffffffffffffffffffffffffffff168152602001908152602001600020805480602002602001604051908101604052809291908181526020016000905b82821015611b44578382906000526020600020016040518060200160405290816000820160009054906101000a900473ffffffffffffffffffffffffffffffffffffffff1673ffffffffffffffffffffffffffffffffffffffff1673ffffffffffffffffffffffffffffffffffffffff168152505081526020019060010190611ac0565b505050509050919050565b6060600160008373ffffffffffffffffffffffffffffffffffffffff1673ffffffffffffffffffffffffffffffffffffffff168152602001908152602001600020805480602002602001604051908101604052809291908181526020016000905b82821015611c34578382906000526020600020016040518060200160405290816000820160009054906101000a900473ffffffffffffffffffffffffffffffffffffffff1673ffffffffffffffffffffffffffffffffffffffff1673ffffffffffffffffffffffffffffffffffffffff168152505081526020019060010190611bb0565b505050509050919050565b60016020528160005260406000208181548110611c5b57600080fd5b90600052602060002001600091509150508060000160009054906101000a900473ffffffffffffffffffffffffffffffffffffffff16905081565b60008181548110611ca657600080fd5b9060005260206000209060030201600091509050806000018054611cc99061285e565b80601f0160208091040260200160405190810160405280929190818152602001828054611cf59061285e565b8015611d425780601f10611d1757610100808354040283529160200191611d42565b820191906000526020600020905b815481529060010190602001808311611d2557829003601f168201915b5050505050908060010160009054906101000a900473ffffffffffffffffffffffffffffffffffffffff16908060020154905083565b60026020528160005260406000208181548110611d9457600080fd5b90600052602060002001600091509150508060000160009054906101000a900473ffffffffffffffffffffffffffffffffffffffff16905081565b611e6581604051602401611de3919061246e565b6040516020818303038152906040527f41304fac000000000000000000000000000000000000000000000000000000007bffffffffffffffffffffffffffffffffffffffffffffffffffffffff19166020820180517bffffffffffffffffffffffffffffffffffffffffffffffffffffffff8381831617835250505050611e68565b50565b60008151905060006a636f6e736f6c652e6c6f679050602083016000808483855afa5050505050565b604051806060016040528060608152602001600073ffffffffffffffffffffffffffffffffffffffff168152602001600081525090565b828054611ed49061285e565b90600052602060002090601f016020900481019282611ef65760008555611f3d565b82601f10611f0f57805160ff1916838001178555611f3d565b82800160010185558215611f3d579182015b82811115611f3c578251825591602001919060010190611f21565b5b509050611f4a9190611f4e565b5090565b5b80821115611f67576000816000905550600101611f4f565b5090565b6000611f7e611f7984612593565b61256e565b905082815260208101848484011115611f9657600080fd5b611fa18482856127d3565b509392505050565b600081359050611fb881612a9b565b92915050565b600081359050611fcd81612ab2565b92915050565b600082601f830112611fe457600080fd5b8135611ff4848260208601611f6b565b91505092915050565b60008135905061200c81612ac9565b92915050565b60006020828403121561202457600080fd5b600061203284828501611fa9565b91505092915050565b6000806040838503121561204e57600080fd5b600061205c85828601611fa9565b925050602061206d85828601611ffd565b9150509250929050565b6000806040838503121561208a57600080fd5b600061209885828601611fbe565b92505060206120a985828601611fbe565b9150509250929050565b6000602082840312156120c557600080fd5b600082013567ffffffffffffffff8111156120df57600080fd5b6120eb84828501611fd3565b91505092915050565b60006020828403121561210657600080fd5b600061211484828501611ffd565b91505092915050565b6000612129838361236a565b905092915050565b600061213d83836123ba565b60208301905092915050565b61215281612781565b82525050565b61216181612781565b82525050565b6000612172826125e4565b61217c818561261f565b93508360208202850161218e856125c4565b8060005b858110156121ca57848403895281516121ab858261211d565b94506121b683612605565b925060208a01995050600181019050612192565b50829750879550505050505092915050565b60006121e7826125ef565b6121f18185612630565b93506121fc836125d4565b8060005b8381101561222d5781516122148882612131565b975061221f83612612565b925050600181019050612200565b5085935050505092915050565b61224381612793565b82525050565b6000612254826125fa565b61225e8185612641565b935061226e8185602086016127e2565b61227781612997565b840191505092915050565b600061228d826125fa565b6122978185612652565b93506122a78185602086016127e2565b6122b081612997565b840191505092915050565b60006122c8601283612652565b91506122d3826129a8565b602082019050919050565b60006122eb601d83612652565b91506122f6826129d1565b602082019050919050565b600061230e602a83612652565b9150612319826129fa565b604082019050919050565b6000612331601b83612652565b915061233c82612a49565b602082019050919050565b6000612354602083612652565b915061235f82612a72565b602082019050919050565b600060608301600083015184820360008601526123878282612249565b915050602083015161239c6020860182612149565b5060408301516123af60408601826123d6565b508091505092915050565b6020820160008201516123d06000850182612149565b50505050565b6123df816127c9565b82525050565b6123ee816127c9565b82525050565b60006020820190506124096000830184612158565b92915050565b600060208201905081810360008301526124298184612167565b905092915050565b6000602082019050818103600083015261244b81846121dc565b905092915050565b6000602082019050612468600083018461223a565b92915050565b600060208201905081810360008301526124888184612282565b905092915050565b600060608201905081810360008301526124aa8186612282565b90506124b96020830185612158565b6124c660408301846123e5565b949350505050565b600060208201905081810360008301526124e7816122bb565b9050919050565b60006020820190508181036000830152612507816122de565b9050919050565b6000602082019050818103600083015261252781612301565b9050919050565b6000602082019050818103600083015261254781612324565b9050919050565b6000602082019050818103600083015261256781612347565b9050919050565b6000612578612589565b90506125848282612890565b919050565b6000604051905090565b600067ffffffffffffffff8211156125ae576125ad612968565b5b6125b782612997565b9050602081019050919050565b6000819050602082019050919050565b6000819050602082019050919050565b600081519050919050565b600081519050919050565b600081519050919050565b6000602082019050919050565b6000602082019050919050565b600082825260208201905092915050565b600082825260208201905092915050565b600082825260208201905092915050565b600082825260208201905092915050565b600061266e826127c9565b9150612679836127c9565b9250827fffffffffffffffffffffffffffffffffffffffffffffffffffffffffffffffff038211156126ae576126ad61290a565b5b828201905092915050565b60006126c48261279f565b91506126cf8361279f565b9250827f80000000000000000000000000000000000000000000000000000000000000000182126000841215161561270a5761270961290a565b5b827f7fffffffffffffffffffffffffffffffffffffffffffffffffffffffffffffff0182136000841216156127425761274161290a565b5b828203905092915050565b6000612758826127c9565b9150612763836127c9565b9250828210156127765761277561290a565b5b828203905092915050565b600061278c826127a9565b9050919050565b60008115159050919050565b6000819050919050565b600073ffffffffffffffffffffffffffffffffffffffff82169050919050565b6000819050919050565b82818337600083830152505050565b60005b838110156128005780820151818401526020810190506127e5565b8381111561280f576000848401525b50505050565b60006128208261279f565b91507f80000000000000000000000000000000000000000000000000000000000000008214156128535761285261290a565b5b600182039050919050565b6000600282049050600182168061287657607f821691505b6020821081141561288a57612889612939565b5b50919050565b61289982612997565b810181811067ffffffffffffffff821117156128b8576128b7612968565b5b80604052505050565b60006128cc826127c9565b91507fffffffffffffffffffffffffffffffffffffffffffffffffffffffffffffffff8214156128ff576128fe61290a565b5b600182019050919050565b7f4e487b7100000000000000000000000000000000000000000000000000000000600052601160045260246000fd5b7f4e487b7100000000000000000000000000000000000000000000000000000000600052602260045260246000fd5b7f4e487b7100000000000000000000000000000000000000000000000000000000600052604160045260246000fd5b6000601f19601f8301169050919050565b7f547765657420697320746f6f2073686f72740000000000000000000000000000600082015250565b7f596f752063616e6e6f7420756e666f6c6c6f7720796f757273656c662e000000600082015250565b7f4f6666736574206d7573742062652067726561746572207468616e206f72206560008201527f7175616c20746f20302e00000000000000000000000000000000000000000000602082015250565b7f596f752063616e6e6f7420666f6c6c6f7720796f757273656c662e0000000000600082015250565b7f5370616365206f6e6c79207477656574206973206e6f7420616c6c6f7765642e600082015250565b612aa481612781565b8114612aaf57600080fd5b50565b612abb8161279f565b8114612ac657600080fd5b50565b612ad2816127c9565b8114612add57600080fd5b5056fea2646970667358221220aa7263c600489e2fb6825ab24e10988649309dfd26f24f4dc72d9d9ee344d70664736f6c63430008040033",
  "linkReferences": {},
  "deployedLinkReferences": {}
}