{
  "_format": "hh-sol-artifact-1",
  "contractName": "TwitterV2",
  "sourceName": "contracts/TwitterV2.sol",
  "abi": [
    {
      "anonymous": false,
      "inputs": [
        {
          "indexed": true,
          "internalType": "address",
          "name": "sender",
          "type": "address"
        },
        {
          "indexed": false,
          "internalType": "string",
          "name": "tweet",
          "type": "string"
        }
      ],
      "name": "Tweeted",
      "type": "event"
    },
    {
      "inputs": [
        {
          "internalType": "address",
          "name": "_address",
          "type": "address"
        }
      ],
      "name": "follow",
      "outputs": [],
      "stateMutability": "nonpayable",
      "type": "function"
    },
    {
      "inputs": [
        {
          "internalType": "address",
          "name": "",
          "type": "address"
        },
        {
          "internalType": "uint256",
          "name": "",
          "type": "uint256"
        }
      ],
      "name": "followers",
      "outputs": [
        {
          "internalType": "address",
          "name": "id",
          "type": "address"
        }
      ],
      "stateMutability": "view",
      "type": "function"
    },
    {
      "inputs": [
        {
          "internalType": "address",
          "name": "",
          "type": "address"
        },
        {
          "internalType": "uint256",
          "name": "",
          "type": "uint256"
        }
      ],
      "name": "followings",
      "outputs": [
        {
          "internalType": "address",
          "name": "id",
          "type": "address"
        }
      ],
      "stateMutability": "view",
      "type": "function"
    },
    {
      "inputs": [
        {
          "internalType": "address",
          "name": "_address",
          "type": "address"
        }
      ],
      "name": "getFollowers",
      "outputs": [
        {
          "components": [
            {
              "internalType": "address",
              "name": "id",
              "type": "address"
            }
          ],
          "internalType": "struct TwitterV1.User[]",
          "name": "",
          "type": "tuple[]"
        }
      ],
      "stateMutability": "view",
      "type": "function"
    },
    {
      "inputs": [
        {
          "internalType": "address",
          "name": "_address",
          "type": "address"
        }
      ],
      "name": "getFollowings",
      "outputs": [
        {
          "components": [
            {
              "internalType": "address",
              "name": "id",
              "type": "address"
            }
          ],
          "internalType": "struct TwitterV1.User[]",
          "name": "",
          "type": "tuple[]"
        }
      ],
      "stateMutability": "view",
      "type": "function"
    },
    {
      "inputs": [
        {
          "internalType": "int256",
          "name": "offset",
          "type": "int256"
        },
        {
          "internalType": "int256",
          "name": "limit",
          "type": "int256"
        }
      ],
      "name": "getTimeline",
      "outputs": [
        {
          "components": [
            {
              "internalType": "string",
              "name": "content",
              "type": "string"
            },
            {
              "internalType": "address",
              "name": "author",
              "type": "address"
            },
            {
              "internalType": "uint256",
              "name": "timestamp",
              "type": "uint256"
            }
          ],
          "internalType": "struct TwitterV1.Tweet[]",
          "name": "",
          "type": "tuple[]"
        }
      ],
      "stateMutability": "view",
      "type": "function"
    },
    {
      "inputs": [
        {
          "internalType": "address",
          "name": "_address",
          "type": "address"
        }
      ],
      "name": "getUserTweets",
      "outputs": [
        {
          "components": [
            {
              "internalType": "string",
              "name": "content",
              "type": "string"
            },
            {
              "internalType": "address",
              "name": "author",
              "type": "address"
            },
            {
              "internalType": "uint256",
              "name": "timestamp",
              "type": "uint256"
            }
          ],
          "internalType": "struct TwitterV1.Tweet[]",
          "name": "",
          "type": "tuple[]"
        }
      ],
      "stateMutability": "view",
      "type": "function"
    },
    {
      "inputs": [],
      "name": "initialize",
      "outputs": [],
      "stateMutability": "nonpayable",
      "type": "function"
    },
    {
      "inputs": [],
      "name": "initializeV2",
      "outputs": [],
      "stateMutability": "nonpayable",
      "type": "function"
    },
    {
      "inputs": [
        {
          "internalType": "address",
          "name": "_address",
          "type": "address"
        }
      ],
      "name": "isFollowing",
      "outputs": [
        {
          "internalType": "bool",
          "name": "",
          "type": "bool"
        }
      ],
      "stateMutability": "view",
      "type": "function"
    },
    {
      "inputs": [
        {
          "internalType": "string",
          "name": "_tweet",
          "type": "string"
        }
      ],
      "name": "setTweet",
      "outputs": [],
      "stateMutability": "nonpayable",
      "type": "function"
    },
    {
      "inputs": [
        {
          "internalType": "string",
          "name": "_tweet",
          "type": "string"
        }
      ],
      "name": "setTweetV2",
      "outputs": [],
      "stateMutability": "nonpayable",
      "type": "function"
    },
    {
      "inputs": [
        {
          "internalType": "uint256",
          "name": "",
          "type": "uint256"
        }
      ],
      "name": "tweets",
      "outputs": [
        {
          "internalType": "string",
          "name": "content",
          "type": "string"
        },
        {
          "internalType": "address",
          "name": "author",
          "type": "address"
        },
        {
          "internalType": "uint256",
          "name": "timestamp",
          "type": "uint256"
        }
      ],
      "stateMutability": "view",
      "type": "function"
    },
    {
      "inputs": [
        {
          "internalType": "address",
          "name": "_address",
          "type": "address"
        }
      ],
      "name": "unfollow",
      "outputs": [],
      "stateMutability": "nonpayable",
      "type": "function"
    }
  ],
  "bytecode": "0x60806040523480156200001157600080fd5b50600060019054906101000a900460ff168062000039575060008054906101000a900460ff16155b6200007b576040517f08c379a000000000000000000000000000000000000000000000000000000000815260040162000072906200011c565b60405180910390fd5b60008060019054906101000a900460ff161590508015620000cc576001600060016101000a81548160ff02191690831515021790555060016000806101000a81548160ff0219169083151502179055505b8015620000ee5760008060016101000a81548160ff0219169083151502179055505b506200019e565b600062000104602e836200013e565b915062000111826200014f565b604082019050919050565b600060208201905081810360008301526200013781620000f5565b9050919050565b600082825260208201905092915050565b7f496e697469616c697a61626c653a20636f6e747261637420697320616c72656160008201527f647920696e697469616c697a6564000000000000000000000000000000000000602082015250565b612eef80620001ae6000396000f3fe608060405234801561001057600080fd5b50600436106100ea5760003560e01c80635cd8a76b1161008c578063cca22f7911610066578063cca22f7914610233578063dedf1b4a14610263578063e8d857b014610293578063ebd009d3146102c5576100ea565b80635cd8a76b146101ef5780638129fc1c146101f9578063c2fe202214610203576100ea565b80632f5899d7116100c85780632f5899d71461015757806340c184af146101875780634dbf27cc146101b7578063590b5151146101d3576100ea565b8063015a4ead146100ef57806303d158121461010b57806309d4d79614610127575b600080fd5b61010960048036038101906101049190612359565b6102f5565b005b610125600480360381019061012091906123fa565b610b0d565b005b610141600480360381019061013c9190612359565b610d94565b60405161014e91906127bd565b60405180910390f35b610171600480360381019061016c9190612359565b610ee9565b60405161017e9190612779565b60405180910390f35b6101a1600480360381019061019c91906123be565b6112b1565b6040516101ae9190612779565b60405180910390f35b6101d160048036038101906101cc9190612359565b61167b565b005b6101ed60048036038101906101e891906123fa565b611b1f565b005b6101f7611d58565b005b610201611d8f565b005b61021d60048036038101906102189190612359565b611e68565b60405161022a919061279b565b60405180910390f35b61024d60048036038101906102489190612359565b611f58565b60405161025a919061279b565b60405180910390f35b61027d60048036038101906102789190612382565b612048565b60405161028a919061275e565b60405180910390f35b6102ad60048036038101906102a8919061243b565b61209f565b6040516102bc939291906127fa565b60405180910390f35b6102df60048036038101906102da9190612382565b612181565b6040516102ec919061275e565b60405180910390f35b3373ffffffffffffffffffffffffffffffffffffffff168173ffffffffffffffffffffffffffffffffffffffff161415610364576040517f08c379a000000000000000000000000000000000000000000000000000000000815260040161035b90612858565b60405180910390fd5b60005b600260003373ffffffffffffffffffffffffffffffffffffffff1673ffffffffffffffffffffffffffffffffffffffff16815260200190815260200160002080549050811015610736578173ffffffffffffffffffffffffffffffffffffffff16600260003373ffffffffffffffffffffffffffffffffffffffff1673ffffffffffffffffffffffffffffffffffffffff168152602001908152602001600020828154811061043f577f4e487b7100000000000000000000000000000000000000000000000000000000600052603260045260246000fd5b9060005260206000200160000160009054906101000a900473ffffffffffffffffffffffffffffffffffffffff1673ffffffffffffffffffffffffffffffffffffffff1614156107235760008190505b6001600260003373ffffffffffffffffffffffffffffffffffffffff1673ffffffffffffffffffffffffffffffffffffffff168152602001908152602001600020805490506104de9190612ad7565b81101561067057600260003373ffffffffffffffffffffffffffffffffffffffff1673ffffffffffffffffffffffffffffffffffffffff16815260200190815260200160002060018261053191906129ed565b81548110610568577f4e487b7100000000000000000000000000000000000000000000000000000000600052603260045260246000fd5b90600052602060002001600260003373ffffffffffffffffffffffffffffffffffffffff1673ffffffffffffffffffffffffffffffffffffffff16815260200190815260200160002082815481106105e9577f4e487b7100000000000000000000000000000000000000000000000000000000600052603260045260246000fd5b906000526020600020016000820160009054906101000a900473ffffffffffffffffffffffffffffffffffffffff168160000160006101000a81548173ffffffffffffffffffffffffffffffffffffffff021916908373ffffffffffffffffffffffffffffffffffffffff160217905550905050808061066890612c4b565b91505061048f565b50600260003373ffffffffffffffffffffffffffffffffffffffff1673ffffffffffffffffffffffffffffffffffffffff1681526020019081526020016000208054806106e6577f4e487b7100000000000000000000000000000000000000000000000000000000600052603160045260246000fd5b60019003818190600052602060002001600080820160006101000a81549073ffffffffffffffffffffffffffffffffffffffff0219169055505090555b808061072e90612c4b565b915050610367565b5060005b600360008373ffffffffffffffffffffffffffffffffffffffff1673ffffffffffffffffffffffffffffffffffffffff16815260200190815260200160002080549050811015610b09573373ffffffffffffffffffffffffffffffffffffffff16600360008473ffffffffffffffffffffffffffffffffffffffff1673ffffffffffffffffffffffffffffffffffffffff1681526020019081526020016000208281548110610812577f4e487b7100000000000000000000000000000000000000000000000000000000600052603260045260246000fd5b9060005260206000200160000160009054906101000a900473ffffffffffffffffffffffffffffffffffffffff1673ffffffffffffffffffffffffffffffffffffffff161415610af65760008190505b6001600360008573ffffffffffffffffffffffffffffffffffffffff1673ffffffffffffffffffffffffffffffffffffffff168152602001908152602001600020805490506108b19190612ad7565b811015610a4357600360008473ffffffffffffffffffffffffffffffffffffffff1673ffffffffffffffffffffffffffffffffffffffff16815260200190815260200160002060018261090491906129ed565b8154811061093b577f4e487b7100000000000000000000000000000000000000000000000000000000600052603260045260246000fd5b90600052602060002001600360008573ffffffffffffffffffffffffffffffffffffffff1673ffffffffffffffffffffffffffffffffffffffff16815260200190815260200160002082815481106109bc577f4e487b7100000000000000000000000000000000000000000000000000000000600052603260045260246000fd5b906000526020600020016000820160009054906101000a900473ffffffffffffffffffffffffffffffffffffffff168160000160006101000a81548173ffffffffffffffffffffffffffffffffffffffff021916908373ffffffffffffffffffffffffffffffffffffffff1602179055509050508080610a3b90612c4b565b915050610862565b50600360008373ffffffffffffffffffffffffffffffffffffffff1673ffffffffffffffffffffffffffffffffffffffff168152602001908152602001600020805480610ab9577f4e487b7100000000000000000000000000000000000000000000000000000000600052603160045260246000fd5b60019003818190600052602060002001600080820160006101000a81549073ffffffffffffffffffffffffffffffffffffffff0219169055505090555b8080610b0190612c4b565b91505061073a565b5050565b6000815111610b51576040517f08c379a0000000000000000000000000000000000000000000000000000000008152600401610b4890612838565b60405180910390fd5b60006001905060005b8251811015610c34576000838281518110610b9e577f4e487b7100000000000000000000000000000000000000000000000000000000600052603260045260246000fd5b602001015160f81c60f81b90507f20000000000000000000000000000000000000000000000000000000000000007effffffffffffffffffffffffffffffffffffffffffffffffffffffffffffff1916817effffffffffffffffffffffffffffffffffffffffffffffffffffffffffffff191614610c20576000925050610c34565b508080610c2c90612c4b565b915050610b5a565b508015610c76576040517f08c379a0000000000000000000000000000000000000000000000000000000008152600401610c6d906128d8565b60405180910390fd5b600160405180606001604052808481526020013373ffffffffffffffffffffffffffffffffffffffff1681526020014281525090806001815401808255809150506001900390600052602060002090600302016000909190919091506000820151816000019080519060200190610cee9291906121d8565b5060208201518160010160006101000a81548173ffffffffffffffffffffffffffffffffffffffff021916908373ffffffffffffffffffffffffffffffffffffffff1602179055506040820151816002015550503373ffffffffffffffffffffffffffffffffffffffff167fed917e0e51bb528b7fef2750065cd119dddd8e8fa54f38a656d4107e7c14f37a83604051610d8891906127d8565b60405180910390a25050565b6000806000905060005b600260003373ffffffffffffffffffffffffffffffffffffffff1673ffffffffffffffffffffffffffffffffffffffff16815260200190815260200160002080549050811015610ede578373ffffffffffffffffffffffffffffffffffffffff16600260003373ffffffffffffffffffffffffffffffffffffffff1673ffffffffffffffffffffffffffffffffffffffff1681526020019081526020016000208281548110610e76577f4e487b7100000000000000000000000000000000000000000000000000000000600052603260045260246000fd5b9060005260206000200160000160009054906101000a900473ffffffffffffffffffffffffffffffffffffffff1673ffffffffffffffffffffffffffffffffffffffff161415610ecb57600192505050610ee4565b8080610ed690612c4b565b915050610d9e565b50809150505b919050565b60606000805b600180549050811015610fbd578373ffffffffffffffffffffffffffffffffffffffff1660018281548110610f4d577f4e487b7100000000000000000000000000000000000000000000000000000000600052603260045260246000fd5b906000526020600020906003020160010160009054906101000a900473ffffffffffffffffffffffffffffffffffffffff1673ffffffffffffffffffffffffffffffffffffffff161415610faa578180610fa690612c4b565b9250505b8080610fb590612c4b565b915050610eef565b5060008167ffffffffffffffff811115611000577f4e487b7100000000000000000000000000000000000000000000000000000000600052604160045260246000fd5b60405190808252806020026020018201604052801561103957816020015b61102661225e565b81526020019060019003908161101e5790505b509050600080600180805490506110509190612ad7565b90505b806000136112a5578573ffffffffffffffffffffffffffffffffffffffff16600182815481106110ac577f4e487b7100000000000000000000000000000000000000000000000000000000600052603260045260246000fd5b906000526020600020906003020160010160009054906101000a900473ffffffffffffffffffffffffffffffffffffffff1673ffffffffffffffffffffffffffffffffffffffff1614156112925760018181548110611134577f4e487b7100000000000000000000000000000000000000000000000000000000600052603260045260246000fd5b906000526020600020906003020160405180606001604052908160008201805461115d90612be8565b80601f016020809104026020016040519081016040528092919081815260200182805461118990612be8565b80156111d65780601f106111ab576101008083540402835291602001916111d6565b820191906000526020600020905b8154815290600101906020018083116111b957829003601f168201915b505050505081526020016001820160009054906101000a900473ffffffffffffffffffffffffffffffffffffffff1673ffffffffffffffffffffffffffffffffffffffff1673ffffffffffffffffffffffffffffffffffffffff168152602001600282015481525050838381518110611278577f4e487b7100000000000000000000000000000000000000000000000000000000600052603260045260246000fd5b6020026020010181905250818061128e90612c4b565b9250505b808061129d90612b9f565b915050611053565b50819350505050919050565b606060008312156112f7576040517f08c379a00000000000000000000000000000000000000000000000000000000081526004016112ee90612898565b60405180910390fd5b60018054905083111561138657600067ffffffffffffffff811115611345577f4e487b7100000000000000000000000000000000000000000000000000000000600052604160045260246000fd5b60405190808252806020026020018201604052801561137e57816020015b61136b61225e565b8152602001906001900390816113635790505b509050611675565b60006001805490509050600083858361139f9190612a43565b136113b55784826113b09190612a43565b6113b7565b835b905060008167ffffffffffffffff8111156113fb577f4e487b7100000000000000000000000000000000000000000000000000000000600052604160045260246000fd5b60405190808252806020026020018201604052801561143457816020015b61142161225e565b8152602001906001900390816114195790505b509050600080600188856114489190612a43565b6114529190612a43565b90505b808789866114639190612a43565b61146d9190612a43565b1361166c57600188856114809190612a43565b61148a9190612a43565b81131580156114af5750808789866114a29190612a43565b6114ac9190612a43565b13155b80156114bc575060008112155b1561165957600181815481106114fb577f4e487b7100000000000000000000000000000000000000000000000000000000600052603260045260246000fd5b906000526020600020906003020160405180606001604052908160008201805461152490612be8565b80601f016020809104026020016040519081016040528092919081815260200182805461155090612be8565b801561159d5780601f106115725761010080835404028352916020019161159d565b820191906000526020600020905b81548152906001019060200180831161158057829003601f168201915b505050505081526020016001820160009054906101000a900473ffffffffffffffffffffffffffffffffffffffff1673ffffffffffffffffffffffffffffffffffffffff1673ffffffffffffffffffffffffffffffffffffffff16815260200160028201548152505083838151811061163f577f4e487b7100000000000000000000000000000000000000000000000000000000600052603260045260246000fd5b6020026020010181905250818061165590612c4b565b9250505b808061166490612b9f565b915050611455565b50819450505050505b92915050565b3373ffffffffffffffffffffffffffffffffffffffff168173ffffffffffffffffffffffffffffffffffffffff1614156116ea576040517f08c379a00000000000000000000000000000000000000000000000000000000081526004016116e1906128b8565b60405180910390fd5b6000805b600260003373ffffffffffffffffffffffffffffffffffffffff1673ffffffffffffffffffffffffffffffffffffffff16815260200190815260200160002080549050811015611828578273ffffffffffffffffffffffffffffffffffffffff16600260003373ffffffffffffffffffffffffffffffffffffffff1673ffffffffffffffffffffffffffffffffffffffff16815260200190815260200160002082815481106117c6577f4e487b7100000000000000000000000000000000000000000000000000000000600052603260045260246000fd5b9060005260206000200160000160009054906101000a900473ffffffffffffffffffffffffffffffffffffffff1673ffffffffffffffffffffffffffffffffffffffff16141561181557600191505b808061182090612c4b565b9150506116ee565b508061190157600260003373ffffffffffffffffffffffffffffffffffffffff1673ffffffffffffffffffffffffffffffffffffffff16815260200190815260200160002060405180602001604052808473ffffffffffffffffffffffffffffffffffffffff168152509080600181540180825580915050600190039060005260206000200160009091909190915060008201518160000160006101000a81548173ffffffffffffffffffffffffffffffffffffffff021916908373ffffffffffffffffffffffffffffffffffffffff16021790555050505b6000905060005b600360008473ffffffffffffffffffffffffffffffffffffffff1673ffffffffffffffffffffffffffffffffffffffff16815260200190815260200160002080549050811015611a42573373ffffffffffffffffffffffffffffffffffffffff16600360008573ffffffffffffffffffffffffffffffffffffffff1673ffffffffffffffffffffffffffffffffffffffff16815260200190815260200160002082815481106119e0577f4e487b7100000000000000000000000000000000000000000000000000000000600052603260045260246000fd5b9060005260206000200160000160009054906101000a900473ffffffffffffffffffffffffffffffffffffffff1673ffffffffffffffffffffffffffffffffffffffff161415611a2f57600191505b8080611a3a90612c4b565b915050611908565b5080611b1b57600360008373ffffffffffffffffffffffffffffffffffffffff1673ffffffffffffffffffffffffffffffffffffffff16815260200190815260200160002060405180602001604052803373ffffffffffffffffffffffffffffffffffffffff168152509080600181540180825580915050600190039060005260206000200160009091909190915060008201518160000160006101000a81548173ffffffffffffffffffffffffffffffffffffffff021916908373ffffffffffffffffffffffffffffffffffffffff16021790555050505b5050565b6000815111611b63576040517f08c379a0000000000000000000000000000000000000000000000000000000008152600401611b5a90612838565b60405180910390fd5b60006001905060005b8251811015611c46576000838281518110611bb0577f4e487b7100000000000000000000000000000000000000000000000000000000600052603260045260246000fd5b602001015160f81c60f81b90507f20000000000000000000000000000000000000000000000000000000000000007effffffffffffffffffffffffffffffffffffffffffffffffffffffffffffff1916817effffffffffffffffffffffffffffffffffffffffffffffffffffffffffffff191614611c32576000925050611c46565b508080611c3e90612c4b565b915050611b6c565b508015611c88576040517f08c379a0000000000000000000000000000000000000000000000000000000008152600401611c7f906128d8565b60405180910390fd5b600160405180606001604052808481526020013373ffffffffffffffffffffffffffffffffffffffff1681526020014281525090806001815401808255809150506001900390600052602060002090600302016000909190919091506000820151816000019080519060200190611d009291906121d8565b5060208201518160010160006101000a81548173ffffffffffffffffffffffffffffffffffffffff021916908373ffffffffffffffffffffffffffffffffffffffff1602179055506040820151816002015550505050565b600460009054906101000a900460ff1615611d7257600080fd5b6001600460006101000a81548160ff021916908315150217905550565b600060019054906101000a900460ff1680611db5575060008054906101000a900460ff16155b611df4576040517f08c379a0000000000000000000000000000000000000000000000000000000008152600401611deb90612878565b60405180910390fd5b60008060019054906101000a900460ff161590508015611e44576001600060016101000a81548160ff02191690831515021790555060016000806101000a81548160ff0219169083151502179055505b8015611e655760008060016101000a81548160ff0219169083151502179055505b50565b6060600360008373ffffffffffffffffffffffffffffffffffffffff1673ffffffffffffffffffffffffffffffffffffffff168152602001908152602001600020805480602002602001604051908101604052809291908181526020016000905b82821015611f4d578382906000526020600020016040518060200160405290816000820160009054906101000a900473ffffffffffffffffffffffffffffffffffffffff1673ffffffffffffffffffffffffffffffffffffffff1673ffffffffffffffffffffffffffffffffffffffff168152505081526020019060010190611ec9565b505050509050919050565b6060600260008373ffffffffffffffffffffffffffffffffffffffff1673ffffffffffffffffffffffffffffffffffffffff168152602001908152602001600020805480602002602001604051908101604052809291908181526020016000905b8282101561203d578382906000526020600020016040518060200160405290816000820160009054906101000a900473ffffffffffffffffffffffffffffffffffffffff1673ffffffffffffffffffffffffffffffffffffffff1673ffffffffffffffffffffffffffffffffffffffff168152505081526020019060010190611fb9565b505050509050919050565b6002602052816000526040600020818154811061206457600080fd5b90600052602060002001600091509150508060000160009054906101000a900473ffffffffffffffffffffffffffffffffffffffff16905081565b600181815481106120af57600080fd5b90600052602060002090600302016000915090508060000180546120d290612be8565b80601f01602080910402602001604051908101604052809291908181526020018280546120fe90612be8565b801561214b5780601f106121205761010080835404028352916020019161214b565b820191906000526020600020905b81548152906001019060200180831161212e57829003601f168201915b5050505050908060010160009054906101000a900473ffffffffffffffffffffffffffffffffffffffff16908060020154905083565b6003602052816000526040600020818154811061219d57600080fd5b90600052602060002001600091509150508060000160009054906101000a900473ffffffffffffffffffffffffffffffffffffffff16905081565b8280546121e490612be8565b90600052602060002090601f016020900481019282612206576000855561224d565b82601f1061221f57805160ff191683800117855561224d565b8280016001018555821561224d579182015b8281111561224c578251825591602001919060010190612231565b5b50905061225a9190612295565b5090565b604051806060016040528060608152602001600073ffffffffffffffffffffffffffffffffffffffff168152602001600081525090565b5b808211156122ae576000816000905550600101612296565b5090565b60006122c56122c08461291d565b6128f8565b9050828152602081018484840111156122dd57600080fd5b6122e8848285612b5d565b509392505050565b6000813590506122ff81612e74565b92915050565b60008135905061231481612e8b565b92915050565b600082601f83011261232b57600080fd5b813561233b8482602086016122b2565b91505092915050565b60008135905061235381612ea2565b92915050565b60006020828403121561236b57600080fd5b6000612379848285016122f0565b91505092915050565b6000806040838503121561239557600080fd5b60006123a3858286016122f0565b92505060206123b485828601612344565b9150509250929050565b600080604083850312156123d157600080fd5b60006123df85828601612305565b92505060206123f085828601612305565b9150509250929050565b60006020828403121561240c57600080fd5b600082013567ffffffffffffffff81111561242657600080fd5b6124328482850161231a565b91505092915050565b60006020828403121561244d57600080fd5b600061245b84828501612344565b91505092915050565b600061247083836126d4565b905092915050565b60006124848383612724565b60208301905092915050565b61249981612b0b565b82525050565b6124a881612b0b565b82525050565b60006124b98261296e565b6124c381856129a9565b9350836020820285016124d58561294e565b8060005b8581101561251157848403895281516124f28582612464565b94506124fd8361298f565b925060208a019950506001810190506124d9565b50829750879550505050505092915050565b600061252e82612979565b61253881856129ba565b93506125438361295e565b8060005b8381101561257457815161255b8882612478565b97506125668361299c565b925050600181019050612547565b5085935050505092915050565b61258a81612b1d565b82525050565b600061259b82612984565b6125a581856129cb565b93506125b5818560208601612b6c565b6125be81612d21565b840191505092915050565b60006125d482612984565b6125de81856129dc565b93506125ee818560208601612b6c565b6125f781612d21565b840191505092915050565b600061260f6012836129dc565b915061261a82612d32565b602082019050919050565b6000612632601d836129dc565b915061263d82612d5b565b602082019050919050565b6000612655602e836129dc565b915061266082612d84565b604082019050919050565b6000612678602a836129dc565b915061268382612dd3565b604082019050919050565b600061269b601b836129dc565b91506126a682612e22565b602082019050919050565b60006126be6020836129dc565b91506126c982612e4b565b602082019050919050565b600060608301600083015184820360008601526126f18282612590565b91505060208301516127066020860182612490565b5060408301516127196040860182612740565b508091505092915050565b60208201600082015161273a6000850182612490565b50505050565b61274981612b53565b82525050565b61275881612b53565b82525050565b6000602082019050612773600083018461249f565b92915050565b6000602082019050818103600083015261279381846124ae565b905092915050565b600060208201905081810360008301526127b58184612523565b905092915050565b60006020820190506127d26000830184612581565b92915050565b600060208201905081810360008301526127f281846125c9565b905092915050565b6000606082019050818103600083015261281481866125c9565b9050612823602083018561249f565b612830604083018461274f565b949350505050565b6000602082019050818103600083015261285181612602565b9050919050565b6000602082019050818103600083015261287181612625565b9050919050565b6000602082019050818103600083015261289181612648565b9050919050565b600060208201905081810360008301526128b18161266b565b9050919050565b600060208201905081810360008301526128d18161268e565b9050919050565b600060208201905081810360008301526128f1816126b1565b9050919050565b6000612902612913565b905061290e8282612c1a565b919050565b6000604051905090565b600067ffffffffffffffff82111561293857612937612cf2565b5b61294182612d21565b9050602081019050919050565b6000819050602082019050919050565b6000819050602082019050919050565b600081519050919050565b600081519050919050565b600081519050919050565b6000602082019050919050565b6000602082019050919050565b600082825260208201905092915050565b600082825260208201905092915050565b600082825260208201905092915050565b600082825260208201905092915050565b60006129f882612b53565b9150612a0383612b53565b9250827fffffffffffffffffffffffffffffffffffffffffffffffffffffffffffffffff03821115612a3857612a37612c94565b5b828201905092915050565b6000612a4e82612b29565b9150612a5983612b29565b9250827f800000000000000000000000000000000000000000000000000000000000000001821260008412151615612a9457612a93612c94565b5b827f7fffffffffffffffffffffffffffffffffffffffffffffffffffffffffffffff018213600084121615612acc57612acb612c94565b5b828203905092915050565b6000612ae282612b53565b9150612aed83612b53565b925082821015612b0057612aff612c94565b5b828203905092915050565b6000612b1682612b33565b9050919050565b60008115159050919050565b6000819050919050565b600073ffffffffffffffffffffffffffffffffffffffff82169050919050565b6000819050919050565b82818337600083830152505050565b60005b83811015612b8a578082015181840152602081019050612b6f565b83811115612b99576000848401525b50505050565b6000612baa82612b29565b91507f8000000000000000000000000000000000000000000000000000000000000000821415612bdd57612bdc612c94565b5b600182039050919050565b60006002820490506001821680612c0057607f821691505b60208210811415612c1457612c13612cc3565b5b50919050565b612c2382612d21565b810181811067ffffffffffffffff82111715612c4257612c41612cf2565b5b80604052505050565b6000612c5682612b53565b91507fffffffffffffffffffffffffffffffffffffffffffffffffffffffffffffffff821415612c8957612c88612c94565b5b600182019050919050565b7f4e487b7100000000000000000000000000000000000000000000000000000000600052601160045260246000fd5b7f4e487b7100000000000000000000000000000000000000000000000000000000600052602260045260246000fd5b7f4e487b7100000000000000000000000000000000000000000000000000000000600052604160045260246000fd5b6000601f19601f8301169050919050565b7f547765657420697320746f6f2073686f72740000000000000000000000000000600082015250565b7f596f752063616e6e6f7420756e666f6c6c6f7720796f757273656c662e000000600082015250565b7f496e697469616c697a61626c653a20636f6e747261637420697320616c72656160008201527f647920696e697469616c697a6564000000000000000000000000000000000000602082015250565b7f4f6666736574206d7573742062652067726561746572207468616e206f72206560008201527f7175616c20746f20302e00000000000000000000000000000000000000000000602082015250565b7f596f752063616e6e6f7420666f6c6c6f7720796f757273656c662e0000000000600082015250565b7f5370616365206f6e6c79207477656574206973206e6f7420616c6c6f7765642e600082015250565b612e7d81612b0b565b8114612e8857600080fd5b50565b612e9481612b29565b8114612e9f57600080fd5b50565b612eab81612b53565b8114612eb657600080fd5b5056fea264697066735822122095811b0594e8c674ff762cd86b48aad2d4eec97a0898cf9c44818b44474b4c3c64736f6c63430008040033",
  "linkReferences": {},
  "deployedLinkReferences": {}
}