{
  "_format": "hh-sol-artifact-1",
  "contractName": "TwitterV1",
  "sourceName": "contracts/TwitterV1.sol",
  "abi": [
    {
      "inputs": [],
      "stateMutability": "nonpayable",
      "type": "constructor"
    },
    {
      "anonymous": false,
      "inputs": [
        {
          "indexed": true,
          "internalType": "address",
          "name": "sender",
          "type": "address"
        },
        {
          "indexed": false,
          "internalType": "string",
          "name": "tweet",
          "type": "string"
        }
      ],
      "name": "Tweeted",
      "type": "event"
    },
    {
      "inputs": [
        {
          "internalType": "address",
          "name": "_address",
          "type": "address"
        }
      ],
      "name": "follow",
      "outputs": [],
      "stateMutability": "nonpayable",
      "type": "function"
    },
    {
      "inputs": [
        {
          "internalType": "address",
          "name": "",
          "type": "address"
        },
        {
          "internalType": "uint256",
          "name": "",
          "type": "uint256"
        }
      ],
      "name": "followers",
      "outputs": [
        {
          "internalType": "address",
          "name": "id",
          "type": "address"
        }
      ],
      "stateMutability": "view",
      "type": "function"
    },
    {
      "inputs": [
        {
          "internalType": "address",
          "name": "",
          "type": "address"
        },
        {
          "internalType": "uint256",
          "name": "",
          "type": "uint256"
        }
      ],
      "name": "followings",
      "outputs": [
        {
          "internalType": "address",
          "name": "id",
          "type": "address"
        }
      ],
      "stateMutability": "view",
      "type": "function"
    },
    {
      "inputs": [
        {
          "internalType": "address",
          "name": "_address",
          "type": "address"
        }
      ],
      "name": "getFollowers",
      "outputs": [
        {
          "components": [
            {
              "internalType": "address",
              "name": "id",
              "type": "address"
            }
          ],
          "internalType": "struct TwitterV1.User[]",
          "name": "",
          "type": "tuple[]"
        }
      ],
      "stateMutability": "view",
      "type": "function"
    },
    {
      "inputs": [
        {
          "internalType": "address",
          "name": "_address",
          "type": "address"
        }
      ],
      "name": "getFollowings",
      "outputs": [
        {
          "components": [
            {
              "internalType": "address",
              "name": "id",
              "type": "address"
            }
          ],
          "internalType": "struct TwitterV1.User[]",
          "name": "",
          "type": "tuple[]"
        }
      ],
      "stateMutability": "view",
      "type": "function"
    },
    {
      "inputs": [
        {
          "internalType": "int256",
          "name": "offset",
          "type": "int256"
        },
        {
          "internalType": "int256",
          "name": "limit",
          "type": "int256"
        }
      ],
      "name": "getTimeline",
      "outputs": [
        {
          "components": [
            {
              "internalType": "string",
              "name": "content",
              "type": "string"
            },
            {
              "internalType": "address",
              "name": "author",
              "type": "address"
            },
            {
              "internalType": "uint256",
              "name": "timestamp",
              "type": "uint256"
            },
            {
              "internalType": "string",
              "name": "attachment",
              "type": "string"
            }
          ],
          "internalType": "struct TwitterV1.Tweet[]",
          "name": "",
          "type": "tuple[]"
        }
      ],
      "stateMutability": "view",
      "type": "function"
    },
    {
      "inputs": [
        {
          "internalType": "address",
          "name": "_address",
          "type": "address"
        }
      ],
      "name": "getUserTweets",
      "outputs": [
        {
          "components": [
            {
              "internalType": "string",
              "name": "content",
              "type": "string"
            },
            {
              "internalType": "address",
              "name": "author",
              "type": "address"
            },
            {
              "internalType": "uint256",
              "name": "timestamp",
              "type": "uint256"
            },
            {
              "internalType": "string",
              "name": "attachment",
              "type": "string"
            }
          ],
          "internalType": "struct TwitterV1.Tweet[]",
          "name": "",
          "type": "tuple[]"
        }
      ],
      "stateMutability": "view",
      "type": "function"
    },
    {
      "inputs": [],
      "name": "initialize",
      "outputs": [],
      "stateMutability": "nonpayable",
      "type": "function"
    },
    {
      "inputs": [
        {
          "internalType": "address",
          "name": "_address",
          "type": "address"
        }
      ],
      "name": "isFollowing",
      "outputs": [
        {
          "internalType": "bool",
          "name": "",
          "type": "bool"
        }
      ],
      "stateMutability": "view",
      "type": "function"
    },
    {
      "inputs": [
        {
          "internalType": "string",
          "name": "_tweet",
          "type": "string"
        },
        {
          "internalType": "string",
          "name": "_imageData",
          "type": "string"
        }
      ],
      "name": "setTweet",
      "outputs": [],
      "stateMutability": "nonpayable",
      "type": "function"
    },
    {
      "inputs": [
        {
          "internalType": "uint256",
          "name": "",
          "type": "uint256"
        }
      ],
      "name": "tweets",
      "outputs": [
        {
          "internalType": "string",
          "name": "content",
          "type": "string"
        },
        {
          "internalType": "address",
          "name": "author",
          "type": "address"
        },
        {
          "internalType": "uint256",
          "name": "timestamp",
          "type": "uint256"
        },
        {
          "internalType": "string",
          "name": "attachment",
          "type": "string"
        }
      ],
      "stateMutability": "view",
      "type": "function"
    },
    {
      "inputs": [
        {
          "internalType": "address",
          "name": "_address",
          "type": "address"
        }
      ],
      "name": "unfollow",
      "outputs": [],
      "stateMutability": "nonpayable",
      "type": "function"
    }
  ],
  "bytecode": "0x60806040523480156200001157600080fd5b50600060019054906101000a900460ff168062000039575060008054906101000a900460ff16155b6200007b576040517f08c379a000000000000000000000000000000000000000000000000000000000815260040162000072906200011c565b60405180910390fd5b60008060019054906101000a900460ff161590508015620000cc576001600060016101000a81548160ff02191690831515021790555060016000806101000a81548160ff0219169083151502179055505b8015620000ee5760008060016101000a81548160ff0219169083151502179055505b506200019e565b600062000104602e836200013e565b915062000111826200014f565b604082019050919050565b600060208201905081810360008301526200013781620000f5565b9050919050565b600082825260208201905092915050565b7f496e697469616c697a61626c653a20636f6e747261637420697320616c72656160008201527f647920696e697469616c697a6564000000000000000000000000000000000000602082015250565b612f6980620001ae6000396000f3fe608060405234801561001057600080fd5b50600436106100b45760003560e01c8063c2fe202211610071578063c2fe20221461018b578063cca22f79146101bb578063de440e0e146101eb578063dedf1b4a14610207578063e8d857b014610237578063ebd009d31461026a576100b4565b8063015a4ead146100b957806309d4d796146100d55780632f5899d71461010557806340c184af146101355780634dbf27cc146101655780638129fc1c14610181575b600080fd5b6100d360048036038101906100ce9190612379565b61029a565b005b6100ef60048036038101906100ea9190612379565b610ab2565b6040516100fc9190612822565b60405180910390f35b61011f600480360381019061011a9190612379565b610c07565b60405161012c91906127de565b60405180910390f35b61014f600480360381019061014a91906123de565b611061565b60405161015c91906127de565b60405180910390f35b61017f600480360381019061017a9190612379565b6114bd565b005b610189611961565b005b6101a560048036038101906101a09190612379565b611a3a565b6040516101b29190612800565b60405180910390f35b6101d560048036038101906101d09190612379565b611b2a565b6040516101e29190612800565b60405180910390f35b6102056004803603810190610200919061241a565b611c1a565b005b610221600480360381019061021c91906123a2565b611fd3565b60405161022e91906127c3565b60405180910390f35b610251600480360381019061024c9190612486565b61202a565b604051610261949392919061285f565b60405180910390f35b610284600480360381019061027f91906123a2565b61219a565b60405161029191906127c3565b60405180910390f35b3373ffffffffffffffffffffffffffffffffffffffff168173ffffffffffffffffffffffffffffffffffffffff161415610309576040517f08c379a0000000000000000000000000000000000000000000000000000000008152600401610300906128d2565b60405180910390fd5b60005b600260003373ffffffffffffffffffffffffffffffffffffffff1673ffffffffffffffffffffffffffffffffffffffff168152602001908152602001600020805490508110156106db578173ffffffffffffffffffffffffffffffffffffffff16600260003373ffffffffffffffffffffffffffffffffffffffff1673ffffffffffffffffffffffffffffffffffffffff16815260200190815260200160002082815481106103e4577f4e487b7100000000000000000000000000000000000000000000000000000000600052603260045260246000fd5b9060005260206000200160000160009054906101000a900473ffffffffffffffffffffffffffffffffffffffff1673ffffffffffffffffffffffffffffffffffffffff1614156106c85760008190505b6001600260003373ffffffffffffffffffffffffffffffffffffffff1673ffffffffffffffffffffffffffffffffffffffff168152602001908152602001600020805490506104839190612b51565b81101561061557600260003373ffffffffffffffffffffffffffffffffffffffff1673ffffffffffffffffffffffffffffffffffffffff1681526020019081526020016000206001826104d69190612a67565b8154811061050d577f4e487b7100000000000000000000000000000000000000000000000000000000600052603260045260246000fd5b90600052602060002001600260003373ffffffffffffffffffffffffffffffffffffffff1673ffffffffffffffffffffffffffffffffffffffff168152602001908152602001600020828154811061058e577f4e487b7100000000000000000000000000000000000000000000000000000000600052603260045260246000fd5b906000526020600020016000820160009054906101000a900473ffffffffffffffffffffffffffffffffffffffff168160000160006101000a81548173ffffffffffffffffffffffffffffffffffffffff021916908373ffffffffffffffffffffffffffffffffffffffff160217905550905050808061060d90612cc5565b915050610434565b50600260003373ffffffffffffffffffffffffffffffffffffffff1673ffffffffffffffffffffffffffffffffffffffff16815260200190815260200160002080548061068b577f4e487b7100000000000000000000000000000000000000000000000000000000600052603160045260246000fd5b60019003818190600052602060002001600080820160006101000a81549073ffffffffffffffffffffffffffffffffffffffff0219169055505090555b80806106d390612cc5565b91505061030c565b5060005b600360008373ffffffffffffffffffffffffffffffffffffffff1673ffffffffffffffffffffffffffffffffffffffff16815260200190815260200160002080549050811015610aae573373ffffffffffffffffffffffffffffffffffffffff16600360008473ffffffffffffffffffffffffffffffffffffffff1673ffffffffffffffffffffffffffffffffffffffff16815260200190815260200160002082815481106107b7577f4e487b7100000000000000000000000000000000000000000000000000000000600052603260045260246000fd5b9060005260206000200160000160009054906101000a900473ffffffffffffffffffffffffffffffffffffffff1673ffffffffffffffffffffffffffffffffffffffff161415610a9b5760008190505b6001600360008573ffffffffffffffffffffffffffffffffffffffff1673ffffffffffffffffffffffffffffffffffffffff168152602001908152602001600020805490506108569190612b51565b8110156109e857600360008473ffffffffffffffffffffffffffffffffffffffff1673ffffffffffffffffffffffffffffffffffffffff1681526020019081526020016000206001826108a99190612a67565b815481106108e0577f4e487b7100000000000000000000000000000000000000000000000000000000600052603260045260246000fd5b90600052602060002001600360008573ffffffffffffffffffffffffffffffffffffffff1673ffffffffffffffffffffffffffffffffffffffff1681526020019081526020016000208281548110610961577f4e487b7100000000000000000000000000000000000000000000000000000000600052603260045260246000fd5b906000526020600020016000820160009054906101000a900473ffffffffffffffffffffffffffffffffffffffff168160000160006101000a81548173ffffffffffffffffffffffffffffffffffffffff021916908373ffffffffffffffffffffffffffffffffffffffff16021790555090505080806109e090612cc5565b915050610807565b50600360008373ffffffffffffffffffffffffffffffffffffffff1673ffffffffffffffffffffffffffffffffffffffff168152602001908152602001600020805480610a5e577f4e487b7100000000000000000000000000000000000000000000000000000000600052603160045260246000fd5b60019003818190600052602060002001600080820160006101000a81549073ffffffffffffffffffffffffffffffffffffffff0219169055505090555b8080610aa690612cc5565b9150506106df565b5050565b6000806000905060005b600260003373ffffffffffffffffffffffffffffffffffffffff1673ffffffffffffffffffffffffffffffffffffffff16815260200190815260200160002080549050811015610bfc578373ffffffffffffffffffffffffffffffffffffffff16600260003373ffffffffffffffffffffffffffffffffffffffff1673ffffffffffffffffffffffffffffffffffffffff1681526020019081526020016000208281548110610b94577f4e487b7100000000000000000000000000000000000000000000000000000000600052603260045260246000fd5b9060005260206000200160000160009054906101000a900473ffffffffffffffffffffffffffffffffffffffff1673ffffffffffffffffffffffffffffffffffffffff161415610be957600192505050610c02565b8080610bf490612cc5565b915050610abc565b50809150505b919050565b60606000805b600180549050811015610cdb578373ffffffffffffffffffffffffffffffffffffffff1660018281548110610c6b577f4e487b7100000000000000000000000000000000000000000000000000000000600052603260045260246000fd5b906000526020600020906004020160010160009054906101000a900473ffffffffffffffffffffffffffffffffffffffff1673ffffffffffffffffffffffffffffffffffffffff161415610cc8578180610cc490612cc5565b9250505b8080610cd390612cc5565b915050610c0d565b5060008167ffffffffffffffff811115610d1e577f4e487b7100000000000000000000000000000000000000000000000000000000600052604160045260246000fd5b604051908082528060200260200182016040528015610d5757816020015b610d446121f1565b815260200190600190039081610d3c5790505b50905060008060018080549050610d6e9190612b51565b90505b80600013611055578573ffffffffffffffffffffffffffffffffffffffff1660018281548110610dca577f4e487b7100000000000000000000000000000000000000000000000000000000600052603260045260246000fd5b906000526020600020906004020160010160009054906101000a900473ffffffffffffffffffffffffffffffffffffffff1673ffffffffffffffffffffffffffffffffffffffff1614156110425760018181548110610e52577f4e487b7100000000000000000000000000000000000000000000000000000000600052603260045260246000fd5b9060005260206000209060040201604051806080016040529081600082018054610e7b90612c62565b80601f0160208091040260200160405190810160405280929190818152602001828054610ea790612c62565b8015610ef45780601f10610ec957610100808354040283529160200191610ef4565b820191906000526020600020905b815481529060010190602001808311610ed757829003601f168201915b505050505081526020016001820160009054906101000a900473ffffffffffffffffffffffffffffffffffffffff1673ffffffffffffffffffffffffffffffffffffffff1673ffffffffffffffffffffffffffffffffffffffff16815260200160028201548152602001600382018054610f6d90612c62565b80601f0160208091040260200160405190810160405280929190818152602001828054610f9990612c62565b8015610fe65780601f10610fbb57610100808354040283529160200191610fe6565b820191906000526020600020905b815481529060010190602001808311610fc957829003601f168201915b505050505081525050838381518110611028577f4e487b7100000000000000000000000000000000000000000000000000000000600052603260045260246000fd5b6020026020010181905250818061103e90612cc5565b9250505b808061104d90612c19565b915050610d71565b50819350505050919050565b606060008312156110a7576040517f08c379a000000000000000000000000000000000000000000000000000000000815260040161109e90612912565b60405180910390fd5b60018054905083111561113657600067ffffffffffffffff8111156110f5577f4e487b7100000000000000000000000000000000000000000000000000000000600052604160045260246000fd5b60405190808252806020026020018201604052801561112e57816020015b61111b6121f1565b8152602001906001900390816111135790505b5090506114b7565b60006001805490509050600083858361114f9190612abd565b136111655784826111609190612abd565b611167565b835b905060008167ffffffffffffffff8111156111ab577f4e487b7100000000000000000000000000000000000000000000000000000000600052604160045260246000fd5b6040519080825280602002602001820160405280156111e457816020015b6111d16121f1565b8152602001906001900390816111c95790505b509050600080600188856111f89190612abd565b6112029190612abd565b90505b808789866112139190612abd565b61121d9190612abd565b136114ae57600188856112309190612abd565b61123a9190612abd565b811315801561125f5750808789866112529190612abd565b61125c9190612abd565b13155b801561126c575060008112155b1561149b57600181815481106112ab577f4e487b7100000000000000000000000000000000000000000000000000000000600052603260045260246000fd5b90600052602060002090600402016040518060800160405290816000820180546112d490612c62565b80601f016020809104026020016040519081016040528092919081815260200182805461130090612c62565b801561134d5780601f106113225761010080835404028352916020019161134d565b820191906000526020600020905b81548152906001019060200180831161133057829003601f168201915b505050505081526020016001820160009054906101000a900473ffffffffffffffffffffffffffffffffffffffff1673ffffffffffffffffffffffffffffffffffffffff1673ffffffffffffffffffffffffffffffffffffffff168152602001600282015481526020016003820180546113c690612c62565b80601f01602080910402602001604051908101604052809291908181526020018280546113f290612c62565b801561143f5780601f106114145761010080835404028352916020019161143f565b820191906000526020600020905b81548152906001019060200180831161142257829003601f168201915b505050505081525050838381518110611481577f4e487b7100000000000000000000000000000000000000000000000000000000600052603260045260246000fd5b6020026020010181905250818061149790612cc5565b9250505b80806114a690612c19565b915050611205565b50819450505050505b92915050565b3373ffffffffffffffffffffffffffffffffffffffff168173ffffffffffffffffffffffffffffffffffffffff16141561152c576040517f08c379a000000000000000000000000000000000000000000000000000000000815260040161152390612932565b60405180910390fd5b6000805b600260003373ffffffffffffffffffffffffffffffffffffffff1673ffffffffffffffffffffffffffffffffffffffff1681526020019081526020016000208054905081101561166a578273ffffffffffffffffffffffffffffffffffffffff16600260003373ffffffffffffffffffffffffffffffffffffffff1673ffffffffffffffffffffffffffffffffffffffff1681526020019081526020016000208281548110611608577f4e487b7100000000000000000000000000000000000000000000000000000000600052603260045260246000fd5b9060005260206000200160000160009054906101000a900473ffffffffffffffffffffffffffffffffffffffff1673ffffffffffffffffffffffffffffffffffffffff16141561165757600191505b808061166290612cc5565b915050611530565b508061174357600260003373ffffffffffffffffffffffffffffffffffffffff1673ffffffffffffffffffffffffffffffffffffffff16815260200190815260200160002060405180602001604052808473ffffffffffffffffffffffffffffffffffffffff168152509080600181540180825580915050600190039060005260206000200160009091909190915060008201518160000160006101000a81548173ffffffffffffffffffffffffffffffffffffffff021916908373ffffffffffffffffffffffffffffffffffffffff16021790555050505b6000905060005b600360008473ffffffffffffffffffffffffffffffffffffffff1673ffffffffffffffffffffffffffffffffffffffff16815260200190815260200160002080549050811015611884573373ffffffffffffffffffffffffffffffffffffffff16600360008573ffffffffffffffffffffffffffffffffffffffff1673ffffffffffffffffffffffffffffffffffffffff1681526020019081526020016000208281548110611822577f4e487b7100000000000000000000000000000000000000000000000000000000600052603260045260246000fd5b9060005260206000200160000160009054906101000a900473ffffffffffffffffffffffffffffffffffffffff1673ffffffffffffffffffffffffffffffffffffffff16141561187157600191505b808061187c90612cc5565b91505061174a565b508061195d57600360008373ffffffffffffffffffffffffffffffffffffffff1673ffffffffffffffffffffffffffffffffffffffff16815260200190815260200160002060405180602001604052803373ffffffffffffffffffffffffffffffffffffffff168152509080600181540180825580915050600190039060005260206000200160009091909190915060008201518160000160006101000a81548173ffffffffffffffffffffffffffffffffffffffff021916908373ffffffffffffffffffffffffffffffffffffffff16021790555050505b5050565b600060019054906101000a900460ff1680611987575060008054906101000a900460ff16155b6119c6576040517f08c379a00000000000000000000000000000000000000000000000000000000081526004016119bd906128f2565b60405180910390fd5b60008060019054906101000a900460ff161590508015611a16576001600060016101000a81548160ff02191690831515021790555060016000806101000a81548160ff0219169083151502179055505b8015611a375760008060016101000a81548160ff0219169083151502179055505b50565b6060600360008373ffffffffffffffffffffffffffffffffffffffff1673ffffffffffffffffffffffffffffffffffffffff168152602001908152602001600020805480602002602001604051908101604052809291908181526020016000905b82821015611b1f578382906000526020600020016040518060200160405290816000820160009054906101000a900473ffffffffffffffffffffffffffffffffffffffff1673ffffffffffffffffffffffffffffffffffffffff1673ffffffffffffffffffffffffffffffffffffffff168152505081526020019060010190611a9b565b505050509050919050565b6060600260008373ffffffffffffffffffffffffffffffffffffffff1673ffffffffffffffffffffffffffffffffffffffff168152602001908152602001600020805480602002602001604051908101604052809291908181526020016000905b82821015611c0f578382906000526020600020016040518060200160405290816000820160009054906101000a900473ffffffffffffffffffffffffffffffffffffffff1673ffffffffffffffffffffffffffffffffffffffff1673ffffffffffffffffffffffffffffffffffffffff168152505081526020019060010190611b8b565b505050509050919050565b600081511115611d1857600160405180608001604052808481526020013373ffffffffffffffffffffffffffffffffffffffff1681526020014281526020018381525090806001815401808255809150506001900390600052602060002090600402016000909190919091506000820151816000019080519060200190611ca292919061222f565b5060208201518160010160006101000a81548173ffffffffffffffffffffffffffffffffffffffff021916908373ffffffffffffffffffffffffffffffffffffffff160217905550604082015181600201556060820151816003019080519060200190611d1092919061222f565b505050611f81565b6000825111611d5c576040517f08c379a0000000000000000000000000000000000000000000000000000000008152600401611d53906128b2565b60405180910390fd5b60006001905060005b8351811015611e3f576000848281518110611da9577f4e487b7100000000000000000000000000000000000000000000000000000000600052603260045260246000fd5b602001015160f81c60f81b90507f20000000000000000000000000000000000000000000000000000000000000007effffffffffffffffffffffffffffffffffffffffffffffffffffffffffffff1916817effffffffffffffffffffffffffffffffffffffffffffffffffffffffffffff191614611e2b576000925050611e3f565b508080611e3790612cc5565b915050611d65565b508015611e81576040517f08c379a0000000000000000000000000000000000000000000000000000000008152600401611e7890612952565b60405180910390fd5b600160405180608001604052808581526020013373ffffffffffffffffffffffffffffffffffffffff1681526020014281526020016040518060200160405280600081525081525090806001815401808255809150506001900390600052602060002090600402016000909190919091506000820151816000019080519060200190611f0e92919061222f565b5060208201518160010160006101000a81548173ffffffffffffffffffffffffffffffffffffffff021916908373ffffffffffffffffffffffffffffffffffffffff160217905550604082015181600201556060820151816003019080519060200190611f7c92919061222f565b505050505b3373ffffffffffffffffffffffffffffffffffffffff167fed917e0e51bb528b7fef2750065cd119dddd8e8fa54f38a656d4107e7c14f37a83604051611fc7919061283d565b60405180910390a25050565b60026020528160005260406000208181548110611fef57600080fd5b90600052602060002001600091509150508060000160009054906101000a900473ffffffffffffffffffffffffffffffffffffffff16905081565b6001818154811061203a57600080fd5b906000526020600020906004020160009150905080600001805461205d90612c62565b80601f016020809104026020016040519081016040528092919081815260200182805461208990612c62565b80156120d65780601f106120ab576101008083540402835291602001916120d6565b820191906000526020600020905b8154815290600101906020018083116120b957829003601f168201915b5050505050908060010160009054906101000a900473ffffffffffffffffffffffffffffffffffffffff169080600201549080600301805461211790612c62565b80601f016020809104026020016040519081016040528092919081815260200182805461214390612c62565b80156121905780601f1061216557610100808354040283529160200191612190565b820191906000526020600020905b81548152906001019060200180831161217357829003601f168201915b5050505050905084565b600360205281600052604060002081815481106121b657600080fd5b90600052602060002001600091509150508060000160009054906101000a900473ffffffffffffffffffffffffffffffffffffffff16905081565b604051806080016040528060608152602001600073ffffffffffffffffffffffffffffffffffffffff16815260200160008152602001606081525090565b82805461223b90612c62565b90600052602060002090601f01602090048101928261225d57600085556122a4565b82601f1061227657805160ff19168380011785556122a4565b828001600101855582156122a4579182015b828111156122a3578251825591602001919060010190612288565b5b5090506122b191906122b5565b5090565b5b808211156122ce5760008160009055506001016122b6565b5090565b60006122e56122e084612997565b612972565b9050828152602081018484840111156122fd57600080fd5b612308848285612bd7565b509392505050565b60008135905061231f81612eee565b92915050565b60008135905061233481612f05565b92915050565b600082601f83011261234b57600080fd5b813561235b8482602086016122d2565b91505092915050565b60008135905061237381612f1c565b92915050565b60006020828403121561238b57600080fd5b600061239984828501612310565b91505092915050565b600080604083850312156123b557600080fd5b60006123c385828601612310565b92505060206123d485828601612364565b9150509250929050565b600080604083850312156123f157600080fd5b60006123ff85828601612325565b925050602061241085828601612325565b9150509250929050565b6000806040838503121561242d57600080fd5b600083013567ffffffffffffffff81111561244757600080fd5b6124538582860161233a565b925050602083013567ffffffffffffffff81111561247057600080fd5b61247c8582860161233a565b9150509250929050565b60006020828403121561249857600080fd5b60006124a684828501612364565b91505092915050565b60006124bb838361271f565b905092915050565b60006124cf8383612789565b60208301905092915050565b6124e481612b85565b82525050565b6124f381612b85565b82525050565b6000612504826129e8565b61250e8185612a23565b935083602082028501612520856129c8565b8060005b8581101561255c578484038952815161253d85826124af565b945061254883612a09565b925060208a01995050600181019050612524565b50829750879550505050505092915050565b6000612579826129f3565b6125838185612a34565b935061258e836129d8565b8060005b838110156125bf5781516125a688826124c3565b97506125b183612a16565b925050600181019050612592565b5085935050505092915050565b6125d581612b97565b82525050565b60006125e6826129fe565b6125f08185612a45565b9350612600818560208601612be6565b61260981612d9b565b840191505092915050565b600061261f826129fe565b6126298185612a56565b9350612639818560208601612be6565b61264281612d9b565b840191505092915050565b600061265a601283612a56565b915061266582612dac565b602082019050919050565b600061267d601d83612a56565b915061268882612dd5565b602082019050919050565b60006126a0602e83612a56565b91506126ab82612dfe565b604082019050919050565b60006126c3602a83612a56565b91506126ce82612e4d565b604082019050919050565b60006126e6601b83612a56565b91506126f182612e9c565b602082019050919050565b6000612709602083612a56565b915061271482612ec5565b602082019050919050565b6000608083016000830151848203600086015261273c82826125db565b915050602083015161275160208601826124db565b50604083015161276460408601826127a5565b506060830151848203606086015261277c82826125db565b9150508091505092915050565b60208201600082015161279f60008501826124db565b50505050565b6127ae81612bcd565b82525050565b6127bd81612bcd565b82525050565b60006020820190506127d860008301846124ea565b92915050565b600060208201905081810360008301526127f881846124f9565b905092915050565b6000602082019050818103600083015261281a818461256e565b905092915050565b600060208201905061283760008301846125cc565b92915050565b600060208201905081810360008301526128578184612614565b905092915050565b600060808201905081810360008301526128798187612614565b905061288860208301866124ea565b61289560408301856127b4565b81810360608301526128a78184612614565b905095945050505050565b600060208201905081810360008301526128cb8161264d565b9050919050565b600060208201905081810360008301526128eb81612670565b9050919050565b6000602082019050818103600083015261290b81612693565b9050919050565b6000602082019050818103600083015261292b816126b6565b9050919050565b6000602082019050818103600083015261294b816126d9565b9050919050565b6000602082019050818103600083015261296b816126fc565b9050919050565b600061297c61298d565b90506129888282612c94565b919050565b6000604051905090565b600067ffffffffffffffff8211156129b2576129b1612d6c565b5b6129bb82612d9b565b9050602081019050919050565b6000819050602082019050919050565b6000819050602082019050919050565b600081519050919050565b600081519050919050565b600081519050919050565b6000602082019050919050565b6000602082019050919050565b600082825260208201905092915050565b600082825260208201905092915050565b600082825260208201905092915050565b600082825260208201905092915050565b6000612a7282612bcd565b9150612a7d83612bcd565b9250827fffffffffffffffffffffffffffffffffffffffffffffffffffffffffffffffff03821115612ab257612ab1612d0e565b5b828201905092915050565b6000612ac882612ba3565b9150612ad383612ba3565b9250827f800000000000000000000000000000000000000000000000000000000000000001821260008412151615612b0e57612b0d612d0e565b5b827f7fffffffffffffffffffffffffffffffffffffffffffffffffffffffffffffff018213600084121615612b4657612b45612d0e565b5b828203905092915050565b6000612b5c82612bcd565b9150612b6783612bcd565b925082821015612b7a57612b79612d0e565b5b828203905092915050565b6000612b9082612bad565b9050919050565b60008115159050919050565b6000819050919050565b600073ffffffffffffffffffffffffffffffffffffffff82169050919050565b6000819050919050565b82818337600083830152505050565b60005b83811015612c04578082015181840152602081019050612be9565b83811115612c13576000848401525b50505050565b6000612c2482612ba3565b91507f8000000000000000000000000000000000000000000000000000000000000000821415612c5757612c56612d0e565b5b600182039050919050565b60006002820490506001821680612c7a57607f821691505b60208210811415612c8e57612c8d612d3d565b5b50919050565b612c9d82612d9b565b810181811067ffffffffffffffff82111715612cbc57612cbb612d6c565b5b80604052505050565b6000612cd082612bcd565b91507fffffffffffffffffffffffffffffffffffffffffffffffffffffffffffffffff821415612d0357612d02612d0e565b5b600182019050919050565b7f4e487b7100000000000000000000000000000000000000000000000000000000600052601160045260246000fd5b7f4e487b7100000000000000000000000000000000000000000000000000000000600052602260045260246000fd5b7f4e487b7100000000000000000000000000000000000000000000000000000000600052604160045260246000fd5b6000601f19601f8301169050919050565b7f547765657420697320746f6f2073686f72740000000000000000000000000000600082015250565b7f596f752063616e6e6f7420756e666f6c6c6f7720796f757273656c662e000000600082015250565b7f496e697469616c697a61626c653a20636f6e747261637420697320616c72656160008201527f647920696e697469616c697a6564000000000000000000000000000000000000602082015250565b7f4f6666736574206d7573742062652067726561746572207468616e206f72206560008201527f7175616c20746f20302e00000000000000000000000000000000000000000000602082015250565b7f596f752063616e6e6f7420666f6c6c6f7720796f757273656c662e0000000000600082015250565b7f5370616365206f6e6c79207477656574206973206e6f7420616c6c6f7765642e600082015250565b612ef781612b85565b8114612f0257600080fd5b50565b612f0e81612ba3565b8114612f1957600080fd5b50565b612f2581612bcd565b8114612f3057600080fd5b5056fea26469706673582212201c5dc78394411376cc02ddec5866de1d59f4f0ae75060bf8d203dd47fc20f92b64736f6c63430008040033",
  "linkReferences": {},
  "deployedLinkReferences": {}
}